{
	"FundMe.sol": {
		"FundMe": {
			"abi": [
				{
					"inputs": [],
					"stateMutability": "nonpayable",
					"type": "constructor"
				},
				{
					"inputs": [],
					"name": "NotOwner",
					"type": "error"
				},
				{
					"inputs": [],
					"name": "MINIMUM_USD",
					"outputs": [
						{
							"internalType": "uint256",
							"name": "",
							"type": "uint256"
						}
					],
					"stateMutability": "view",
					"type": "function"
				},
				{
					"inputs": [],
					"name": "fund",
					"outputs": [],
					"stateMutability": "payable",
					"type": "function"
				},
				{
					"inputs": [
						{
							"internalType": "address",
							"name": "funder",
							"type": "address"
						}
					],
					"name": "funderAmount",
					"outputs": [
						{
							"internalType": "uint256",
							"name": "amountFunded",
							"type": "uint256"
						}
					],
					"stateMutability": "view",
					"type": "function"
				},
				{
					"inputs": [
						{
							"internalType": "uint256",
							"name": "",
							"type": "uint256"
						}
					],
					"name": "funders",
					"outputs": [
						{
							"internalType": "address",
							"name": "",
							"type": "address"
						}
					],
					"stateMutability": "view",
					"type": "function"
				},
				{
					"inputs": [],
					"name": "getAddress",
					"outputs": [
						{
							"internalType": "address",
							"name": "",
							"type": "address"
						}
					],
					"stateMutability": "view",
					"type": "function"
				},
				{
					"inputs": [],
					"name": "i_owner",
					"outputs": [
						{
							"internalType": "address",
							"name": "",
							"type": "address"
						}
					],
					"stateMutability": "view",
					"type": "function"
				},
				{
					"inputs": [],
					"name": "withdraw",
					"outputs": [],
					"stateMutability": "nonpayable",
					"type": "function"
				}
			],
			"devdoc": {
				"kind": "dev",
				"methods": {},
				"version": 1
			},
			"evm": {
				"assembly": "    /* \"FundMe.sol\":264:2182  contract FundMe {... */\n  mstore(0x40, 0xa0)\n    /* \"FundMe.sol\":531:584  constructor() {... */\n  callvalue\n  dup1\n  iszero\n  tag_1\n  jumpi\n  0x00\n  dup1\n  revert\ntag_1:\n  pop\n    /* \"FundMe.sol\":566:576  msg.sender */\n  caller\n    /* \"FundMe.sol\":556:576  i_owner = msg.sender */\n  0xffffffffffffffffffffffffffffffffffffffff\n  and\n  0x80\n  dup2\n  0xffffffffffffffffffffffffffffffffffffffff\n  and\n  dup2\n  mstore\n  pop\n  pop\n    /* \"FundMe.sol\":264:2182  contract FundMe {... */\n  mload(0x80)\n  codecopy(0x00, dataOffset(sub_0), dataSize(sub_0))\n  0x00\n  assignImmutable(\"0xcc143a676b82d5e07b2c9d57717b403ab3c58caa273a42cdb95b15980141a86c\")\n  return(0x00, dataSize(sub_0))\nstop\n\nsub_0: assembly {\n        /* \"FundMe.sol\":264:2182  contract FundMe {... */\n      mstore(0x40, 0x80)\n      jumpi(tag_1, lt(calldatasize, 0x04))\n      shr(0xe0, calldataload(0x00))\n      dup1\n      0xaf5e73a4\n      gt\n      tag_9\n      jumpi\n      dup1\n      0xaf5e73a4\n      eq\n      tag_5\n      jumpi\n      dup1\n      0xb60d4288\n      eq\n      tag_6\n      jumpi\n      dup1\n      0xdba6335f\n      eq\n      tag_7\n      jumpi\n      dup1\n      0xdc0d3dff\n      eq\n      tag_8\n      jumpi\n      jump(tag_1)\n    tag_9:\n      dup1\n      0x38cc4831\n      eq\n      tag_2\n      jumpi\n      dup1\n      0x3ccfd60b\n      eq\n      tag_3\n      jumpi\n      dup1\n      0x6b69a592\n      eq\n      tag_4\n      jumpi\n    tag_1:\n      0x00\n      dup1\n      revert\n        /* \"FundMe.sol\":883:973  function getAddress() public view returns(address) {... */\n    tag_2:\n      callvalue\n      dup1\n      iszero\n      tag_10\n      jumpi\n      0x00\n      dup1\n      revert\n    tag_10:\n      pop\n      tag_11\n      tag_12\n      jump\t// in\n    tag_11:\n      mload(0x40)\n      tag_13\n      swap2\n      swap1\n      tag_14\n      jump\t// in\n    tag_13:\n      mload(0x40)\n      dup1\n      swap2\n      sub\n      swap1\n      return\n        /* \"FundMe.sol\":981:1925  function withdraw() public onlyOwner {... */\n    tag_3:\n      callvalue\n      dup1\n      iszero\n      tag_15\n      jumpi\n      0x00\n      dup1\n      revert\n    tag_15:\n      pop\n      tag_16\n      tag_17\n      jump\t// in\n    tag_16:\n      stop\n        /* \"FundMe.sol\":328:370  uint256 public constant MINIMUM_USD = 5e18 */\n    tag_4:\n      callvalue\n      dup1\n      iszero\n      tag_18\n      jumpi\n      0x00\n      dup1\n      revert\n    tag_18:\n      pop\n      tag_19\n      tag_20\n      jump\t// in\n    tag_19:\n      mload(0x40)\n      tag_21\n      swap2\n      swap1\n      tag_22\n      jump\t// in\n    tag_21:\n      mload(0x40)\n      dup1\n      swap2\n      sub\n      swap1\n      return\n        /* \"FundMe.sol\":413:481  mapping (address funder => uint256 amountFunded) public funderAmount */\n    tag_5:\n      callvalue\n      dup1\n      iszero\n      tag_23\n      jumpi\n      0x00\n      dup1\n      revert\n    tag_23:\n      pop\n      tag_24\n      0x04\n      dup1\n      calldatasize\n      sub\n      dup2\n      add\n      swap1\n      tag_25\n      swap2\n      swap1\n      tag_26\n      jump\t// in\n    tag_25:\n      tag_27\n      jump\t// in\n    tag_24:\n      mload(0x40)\n      tag_28\n      swap2\n      swap1\n      tag_22\n      jump\t// in\n    tag_28:\n      mload(0x40)\n      dup1\n      swap2\n      sub\n      swap1\n      return\n        /* \"FundMe.sol\":592:875  function fund() public payable {... */\n    tag_6:\n      tag_29\n      tag_30\n      jump\t// in\n    tag_29:\n      stop\n        /* \"FundMe.sol\":490:522  address public immutable i_owner */\n    tag_7:\n      callvalue\n      dup1\n      iszero\n      tag_31\n      jumpi\n      0x00\n      dup1\n      revert\n    tag_31:\n      pop\n      tag_32\n      tag_33\n      jump\t// in\n    tag_32:\n      mload(0x40)\n      tag_34\n      swap2\n      swap1\n      tag_14\n      jump\t// in\n    tag_34:\n      mload(0x40)\n      dup1\n      swap2\n      sub\n      swap1\n      return\n        /* \"FundMe.sol\":379:404  address[]  public funders */\n    tag_8:\n      callvalue\n      dup1\n      iszero\n      tag_35\n      jumpi\n      0x00\n      dup1\n      revert\n    tag_35:\n      pop\n      tag_36\n      0x04\n      dup1\n      calldatasize\n      sub\n      dup2\n      add\n      swap1\n      tag_37\n      swap2\n      swap1\n      tag_38\n      jump\t// in\n    tag_37:\n      tag_39\n      jump\t// in\n    tag_36:\n      mload(0x40)\n      tag_40\n      swap2\n      swap1\n      tag_14\n      jump\t// in\n    tag_40:\n      mload(0x40)\n      dup1\n      swap2\n      sub\n      swap1\n      return\n        /* \"FundMe.sol\":883:973  function getAddress() public view returns(address) {... */\n    tag_12:\n        /* \"FundMe.sol\":925:932  address */\n      0x00\n        /* \"FundMe.sol\":960:964  this */\n      address\n        /* \"FundMe.sol\":945:965  return address(this) */\n      swap1\n      pop\n        /* \"FundMe.sol\":883:973  function getAddress() public view returns(address) {... */\n      swap1\n      jump\t// out\n        /* \"FundMe.sol\":981:1925  function withdraw() public onlyOwner {... */\n    tag_17:\n        /* \"FundMe.sol\":2046:2053  i_owner */\n      immutable(\"0xcc143a676b82d5e07b2c9d57717b403ab3c58caa273a42cdb95b15980141a86c\")\n        /* \"FundMe.sol\":2032:2053  msg.sender != i_owner */\n      0xffffffffffffffffffffffffffffffffffffffff\n      and\n        /* \"FundMe.sol\":2032:2042  msg.sender */\n      caller\n        /* \"FundMe.sol\":2032:2053  msg.sender != i_owner */\n      0xffffffffffffffffffffffffffffffffffffffff\n      and\n      eq\n        /* \"FundMe.sol\":2028:2075  if (msg.sender != i_owner) {revert NotOwner();} */\n      tag_43\n      jumpi\n        /* \"FundMe.sol\":2063:2073  NotOwner() */\n      mload(0x40)\n      0x30cd747100000000000000000000000000000000000000000000000000000000\n      dup2\n      mstore\n      0x04\n      add\n      mload(0x40)\n      dup1\n      swap2\n      sub\n      swap1\n      revert\n        /* \"FundMe.sol\":2028:2075  if (msg.sender != i_owner) {revert NotOwner();} */\n    tag_43:\n        /* \"FundMe.sol\":1159:1178  uint256 funderIndex */\n      0x00\n        /* \"FundMe.sol\":1155:1627  for(uint256 funderIndex = 0; funderIndex < funders.length; funderIndex++) {... */\n    tag_45:\n        /* \"FundMe.sol\":1198:1205  funders */\n      0x00\n        /* \"FundMe.sol\":1198:1212  funders.length */\n      dup1\n      sload\n      swap1\n      pop\n        /* \"FundMe.sol\":1184:1195  funderIndex */\n      dup2\n        /* \"FundMe.sol\":1184:1212  funderIndex < funders.length */\n      lt\n        /* \"FundMe.sol\":1155:1627  for(uint256 funderIndex = 0; funderIndex < funders.length; funderIndex++) {... */\n      iszero\n      tag_46\n      jumpi\n        /* \"FundMe.sol\":1366:1380  address funder */\n      0x00\n        /* \"FundMe.sol\":1383:1390  funders */\n      dup1\n        /* \"FundMe.sol\":1391:1402  funderIndex */\n      dup3\n        /* \"FundMe.sol\":1383:1403  funders[funderIndex] */\n      dup2\n      sload\n      dup2\n      lt\n      tag_48\n      jumpi\n      tag_49\n      tag_50\n      jump\t// in\n    tag_49:\n    tag_48:\n      swap1\n      0x00\n      mstore\n      keccak256(0x00, 0x20)\n      add\n      0x00\n      swap1\n      sload\n      swap1\n      0x0100\n      exp\n      swap1\n      div\n      0xffffffffffffffffffffffffffffffffffffffff\n      and\n        /* \"FundMe.sol\":1366:1403  address funder = funders[funderIndex] */\n      swap1\n      pop\n        /* \"FundMe.sol\":1530:1531  0 */\n      0x00\n        /* \"FundMe.sol\":1507:1519  funderAmount */\n      0x01\n        /* \"FundMe.sol\":1507:1527  funderAmount[funder] */\n      0x00\n        /* \"FundMe.sol\":1520:1526  funder */\n      dup4\n        /* \"FundMe.sol\":1507:1527  funderAmount[funder] */\n      0xffffffffffffffffffffffffffffffffffffffff\n      and\n      0xffffffffffffffffffffffffffffffffffffffff\n      and\n      dup2\n      mstore\n      0x20\n      add\n      swap1\n      dup2\n      mstore\n      0x20\n      add\n      0x00\n      keccak256\n        /* \"FundMe.sol\":1507:1531  funderAmount[funder] = 0 */\n      dup2\n      swap1\n      sstore\n      pop\n        /* \"FundMe.sol\":1229:1627  {... */\n      pop\n        /* \"FundMe.sol\":1214:1227  funderIndex++ */\n      dup1\n      dup1\n      0x01\n      add\n      swap2\n      pop\n      pop\n        /* \"FundMe.sol\":1155:1627  for(uint256 funderIndex = 0; funderIndex < funders.length; funderIndex++) {... */\n      jump(tag_45)\n    tag_46:\n      pop\n        /* \"FundMe.sol\":1663:1664  0 */\n      0x00\n        /* \"FundMe.sol\":1649:1665  new address[](0) */\n      0xffffffffffffffff\n      dup2\n      gt\n      iszero\n      tag_52\n      jumpi\n      tag_53\n      tag_54\n      jump\t// in\n    tag_53:\n    tag_52:\n      mload(0x40)\n      swap1\n      dup1\n      dup3\n      mstore\n      dup1\n      0x20\n      mul\n      0x20\n      add\n      dup3\n      add\n      0x40\n      mstore\n      dup1\n      iszero\n      tag_55\n      jumpi\n      dup2\n      0x20\n      add\n      0x20\n      dup3\n      mul\n      dup1\n      calldatasize\n      dup4\n      calldatacopy\n      dup1\n      dup3\n      add\n      swap2\n      pop\n      pop\n      swap1\n      pop\n    tag_55:\n      pop\n        /* \"FundMe.sol\":1639:1646  funders */\n      0x00\n        /* \"FundMe.sol\":1639:1665  funders = new address[](0) */\n      swap1\n      dup1\n      mload\n      swap1\n      0x20\n      add\n      swap1\n      tag_56\n      swap3\n      swap2\n      swap1\n      tag_57\n      jump\t// in\n    tag_56:\n      pop\n        /* \"FundMe.sol\":1789:1805  bool callSuccess */\n      0x00\n        /* \"FundMe.sol\":1819:1829  msg.sender */\n      caller\n        /* \"FundMe.sol\":1810:1835  payable (msg.sender).call */\n      0xffffffffffffffffffffffffffffffffffffffff\n      and\n        /* \"FundMe.sol\":1843:1864  address(this).balance */\n      selfbalance\n        /* \"FundMe.sol\":1810:1869  payable (msg.sender).call{value: address(this).balance}(\"\") */\n      mload(0x40)\n      tag_58\n      swap1\n      tag_59\n      jump\t// in\n    tag_58:\n      0x00\n      mload(0x40)\n      dup1\n      dup4\n      sub\n      dup2\n      dup6\n      dup8\n      gas\n      call\n      swap3\n      pop\n      pop\n      pop\n      returndatasize\n      dup1\n      0x00\n      dup2\n      eq\n      tag_62\n      jumpi\n      mload(0x40)\n      swap2\n      pop\n      and(add(returndatasize, 0x3f), not(0x1f))\n      dup3\n      add\n      0x40\n      mstore\n      returndatasize\n      dup3\n      mstore\n      returndatasize\n      0x00\n      0x20\n      dup5\n      add\n      returndatacopy\n      jump(tag_61)\n    tag_62:\n      0x60\n      swap2\n      pop\n    tag_61:\n      pop\n        /* \"FundMe.sol\":1788:1869  (bool callSuccess,) = payable (msg.sender).call{value: address(this).balance}(\"\") */\n      pop\n      swap1\n      pop\n        /* \"FundMe.sol\":1888:1899  callSuccess */\n      dup1\n        /* \"FundMe.sol\":1880:1915  require(callSuccess, \"Call Failed\") */\n      tag_63\n      jumpi\n      mload(0x40)\n      0x08c379a000000000000000000000000000000000000000000000000000000000\n      dup2\n      mstore\n      0x04\n      add\n      tag_64\n      swap1\n      tag_65\n      jump\t// in\n    tag_64:\n      mload(0x40)\n      dup1\n      swap2\n      sub\n      swap1\n      revert\n    tag_63:\n        /* \"FundMe.sol\":1018:1925  {... */\n      pop\n        /* \"FundMe.sol\":981:1925  function withdraw() public onlyOwner {... */\n      jump\t// out\n        /* \"FundMe.sol\":328:370  uint256 public constant MINIMUM_USD = 5e18 */\n    tag_20:\n        /* \"FundMe.sol\":366:370  5e18 */\n      0x4563918244f40000\n        /* \"FundMe.sol\":328:370  uint256 public constant MINIMUM_USD = 5e18 */\n      dup2\n      jump\t// out\n        /* \"FundMe.sol\":413:481  mapping (address funder => uint256 amountFunded) public funderAmount */\n    tag_27:\n      mstore(0x20, 0x01)\n      dup1\n      0x00\n      mstore\n      keccak256(0x00, 0x40)\n      0x00\n      swap2\n      pop\n      swap1\n      pop\n      sload\n      dup2\n      jump\t// out\n        /* \"FundMe.sol\":592:875  function fund() public payable {... */\n    tag_30:\n        /* \"FundMe.sol\":366:370  5e18 */\n      0x4563918244f40000\n        /* \"FundMe.sol\":642:671  msg.value.getConversionRate() */\n      tag_67\n        /* \"FundMe.sol\":642:651  msg.value */\n      callvalue\n        /* \"FundMe.sol\":642:669  msg.value.getConversionRate */\n      tag_68\n        /* \"FundMe.sol\":642:671  msg.value.getConversionRate() */\n      jump\t// in\n    tag_67:\n        /* \"FundMe.sol\":642:686  msg.value.getConversionRate() >= MINIMUM_USD */\n      lt\n      iszero\n        /* \"FundMe.sol\":634:707  require(msg.value.getConversionRate() >= MINIMUM_USD, \"Not enough money\") */\n      tag_69\n      jumpi\n      mload(0x40)\n      0x08c379a000000000000000000000000000000000000000000000000000000000\n      dup2\n      mstore\n      0x04\n      add\n      tag_70\n      swap1\n      tag_71\n      jump\t// in\n    tag_70:\n      mload(0x40)\n      dup1\n      swap2\n      sub\n      swap1\n      revert\n    tag_69:\n        /* \"FundMe.sol\":718:725  funders */\n      0x00\n        /* \"FundMe.sol\":731:741  msg.sender */\n      caller\n        /* \"FundMe.sol\":718:742  funders.push(msg.sender) */\n      swap1\n      dup1\n      0x01\n      dup2\n      sload\n      add\n      dup1\n      dup3\n      sstore\n      dup1\n      swap2\n      pop\n      pop\n      0x01\n      swap1\n      sub\n      swap1\n      0x00\n      mstore\n      keccak256(0x00, 0x20)\n      add\n      0x00\n      swap1\n      swap2\n      swap1\n      swap2\n      swap1\n      swap2\n      0x0100\n      exp\n      dup2\n      sload\n      dup2\n      0xffffffffffffffffffffffffffffffffffffffff\n      mul\n      not\n      and\n      swap1\n      dup4\n      0xffffffffffffffffffffffffffffffffffffffff\n      and\n      mul\n      or\n      swap1\n      sstore\n      pop\n        /* \"FundMe.sol\":858:867  msg.value */\n      callvalue\n        /* \"FundMe.sol\":830:842  funderAmount */\n      0x01\n        /* \"FundMe.sol\":830:854  funderAmount[msg.sender] */\n      0x00\n        /* \"FundMe.sol\":843:853  msg.sender */\n      caller\n        /* \"FundMe.sol\":830:854  funderAmount[msg.sender] */\n      0xffffffffffffffffffffffffffffffffffffffff\n      and\n      0xffffffffffffffffffffffffffffffffffffffff\n      and\n      dup2\n      mstore\n      0x20\n      add\n      swap1\n      dup2\n      mstore\n      0x20\n      add\n      0x00\n      keccak256\n      0x00\n        /* \"FundMe.sol\":830:867  funderAmount[msg.sender] += msg.value */\n      dup3\n      dup3\n      sload\n      tag_73\n      swap2\n      swap1\n      tag_74\n      jump\t// in\n    tag_73:\n      swap3\n      pop\n      pop\n      dup2\n      swap1\n      sstore\n      pop\n        /* \"FundMe.sol\":592:875  function fund() public payable {... */\n      jump\t// out\n        /* \"FundMe.sol\":490:522  address public immutable i_owner */\n    tag_33:\n      immutable(\"0xcc143a676b82d5e07b2c9d57717b403ab3c58caa273a42cdb95b15980141a86c\")\n      dup2\n      jump\t// out\n        /* \"FundMe.sol\":379:404  address[]  public funders */\n    tag_39:\n      0x00\n      dup2\n      dup2\n      sload\n      dup2\n      lt\n      tag_75\n      jumpi\n      0x00\n      dup1\n      revert\n    tag_75:\n      swap1\n      0x00\n      mstore\n      keccak256(0x00, 0x20)\n      add\n      0x00\n      swap2\n      pop\n      sload\n      swap1\n      0x0100\n      exp\n      swap1\n      div\n      0xffffffffffffffffffffffffffffffffffffffff\n      and\n      dup2\n      jump\t// out\n        /* \"PriceConverter.sol\":492:716  function getConversionRate(uint256 ethAmount) internal view returns (uint256) {... */\n    tag_68:\n        /* \"PriceConverter.sol\":561:568  uint256 */\n      0x00\n        /* \"PriceConverter.sol\":581:597  uint256 ethPrice */\n      dup1\n        /* \"PriceConverter.sol\":600:610  getPrice() */\n      tag_78\n        /* \"PriceConverter.sol\":600:608  getPrice */\n      tag_79\n        /* \"PriceConverter.sol\":600:610  getPrice() */\n      jump\t// in\n    tag_78:\n        /* \"PriceConverter.sol\":581:610  uint256 ethPrice = getPrice() */\n      swap1\n      pop\n        /* \"PriceConverter.sol\":621:643  uint256 ethAmountInUsd */\n      0x00\n        /* \"PriceConverter.sol\":671:675  1e18 */\n      0x0de0b6b3a7640000\n        /* \"PriceConverter.sol\":659:667  ethPrice */\n      dup3\n        /* \"PriceConverter.sol\":647:656  ethAmount */\n      dup6\n        /* \"PriceConverter.sol\":647:667  ethAmount * ethPrice */\n      tag_80\n      swap2\n      swap1\n      tag_81\n      jump\t// in\n    tag_80:\n        /* \"PriceConverter.sol\":646:675  (ethAmount * ethPrice) / 1e18 */\n      tag_82\n      swap2\n      swap1\n      tag_83\n      jump\t// in\n    tag_82:\n        /* \"PriceConverter.sol\":621:675  uint256 ethAmountInUsd = (ethAmount * ethPrice) / 1e18 */\n      swap1\n      pop\n        /* \"PriceConverter.sol\":693:707  ethAmountInUsd */\n      dup1\n        /* \"PriceConverter.sol\":686:707  return ethAmountInUsd */\n      swap3\n      pop\n      pop\n      pop\n        /* \"PriceConverter.sol\":492:716  function getConversionRate(uint256 ethAmount) internal view returns (uint256) {... */\n      swap2\n      swap1\n      pop\n      jump\t// out\n        /* \"PriceConverter.sol\":214:484  function getPrice() internal view returns(uint256){... */\n    tag_79:\n        /* \"PriceConverter.sol\":256:263  uint256 */\n      0x00\n        /* \"PriceConverter.sol\":275:306  AggregatorV3Interface priceFeed */\n      dup1\n        /* \"PriceConverter.sol\":331:373  0x694AA1769357215DE4FAC081bf1f309aDC325306 */\n      0x694aa1769357215de4fac081bf1f309adc325306\n        /* \"PriceConverter.sol\":275:374  AggregatorV3Interface priceFeed = AggregatorV3Interface(0x694AA1769357215DE4FAC081bf1f309aDC325306) */\n      swap1\n      pop\n        /* \"PriceConverter.sol\":388:401  int256 answer */\n      0x00\n        /* \"PriceConverter.sol\":408:417  priceFeed */\n      dup2\n        /* \"PriceConverter.sol\":408:433  priceFeed.latestRoundData */\n      0xffffffffffffffffffffffffffffffffffffffff\n      and\n      0xfeaf968c\n        /* \"PriceConverter.sol\":408:435  priceFeed.latestRoundData() */\n      mload(0x40)\n      dup2\n      0xffffffff\n      and\n      0xe0\n      shl\n      dup2\n      mstore\n      0x04\n      add\n      0xa0\n      mload(0x40)\n      dup1\n      dup4\n      sub\n      dup2\n      dup7\n      gas\n      staticcall\n      iszero\n      dup1\n      iszero\n      tag_86\n      jumpi\n      returndatasize\n      0x00\n      dup1\n      returndatacopy\n      revert(0x00, returndatasize)\n    tag_86:\n      pop\n      pop\n      pop\n      pop\n      mload(0x40)\n      returndatasize\n      not(0x1f)\n      0x1f\n      dup3\n      add\n      and\n      dup3\n      add\n      dup1\n      0x40\n      mstore\n      pop\n      dup2\n      add\n      swap1\n      tag_87\n      swap2\n      swap1\n      tag_88\n      jump\t// in\n    tag_87:\n        /* \"PriceConverter.sol\":386:435  (,int256 answer,,,) = priceFeed.latestRoundData() */\n      pop\n      pop\n      pop\n      swap2\n      pop\n      pop\n        /* \"PriceConverter.sol\":471:475  1e10 */\n      0x02540be400\n        /* \"PriceConverter.sol\":462:468  answer */\n      dup2\n        /* \"PriceConverter.sol\":462:475  answer * 1e10 */\n      tag_89\n      swap2\n      swap1\n      tag_90\n      jump\t// in\n    tag_89:\n        /* \"PriceConverter.sol\":447:476  return uint256(answer * 1e10) */\n      swap3\n      pop\n      pop\n      pop\n        /* \"PriceConverter.sol\":214:484  function getPrice() internal view returns(uint256){... */\n      swap1\n      jump\t// out\n    tag_57:\n      dup3\n      dup1\n      sload\n      dup3\n      dup3\n      sstore\n      swap1\n      0x00\n      mstore\n      keccak256(0x00, 0x20)\n      swap1\n      dup2\n      add\n      swap3\n      dup3\n      iszero\n      tag_91\n      jumpi\n      swap2\n      0x20\n      mul\n      dup3\n      add\n    tag_92:\n      dup3\n      dup2\n      gt\n      iszero\n      tag_93\n      jumpi\n      dup3\n      mload\n      dup3\n      exp(0x0100, 0x00)\n      dup2\n      sload\n      dup2\n      0xffffffffffffffffffffffffffffffffffffffff\n      mul\n      not\n      and\n      swap1\n      dup4\n      0xffffffffffffffffffffffffffffffffffffffff\n      and\n      mul\n      or\n      swap1\n      sstore\n      pop\n      swap2\n      0x20\n      add\n      swap2\n      swap1\n      0x01\n      add\n      swap1\n      jump(tag_92)\n    tag_93:\n    tag_91:\n      pop\n      swap1\n      pop\n      tag_94\n      swap2\n      swap1\n      tag_95\n      jump\t// in\n    tag_94:\n      pop\n      swap1\n      jump\t// out\n    tag_95:\n    tag_96:\n      dup1\n      dup3\n      gt\n      iszero\n      tag_97\n      jumpi\n      0x00\n      dup2\n      0x00\n      swap1\n      sstore\n      pop\n      0x01\n      add\n      jump(tag_96)\n    tag_97:\n      pop\n      swap1\n      jump\t// out\n        /* \"#utility.yul\":7:133   */\n    tag_98:\n        /* \"#utility.yul\":44:51   */\n      0x00\n        /* \"#utility.yul\":84:126   */\n      0xffffffffffffffffffffffffffffffffffffffff\n        /* \"#utility.yul\":77:82   */\n      dup3\n        /* \"#utility.yul\":73:127   */\n      and\n        /* \"#utility.yul\":62:127   */\n      swap1\n      pop\n        /* \"#utility.yul\":7:133   */\n      swap2\n      swap1\n      pop\n      jump\t// out\n        /* \"#utility.yul\":139:235   */\n    tag_99:\n        /* \"#utility.yul\":176:183   */\n      0x00\n        /* \"#utility.yul\":205:229   */\n      tag_130\n        /* \"#utility.yul\":223:228   */\n      dup3\n        /* \"#utility.yul\":205:229   */\n      tag_98\n      jump\t// in\n    tag_130:\n        /* \"#utility.yul\":194:229   */\n      swap1\n      pop\n        /* \"#utility.yul\":139:235   */\n      swap2\n      swap1\n      pop\n      jump\t// out\n        /* \"#utility.yul\":241:359   */\n    tag_100:\n        /* \"#utility.yul\":328:352   */\n      tag_132\n        /* \"#utility.yul\":346:351   */\n      dup2\n        /* \"#utility.yul\":328:352   */\n      tag_99\n      jump\t// in\n    tag_132:\n        /* \"#utility.yul\":323:326   */\n      dup3\n        /* \"#utility.yul\":316:353   */\n      mstore\n        /* \"#utility.yul\":241:359   */\n      pop\n      pop\n      jump\t// out\n        /* \"#utility.yul\":365:587   */\n    tag_14:\n        /* \"#utility.yul\":458:462   */\n      0x00\n        /* \"#utility.yul\":496:498   */\n      0x20\n        /* \"#utility.yul\":485:494   */\n      dup3\n        /* \"#utility.yul\":481:499   */\n      add\n        /* \"#utility.yul\":473:499   */\n      swap1\n      pop\n        /* \"#utility.yul\":509:580   */\n      tag_134\n        /* \"#utility.yul\":577:578   */\n      0x00\n        /* \"#utility.yul\":566:575   */\n      dup4\n        /* \"#utility.yul\":562:579   */\n      add\n        /* \"#utility.yul\":553:559   */\n      dup5\n        /* \"#utility.yul\":509:580   */\n      tag_100\n      jump\t// in\n    tag_134:\n        /* \"#utility.yul\":365:587   */\n      swap3\n      swap2\n      pop\n      pop\n      jump\t// out\n        /* \"#utility.yul\":593:670   */\n    tag_101:\n        /* \"#utility.yul\":630:637   */\n      0x00\n        /* \"#utility.yul\":659:664   */\n      dup2\n        /* \"#utility.yul\":648:664   */\n      swap1\n      pop\n        /* \"#utility.yul\":593:670   */\n      swap2\n      swap1\n      pop\n      jump\t// out\n        /* \"#utility.yul\":676:794   */\n    tag_102:\n        /* \"#utility.yul\":763:787   */\n      tag_137\n        /* \"#utility.yul\":781:786   */\n      dup2\n        /* \"#utility.yul\":763:787   */\n      tag_101\n      jump\t// in\n    tag_137:\n        /* \"#utility.yul\":758:761   */\n      dup3\n        /* \"#utility.yul\":751:788   */\n      mstore\n        /* \"#utility.yul\":676:794   */\n      pop\n      pop\n      jump\t// out\n        /* \"#utility.yul\":800:1022   */\n    tag_22:\n        /* \"#utility.yul\":893:897   */\n      0x00\n        /* \"#utility.yul\":931:933   */\n      0x20\n        /* \"#utility.yul\":920:929   */\n      dup3\n        /* \"#utility.yul\":916:934   */\n      add\n        /* \"#utility.yul\":908:934   */\n      swap1\n      pop\n        /* \"#utility.yul\":944:1015   */\n      tag_139\n        /* \"#utility.yul\":1012:1013   */\n      0x00\n        /* \"#utility.yul\":1001:1010   */\n      dup4\n        /* \"#utility.yul\":997:1014   */\n      add\n        /* \"#utility.yul\":988:994   */\n      dup5\n        /* \"#utility.yul\":944:1015   */\n      tag_102\n      jump\t// in\n    tag_139:\n        /* \"#utility.yul\":800:1022   */\n      swap3\n      swap2\n      pop\n      pop\n      jump\t// out\n        /* \"#utility.yul\":1109:1226   */\n    tag_104:\n        /* \"#utility.yul\":1218:1219   */\n      0x00\n        /* \"#utility.yul\":1215:1216   */\n      dup1\n        /* \"#utility.yul\":1208:1220   */\n      revert\n        /* \"#utility.yul\":1355:1477   */\n    tag_106:\n        /* \"#utility.yul\":1428:1452   */\n      tag_144\n        /* \"#utility.yul\":1446:1451   */\n      dup2\n        /* \"#utility.yul\":1428:1452   */\n      tag_99\n      jump\t// in\n    tag_144:\n        /* \"#utility.yul\":1421:1426   */\n      dup2\n        /* \"#utility.yul\":1418:1453   */\n      eq\n        /* \"#utility.yul\":1408:1471   */\n      tag_145\n      jumpi\n        /* \"#utility.yul\":1467:1468   */\n      0x00\n        /* \"#utility.yul\":1464:1465   */\n      dup1\n        /* \"#utility.yul\":1457:1469   */\n      revert\n        /* \"#utility.yul\":1408:1471   */\n    tag_145:\n        /* \"#utility.yul\":1355:1477   */\n      pop\n      jump\t// out\n        /* \"#utility.yul\":1483:1622   */\n    tag_107:\n        /* \"#utility.yul\":1529:1534   */\n      0x00\n        /* \"#utility.yul\":1567:1573   */\n      dup2\n        /* \"#utility.yul\":1554:1574   */\n      calldataload\n        /* \"#utility.yul\":1545:1574   */\n      swap1\n      pop\n        /* \"#utility.yul\":1583:1616   */\n      tag_147\n        /* \"#utility.yul\":1610:1615   */\n      dup2\n        /* \"#utility.yul\":1583:1616   */\n      tag_106\n      jump\t// in\n    tag_147:\n        /* \"#utility.yul\":1483:1622   */\n      swap3\n      swap2\n      pop\n      pop\n      jump\t// out\n        /* \"#utility.yul\":1628:1957   */\n    tag_26:\n        /* \"#utility.yul\":1687:1693   */\n      0x00\n        /* \"#utility.yul\":1736:1738   */\n      0x20\n        /* \"#utility.yul\":1724:1733   */\n      dup3\n        /* \"#utility.yul\":1715:1722   */\n      dup5\n        /* \"#utility.yul\":1711:1734   */\n      sub\n        /* \"#utility.yul\":1707:1739   */\n      slt\n        /* \"#utility.yul\":1704:1823   */\n      iszero\n      tag_149\n      jumpi\n        /* \"#utility.yul\":1742:1821   */\n      tag_150\n      tag_104\n      jump\t// in\n    tag_150:\n        /* \"#utility.yul\":1704:1823   */\n    tag_149:\n        /* \"#utility.yul\":1862:1863   */\n      0x00\n        /* \"#utility.yul\":1887:1940   */\n      tag_151\n        /* \"#utility.yul\":1932:1939   */\n      dup5\n        /* \"#utility.yul\":1923:1929   */\n      dup3\n        /* \"#utility.yul\":1912:1921   */\n      dup6\n        /* \"#utility.yul\":1908:1930   */\n      add\n        /* \"#utility.yul\":1887:1940   */\n      tag_107\n      jump\t// in\n    tag_151:\n        /* \"#utility.yul\":1877:1940   */\n      swap2\n      pop\n        /* \"#utility.yul\":1833:1950   */\n      pop\n        /* \"#utility.yul\":1628:1957   */\n      swap3\n      swap2\n      pop\n      pop\n      jump\t// out\n        /* \"#utility.yul\":1963:2085   */\n    tag_108:\n        /* \"#utility.yul\":2036:2060   */\n      tag_153\n        /* \"#utility.yul\":2054:2059   */\n      dup2\n        /* \"#utility.yul\":2036:2060   */\n      tag_101\n      jump\t// in\n    tag_153:\n        /* \"#utility.yul\":2029:2034   */\n      dup2\n        /* \"#utility.yul\":2026:2061   */\n      eq\n        /* \"#utility.yul\":2016:2079   */\n      tag_154\n      jumpi\n        /* \"#utility.yul\":2075:2076   */\n      0x00\n        /* \"#utility.yul\":2072:2073   */\n      dup1\n        /* \"#utility.yul\":2065:2077   */\n      revert\n        /* \"#utility.yul\":2016:2079   */\n    tag_154:\n        /* \"#utility.yul\":1963:2085   */\n      pop\n      jump\t// out\n        /* \"#utility.yul\":2091:2230   */\n    tag_109:\n        /* \"#utility.yul\":2137:2142   */\n      0x00\n        /* \"#utility.yul\":2175:2181   */\n      dup2\n        /* \"#utility.yul\":2162:2182   */\n      calldataload\n        /* \"#utility.yul\":2153:2182   */\n      swap1\n      pop\n        /* \"#utility.yul\":2191:2224   */\n      tag_156\n        /* \"#utility.yul\":2218:2223   */\n      dup2\n        /* \"#utility.yul\":2191:2224   */\n      tag_108\n      jump\t// in\n    tag_156:\n        /* \"#utility.yul\":2091:2230   */\n      swap3\n      swap2\n      pop\n      pop\n      jump\t// out\n        /* \"#utility.yul\":2236:2565   */\n    tag_38:\n        /* \"#utility.yul\":2295:2301   */\n      0x00\n        /* \"#utility.yul\":2344:2346   */\n      0x20\n        /* \"#utility.yul\":2332:2341   */\n      dup3\n        /* \"#utility.yul\":2323:2330   */\n      dup5\n        /* \"#utility.yul\":2319:2342   */\n      sub\n        /* \"#utility.yul\":2315:2347   */\n      slt\n        /* \"#utility.yul\":2312:2431   */\n      iszero\n      tag_158\n      jumpi\n        /* \"#utility.yul\":2350:2429   */\n      tag_159\n      tag_104\n      jump\t// in\n    tag_159:\n        /* \"#utility.yul\":2312:2431   */\n    tag_158:\n        /* \"#utility.yul\":2470:2471   */\n      0x00\n        /* \"#utility.yul\":2495:2548   */\n      tag_160\n        /* \"#utility.yul\":2540:2547   */\n      dup5\n        /* \"#utility.yul\":2531:2537   */\n      dup3\n        /* \"#utility.yul\":2520:2529   */\n      dup6\n        /* \"#utility.yul\":2516:2538   */\n      add\n        /* \"#utility.yul\":2495:2548   */\n      tag_109\n      jump\t// in\n    tag_160:\n        /* \"#utility.yul\":2485:2548   */\n      swap2\n      pop\n        /* \"#utility.yul\":2441:2558   */\n      pop\n        /* \"#utility.yul\":2236:2565   */\n      swap3\n      swap2\n      pop\n      pop\n      jump\t// out\n        /* \"#utility.yul\":2571:2751   */\n    tag_50:\n        /* \"#utility.yul\":2619:2696   */\n      0x4e487b7100000000000000000000000000000000000000000000000000000000\n        /* \"#utility.yul\":2616:2617   */\n      0x00\n        /* \"#utility.yul\":2609:2697   */\n      mstore\n        /* \"#utility.yul\":2716:2720   */\n      0x32\n        /* \"#utility.yul\":2713:2714   */\n      0x04\n        /* \"#utility.yul\":2706:2721   */\n      mstore\n        /* \"#utility.yul\":2740:2744   */\n      0x24\n        /* \"#utility.yul\":2737:2738   */\n      0x00\n        /* \"#utility.yul\":2730:2745   */\n      revert\n        /* \"#utility.yul\":2757:2937   */\n    tag_54:\n        /* \"#utility.yul\":2805:2882   */\n      0x4e487b7100000000000000000000000000000000000000000000000000000000\n        /* \"#utility.yul\":2802:2803   */\n      0x00\n        /* \"#utility.yul\":2795:2883   */\n      mstore\n        /* \"#utility.yul\":2902:2906   */\n      0x41\n        /* \"#utility.yul\":2899:2900   */\n      0x04\n        /* \"#utility.yul\":2892:2907   */\n      mstore\n        /* \"#utility.yul\":2926:2930   */\n      0x24\n        /* \"#utility.yul\":2923:2924   */\n      0x00\n        /* \"#utility.yul\":2916:2931   */\n      revert\n        /* \"#utility.yul\":2943:3090   */\n    tag_110:\n        /* \"#utility.yul\":3044:3055   */\n      0x00\n        /* \"#utility.yul\":3081:3084   */\n      dup2\n        /* \"#utility.yul\":3066:3084   */\n      swap1\n      pop\n        /* \"#utility.yul\":2943:3090   */\n      swap3\n      swap2\n      pop\n      pop\n      jump\t// out\n        /* \"#utility.yul\":3096:3210   */\n    tag_111:\n      pop\n      jump\t// out\n        /* \"#utility.yul\":3216:3614   */\n    tag_112:\n        /* \"#utility.yul\":3375:3378   */\n      0x00\n        /* \"#utility.yul\":3396:3479   */\n      tag_166\n        /* \"#utility.yul\":3477:3478   */\n      0x00\n        /* \"#utility.yul\":3472:3475   */\n      dup4\n        /* \"#utility.yul\":3396:3479   */\n      tag_110\n      jump\t// in\n    tag_166:\n        /* \"#utility.yul\":3389:3479   */\n      swap2\n      pop\n        /* \"#utility.yul\":3488:3581   */\n      tag_167\n        /* \"#utility.yul\":3577:3580   */\n      dup3\n        /* \"#utility.yul\":3488:3581   */\n      tag_111\n      jump\t// in\n    tag_167:\n        /* \"#utility.yul\":3606:3607   */\n      0x00\n        /* \"#utility.yul\":3601:3604   */\n      dup3\n        /* \"#utility.yul\":3597:3608   */\n      add\n        /* \"#utility.yul\":3590:3608   */\n      swap1\n      pop\n        /* \"#utility.yul\":3216:3614   */\n      swap2\n      swap1\n      pop\n      jump\t// out\n        /* \"#utility.yul\":3620:3999   */\n    tag_59:\n        /* \"#utility.yul\":3804:3807   */\n      0x00\n        /* \"#utility.yul\":3826:3973   */\n      tag_169\n        /* \"#utility.yul\":3969:3972   */\n      dup3\n        /* \"#utility.yul\":3826:3973   */\n      tag_112\n      jump\t// in\n    tag_169:\n        /* \"#utility.yul\":3819:3973   */\n      swap2\n      pop\n        /* \"#utility.yul\":3990:3993   */\n      dup2\n        /* \"#utility.yul\":3983:3993   */\n      swap1\n      pop\n        /* \"#utility.yul\":3620:3999   */\n      swap2\n      swap1\n      pop\n      jump\t// out\n        /* \"#utility.yul\":4005:4174   */\n    tag_113:\n        /* \"#utility.yul\":4089:4100   */\n      0x00\n        /* \"#utility.yul\":4123:4129   */\n      dup3\n        /* \"#utility.yul\":4118:4121   */\n      dup3\n        /* \"#utility.yul\":4111:4130   */\n      mstore\n        /* \"#utility.yul\":4163:4167   */\n      0x20\n        /* \"#utility.yul\":4158:4161   */\n      dup3\n        /* \"#utility.yul\":4154:4168   */\n      add\n        /* \"#utility.yul\":4139:4168   */\n      swap1\n      pop\n        /* \"#utility.yul\":4005:4174   */\n      swap3\n      swap2\n      pop\n      pop\n      jump\t// out\n        /* \"#utility.yul\":4180:4341   */\n    tag_114:\n        /* \"#utility.yul\":4320:4333   */\n      0x43616c6c204661696c6564000000000000000000000000000000000000000000\n        /* \"#utility.yul\":4316:4317   */\n      0x00\n        /* \"#utility.yul\":4308:4314   */\n      dup3\n        /* \"#utility.yul\":4304:4318   */\n      add\n        /* \"#utility.yul\":4297:4334   */\n      mstore\n        /* \"#utility.yul\":4180:4341   */\n      pop\n      jump\t// out\n        /* \"#utility.yul\":4347:4713   */\n    tag_115:\n        /* \"#utility.yul\":4489:4492   */\n      0x00\n        /* \"#utility.yul\":4510:4577   */\n      tag_173\n        /* \"#utility.yul\":4574:4576   */\n      0x0b\n        /* \"#utility.yul\":4569:4572   */\n      dup4\n        /* \"#utility.yul\":4510:4577   */\n      tag_113\n      jump\t// in\n    tag_173:\n        /* \"#utility.yul\":4503:4577   */\n      swap2\n      pop\n        /* \"#utility.yul\":4586:4679   */\n      tag_174\n        /* \"#utility.yul\":4675:4678   */\n      dup3\n        /* \"#utility.yul\":4586:4679   */\n      tag_114\n      jump\t// in\n    tag_174:\n        /* \"#utility.yul\":4704:4706   */\n      0x20\n        /* \"#utility.yul\":4699:4702   */\n      dup3\n        /* \"#utility.yul\":4695:4707   */\n      add\n        /* \"#utility.yul\":4688:4707   */\n      swap1\n      pop\n        /* \"#utility.yul\":4347:4713   */\n      swap2\n      swap1\n      pop\n      jump\t// out\n        /* \"#utility.yul\":4719:5138   */\n    tag_65:\n        /* \"#utility.yul\":4885:4889   */\n      0x00\n        /* \"#utility.yul\":4923:4925   */\n      0x20\n        /* \"#utility.yul\":4912:4921   */\n      dup3\n        /* \"#utility.yul\":4908:4926   */\n      add\n        /* \"#utility.yul\":4900:4926   */\n      swap1\n      pop\n        /* \"#utility.yul\":4972:4981   */\n      dup2\n        /* \"#utility.yul\":4966:4970   */\n      dup2\n        /* \"#utility.yul\":4962:4982   */\n      sub\n        /* \"#utility.yul\":4958:4959   */\n      0x00\n        /* \"#utility.yul\":4947:4956   */\n      dup4\n        /* \"#utility.yul\":4943:4960   */\n      add\n        /* \"#utility.yul\":4936:4983   */\n      mstore\n        /* \"#utility.yul\":5000:5131   */\n      tag_176\n        /* \"#utility.yul\":5126:5130   */\n      dup2\n        /* \"#utility.yul\":5000:5131   */\n      tag_115\n      jump\t// in\n    tag_176:\n        /* \"#utility.yul\":4992:5131   */\n      swap1\n      pop\n        /* \"#utility.yul\":4719:5138   */\n      swap2\n      swap1\n      pop\n      jump\t// out\n        /* \"#utility.yul\":5144:5310   */\n    tag_116:\n        /* \"#utility.yul\":5284:5302   */\n      0x4e6f7420656e6f756768206d6f6e657900000000000000000000000000000000\n        /* \"#utility.yul\":5280:5281   */\n      0x00\n        /* \"#utility.yul\":5272:5278   */\n      dup3\n        /* \"#utility.yul\":5268:5282   */\n      add\n        /* \"#utility.yul\":5261:5303   */\n      mstore\n        /* \"#utility.yul\":5144:5310   */\n      pop\n      jump\t// out\n        /* \"#utility.yul\":5316:5682   */\n    tag_117:\n        /* \"#utility.yul\":5458:5461   */\n      0x00\n        /* \"#utility.yul\":5479:5546   */\n      tag_179\n        /* \"#utility.yul\":5543:5545   */\n      0x10\n        /* \"#utility.yul\":5538:5541   */\n      dup4\n        /* \"#utility.yul\":5479:5546   */\n      tag_113\n      jump\t// in\n    tag_179:\n        /* \"#utility.yul\":5472:5546   */\n      swap2\n      pop\n        /* \"#utility.yul\":5555:5648   */\n      tag_180\n        /* \"#utility.yul\":5644:5647   */\n      dup3\n        /* \"#utility.yul\":5555:5648   */\n      tag_116\n      jump\t// in\n    tag_180:\n        /* \"#utility.yul\":5673:5675   */\n      0x20\n        /* \"#utility.yul\":5668:5671   */\n      dup3\n        /* \"#utility.yul\":5664:5676   */\n      add\n        /* \"#utility.yul\":5657:5676   */\n      swap1\n      pop\n        /* \"#utility.yul\":5316:5682   */\n      swap2\n      swap1\n      pop\n      jump\t// out\n        /* \"#utility.yul\":5688:6107   */\n    tag_71:\n        /* \"#utility.yul\":5854:5858   */\n      0x00\n        /* \"#utility.yul\":5892:5894   */\n      0x20\n        /* \"#utility.yul\":5881:5890   */\n      dup3\n        /* \"#utility.yul\":5877:5895   */\n      add\n        /* \"#utility.yul\":5869:5895   */\n      swap1\n      pop\n        /* \"#utility.yul\":5941:5950   */\n      dup2\n        /* \"#utility.yul\":5935:5939   */\n      dup2\n        /* \"#utility.yul\":5931:5951   */\n      sub\n        /* \"#utility.yul\":5927:5928   */\n      0x00\n        /* \"#utility.yul\":5916:5925   */\n      dup4\n        /* \"#utility.yul\":5912:5929   */\n      add\n        /* \"#utility.yul\":5905:5952   */\n      mstore\n        /* \"#utility.yul\":5969:6100   */\n      tag_182\n        /* \"#utility.yul\":6095:6099   */\n      dup2\n        /* \"#utility.yul\":5969:6100   */\n      tag_117\n      jump\t// in\n    tag_182:\n        /* \"#utility.yul\":5961:6100   */\n      swap1\n      pop\n        /* \"#utility.yul\":5688:6107   */\n      swap2\n      swap1\n      pop\n      jump\t// out\n        /* \"#utility.yul\":6113:6293   */\n    tag_118:\n        /* \"#utility.yul\":6161:6238   */\n      0x4e487b7100000000000000000000000000000000000000000000000000000000\n        /* \"#utility.yul\":6158:6159   */\n      0x00\n        /* \"#utility.yul\":6151:6239   */\n      mstore\n        /* \"#utility.yul\":6258:6262   */\n      0x11\n        /* \"#utility.yul\":6255:6256   */\n      0x04\n        /* \"#utility.yul\":6248:6263   */\n      mstore\n        /* \"#utility.yul\":6282:6286   */\n      0x24\n        /* \"#utility.yul\":6279:6280   */\n      0x00\n        /* \"#utility.yul\":6272:6287   */\n      revert\n        /* \"#utility.yul\":6299:6490   */\n    tag_74:\n        /* \"#utility.yul\":6339:6342   */\n      0x00\n        /* \"#utility.yul\":6358:6378   */\n      tag_185\n        /* \"#utility.yul\":6376:6377   */\n      dup3\n        /* \"#utility.yul\":6358:6378   */\n      tag_101\n      jump\t// in\n    tag_185:\n        /* \"#utility.yul\":6353:6378   */\n      swap2\n      pop\n        /* \"#utility.yul\":6392:6412   */\n      tag_186\n        /* \"#utility.yul\":6410:6411   */\n      dup4\n        /* \"#utility.yul\":6392:6412   */\n      tag_101\n      jump\t// in\n    tag_186:\n        /* \"#utility.yul\":6387:6412   */\n      swap3\n      pop\n        /* \"#utility.yul\":6435:6436   */\n      dup3\n        /* \"#utility.yul\":6432:6433   */\n      dup3\n        /* \"#utility.yul\":6428:6437   */\n      add\n        /* \"#utility.yul\":6421:6437   */\n      swap1\n      pop\n        /* \"#utility.yul\":6456:6459   */\n      dup1\n        /* \"#utility.yul\":6453:6454   */\n      dup3\n        /* \"#utility.yul\":6450:6460   */\n      gt\n        /* \"#utility.yul\":6447:6483   */\n      iszero\n      tag_187\n      jumpi\n        /* \"#utility.yul\":6463:6481   */\n      tag_188\n      tag_118\n      jump\t// in\n    tag_188:\n        /* \"#utility.yul\":6447:6483   */\n    tag_187:\n        /* \"#utility.yul\":6299:6490   */\n      swap3\n      swap2\n      pop\n      pop\n      jump\t// out\n        /* \"#utility.yul\":6496:6906   */\n    tag_81:\n        /* \"#utility.yul\":6536:6543   */\n      0x00\n        /* \"#utility.yul\":6559:6579   */\n      tag_190\n        /* \"#utility.yul\":6577:6578   */\n      dup3\n        /* \"#utility.yul\":6559:6579   */\n      tag_101\n      jump\t// in\n    tag_190:\n        /* \"#utility.yul\":6554:6579   */\n      swap2\n      pop\n        /* \"#utility.yul\":6593:6613   */\n      tag_191\n        /* \"#utility.yul\":6611:6612   */\n      dup4\n        /* \"#utility.yul\":6593:6613   */\n      tag_101\n      jump\t// in\n    tag_191:\n        /* \"#utility.yul\":6588:6613   */\n      swap3\n      pop\n        /* \"#utility.yul\":6648:6649   */\n      dup3\n        /* \"#utility.yul\":6645:6646   */\n      dup3\n        /* \"#utility.yul\":6641:6650   */\n      mul\n        /* \"#utility.yul\":6670:6700   */\n      tag_192\n        /* \"#utility.yul\":6688:6699   */\n      dup2\n        /* \"#utility.yul\":6670:6700   */\n      tag_101\n      jump\t// in\n    tag_192:\n        /* \"#utility.yul\":6659:6700   */\n      swap2\n      pop\n        /* \"#utility.yul\":6849:6850   */\n      dup3\n        /* \"#utility.yul\":6840:6847   */\n      dup3\n        /* \"#utility.yul\":6836:6851   */\n      div\n        /* \"#utility.yul\":6833:6834   */\n      dup5\n        /* \"#utility.yul\":6830:6852   */\n      eq\n        /* \"#utility.yul\":6810:6811   */\n      dup4\n        /* \"#utility.yul\":6803:6812   */\n      iszero\n        /* \"#utility.yul\":6783:6866   */\n      or\n        /* \"#utility.yul\":6760:6899   */\n      tag_193\n      jumpi\n        /* \"#utility.yul\":6879:6897   */\n      tag_194\n      tag_118\n      jump\t// in\n    tag_194:\n        /* \"#utility.yul\":6760:6899   */\n    tag_193:\n        /* \"#utility.yul\":6544:6906   */\n      pop\n        /* \"#utility.yul\":6496:6906   */\n      swap3\n      swap2\n      pop\n      pop\n      jump\t// out\n        /* \"#utility.yul\":6912:7092   */\n    tag_119:\n        /* \"#utility.yul\":6960:7037   */\n      0x4e487b7100000000000000000000000000000000000000000000000000000000\n        /* \"#utility.yul\":6957:6958   */\n      0x00\n        /* \"#utility.yul\":6950:7038   */\n      mstore\n        /* \"#utility.yul\":7057:7061   */\n      0x12\n        /* \"#utility.yul\":7054:7055   */\n      0x04\n        /* \"#utility.yul\":7047:7062   */\n      mstore\n        /* \"#utility.yul\":7081:7085   */\n      0x24\n        /* \"#utility.yul\":7078:7079   */\n      0x00\n        /* \"#utility.yul\":7071:7086   */\n      revert\n        /* \"#utility.yul\":7098:7283   */\n    tag_83:\n        /* \"#utility.yul\":7138:7139   */\n      0x00\n        /* \"#utility.yul\":7155:7175   */\n      tag_197\n        /* \"#utility.yul\":7173:7174   */\n      dup3\n        /* \"#utility.yul\":7155:7175   */\n      tag_101\n      jump\t// in\n    tag_197:\n        /* \"#utility.yul\":7150:7175   */\n      swap2\n      pop\n        /* \"#utility.yul\":7189:7209   */\n      tag_198\n        /* \"#utility.yul\":7207:7208   */\n      dup4\n        /* \"#utility.yul\":7189:7209   */\n      tag_101\n      jump\t// in\n    tag_198:\n        /* \"#utility.yul\":7184:7209   */\n      swap3\n      pop\n        /* \"#utility.yul\":7228:7229   */\n      dup3\n        /* \"#utility.yul\":7218:7253   */\n      tag_199\n      jumpi\n        /* \"#utility.yul\":7233:7251   */\n      tag_200\n      tag_119\n      jump\t// in\n    tag_200:\n        /* \"#utility.yul\":7218:7253   */\n    tag_199:\n        /* \"#utility.yul\":7275:7276   */\n      dup3\n        /* \"#utility.yul\":7272:7273   */\n      dup3\n        /* \"#utility.yul\":7268:7277   */\n      div\n        /* \"#utility.yul\":7263:7277   */\n      swap1\n      pop\n        /* \"#utility.yul\":7098:7283   */\n      swap3\n      swap2\n      pop\n      pop\n      jump\t// out\n        /* \"#utility.yul\":7289:7394   */\n    tag_120:\n        /* \"#utility.yul\":7325:7332   */\n      0x00\n        /* \"#utility.yul\":7365:7387   */\n      0xffffffffffffffffffff\n        /* \"#utility.yul\":7358:7363   */\n      dup3\n        /* \"#utility.yul\":7354:7388   */\n      and\n        /* \"#utility.yul\":7343:7388   */\n      swap1\n      pop\n        /* \"#utility.yul\":7289:7394   */\n      swap2\n      swap1\n      pop\n      jump\t// out\n        /* \"#utility.yul\":7400:7520   */\n    tag_121:\n        /* \"#utility.yul\":7472:7495   */\n      tag_203\n        /* \"#utility.yul\":7489:7494   */\n      dup2\n        /* \"#utility.yul\":7472:7495   */\n      tag_120\n      jump\t// in\n    tag_203:\n        /* \"#utility.yul\":7465:7470   */\n      dup2\n        /* \"#utility.yul\":7462:7496   */\n      eq\n        /* \"#utility.yul\":7452:7514   */\n      tag_204\n      jumpi\n        /* \"#utility.yul\":7510:7511   */\n      0x00\n        /* \"#utility.yul\":7507:7508   */\n      dup1\n        /* \"#utility.yul\":7500:7512   */\n      revert\n        /* \"#utility.yul\":7452:7514   */\n    tag_204:\n        /* \"#utility.yul\":7400:7520   */\n      pop\n      jump\t// out\n        /* \"#utility.yul\":7526:7667   */\n    tag_122:\n        /* \"#utility.yul\":7582:7587   */\n      0x00\n        /* \"#utility.yul\":7613:7619   */\n      dup2\n        /* \"#utility.yul\":7607:7620   */\n      mload\n        /* \"#utility.yul\":7598:7620   */\n      swap1\n      pop\n        /* \"#utility.yul\":7629:7661   */\n      tag_206\n        /* \"#utility.yul\":7655:7660   */\n      dup2\n        /* \"#utility.yul\":7629:7661   */\n      tag_121\n      jump\t// in\n    tag_206:\n        /* \"#utility.yul\":7526:7667   */\n      swap3\n      swap2\n      pop\n      pop\n      jump\t// out\n        /* \"#utility.yul\":7673:7749   */\n    tag_123:\n        /* \"#utility.yul\":7709:7716   */\n      0x00\n        /* \"#utility.yul\":7738:7743   */\n      dup2\n        /* \"#utility.yul\":7727:7743   */\n      swap1\n      pop\n        /* \"#utility.yul\":7673:7749   */\n      swap2\n      swap1\n      pop\n      jump\t// out\n        /* \"#utility.yul\":7755:7875   */\n    tag_124:\n        /* \"#utility.yul\":7827:7850   */\n      tag_209\n        /* \"#utility.yul\":7844:7849   */\n      dup2\n        /* \"#utility.yul\":7827:7850   */\n      tag_123\n      jump\t// in\n    tag_209:\n        /* \"#utility.yul\":7820:7825   */\n      dup2\n        /* \"#utility.yul\":7817:7851   */\n      eq\n        /* \"#utility.yul\":7807:7869   */\n      tag_210\n      jumpi\n        /* \"#utility.yul\":7865:7866   */\n      0x00\n        /* \"#utility.yul\":7862:7863   */\n      dup1\n        /* \"#utility.yul\":7855:7867   */\n      revert\n        /* \"#utility.yul\":7807:7869   */\n    tag_210:\n        /* \"#utility.yul\":7755:7875   */\n      pop\n      jump\t// out\n        /* \"#utility.yul\":7881:8022   */\n    tag_125:\n        /* \"#utility.yul\":7937:7942   */\n      0x00\n        /* \"#utility.yul\":7968:7974   */\n      dup2\n        /* \"#utility.yul\":7962:7975   */\n      mload\n        /* \"#utility.yul\":7953:7975   */\n      swap1\n      pop\n        /* \"#utility.yul\":7984:8016   */\n      tag_212\n        /* \"#utility.yul\":8010:8015   */\n      dup2\n        /* \"#utility.yul\":7984:8016   */\n      tag_124\n      jump\t// in\n    tag_212:\n        /* \"#utility.yul\":7881:8022   */\n      swap3\n      swap2\n      pop\n      pop\n      jump\t// out\n        /* \"#utility.yul\":8028:8171   */\n    tag_126:\n        /* \"#utility.yul\":8085:8090   */\n      0x00\n        /* \"#utility.yul\":8116:8122   */\n      dup2\n        /* \"#utility.yul\":8110:8123   */\n      mload\n        /* \"#utility.yul\":8101:8123   */\n      swap1\n      pop\n        /* \"#utility.yul\":8132:8165   */\n      tag_214\n        /* \"#utility.yul\":8159:8164   */\n      dup2\n        /* \"#utility.yul\":8132:8165   */\n      tag_108\n      jump\t// in\n    tag_214:\n        /* \"#utility.yul\":8028:8171   */\n      swap3\n      swap2\n      pop\n      pop\n      jump\t// out\n        /* \"#utility.yul\":8177:9148   */\n    tag_88:\n        /* \"#utility.yul\":8280:8286   */\n      0x00\n        /* \"#utility.yul\":8288:8294   */\n      dup1\n        /* \"#utility.yul\":8296:8302   */\n      0x00\n        /* \"#utility.yul\":8304:8310   */\n      dup1\n        /* \"#utility.yul\":8312:8318   */\n      0x00\n        /* \"#utility.yul\":8361:8364   */\n      0xa0\n        /* \"#utility.yul\":8349:8358   */\n      dup7\n        /* \"#utility.yul\":8340:8347   */\n      dup9\n        /* \"#utility.yul\":8336:8359   */\n      sub\n        /* \"#utility.yul\":8332:8365   */\n      slt\n        /* \"#utility.yul\":8329:8449   */\n      iszero\n      tag_216\n      jumpi\n        /* \"#utility.yul\":8368:8447   */\n      tag_217\n      tag_104\n      jump\t// in\n    tag_217:\n        /* \"#utility.yul\":8329:8449   */\n    tag_216:\n        /* \"#utility.yul\":8488:8489   */\n      0x00\n        /* \"#utility.yul\":8513:8576   */\n      tag_218\n        /* \"#utility.yul\":8568:8575   */\n      dup9\n        /* \"#utility.yul\":8559:8565   */\n      dup3\n        /* \"#utility.yul\":8548:8557   */\n      dup10\n        /* \"#utility.yul\":8544:8566   */\n      add\n        /* \"#utility.yul\":8513:8576   */\n      tag_122\n      jump\t// in\n    tag_218:\n        /* \"#utility.yul\":8503:8576   */\n      swap6\n      pop\n        /* \"#utility.yul\":8459:8586   */\n      pop\n        /* \"#utility.yul\":8625:8627   */\n      0x20\n        /* \"#utility.yul\":8651:8714   */\n      tag_219\n        /* \"#utility.yul\":8706:8713   */\n      dup9\n        /* \"#utility.yul\":8697:8703   */\n      dup3\n        /* \"#utility.yul\":8686:8695   */\n      dup10\n        /* \"#utility.yul\":8682:8704   */\n      add\n        /* \"#utility.yul\":8651:8714   */\n      tag_125\n      jump\t// in\n    tag_219:\n        /* \"#utility.yul\":8641:8714   */\n      swap5\n      pop\n        /* \"#utility.yul\":8596:8724   */\n      pop\n        /* \"#utility.yul\":8763:8765   */\n      0x40\n        /* \"#utility.yul\":8789:8853   */\n      tag_220\n        /* \"#utility.yul\":8845:8852   */\n      dup9\n        /* \"#utility.yul\":8836:8842   */\n      dup3\n        /* \"#utility.yul\":8825:8834   */\n      dup10\n        /* \"#utility.yul\":8821:8843   */\n      add\n        /* \"#utility.yul\":8789:8853   */\n      tag_126\n      jump\t// in\n    tag_220:\n        /* \"#utility.yul\":8779:8853   */\n      swap4\n      pop\n        /* \"#utility.yul\":8734:8863   */\n      pop\n        /* \"#utility.yul\":8902:8904   */\n      0x60\n        /* \"#utility.yul\":8928:8992   */\n      tag_221\n        /* \"#utility.yul\":8984:8991   */\n      dup9\n        /* \"#utility.yul\":8975:8981   */\n      dup3\n        /* \"#utility.yul\":8964:8973   */\n      dup10\n        /* \"#utility.yul\":8960:8982   */\n      add\n        /* \"#utility.yul\":8928:8992   */\n      tag_126\n      jump\t// in\n    tag_221:\n        /* \"#utility.yul\":8918:8992   */\n      swap3\n      pop\n        /* \"#utility.yul\":8873:9002   */\n      pop\n        /* \"#utility.yul\":9041:9044   */\n      0x80\n        /* \"#utility.yul\":9068:9131   */\n      tag_222\n        /* \"#utility.yul\":9123:9130   */\n      dup9\n        /* \"#utility.yul\":9114:9120   */\n      dup3\n        /* \"#utility.yul\":9103:9112   */\n      dup10\n        /* \"#utility.yul\":9099:9121   */\n      add\n        /* \"#utility.yul\":9068:9131   */\n      tag_122\n      jump\t// in\n    tag_222:\n        /* \"#utility.yul\":9058:9131   */\n      swap2\n      pop\n        /* \"#utility.yul\":9012:9141   */\n      pop\n        /* \"#utility.yul\":8177:9148   */\n      swap3\n      swap6\n      pop\n      swap3\n      swap6\n      swap1\n      swap4\n      pop\n      jump\t// out\n        /* \"#utility.yul\":9154:9710   */\n    tag_90:\n        /* \"#utility.yul\":9193:9200   */\n      0x00\n        /* \"#utility.yul\":9216:9235   */\n      tag_224\n        /* \"#utility.yul\":9233:9234   */\n      dup3\n        /* \"#utility.yul\":9216:9235   */\n      tag_123\n      jump\t// in\n    tag_224:\n        /* \"#utility.yul\":9211:9235   */\n      swap2\n      pop\n        /* \"#utility.yul\":9249:9268   */\n      tag_225\n        /* \"#utility.yul\":9266:9267   */\n      dup4\n        /* \"#utility.yul\":9249:9268   */\n      tag_123\n      jump\t// in\n    tag_225:\n        /* \"#utility.yul\":9244:9268   */\n      swap3\n      pop\n        /* \"#utility.yul\":9303:9304   */\n      dup3\n        /* \"#utility.yul\":9300:9301   */\n      dup3\n        /* \"#utility.yul\":9296:9305   */\n      mul\n        /* \"#utility.yul\":9325:9354   */\n      tag_226\n        /* \"#utility.yul\":9342:9353   */\n      dup2\n        /* \"#utility.yul\":9325:9354   */\n      tag_123\n      jump\t// in\n    tag_226:\n        /* \"#utility.yul\":9314:9354   */\n      swap2\n      pop\n        /* \"#utility.yul\":9412:9478   */\n      0x8000000000000000000000000000000000000000000000000000000000000000\n        /* \"#utility.yul\":9409:9410   */\n      dup5\n        /* \"#utility.yul\":9406:9479   */\n      eq\n        /* \"#utility.yul\":9402:9403   */\n      0x00\n        /* \"#utility.yul\":9399:9400   */\n      dup5\n        /* \"#utility.yul\":9395:9404   */\n      slt\n        /* \"#utility.yul\":9391:9480   */\n      and\n        /* \"#utility.yul\":9388:9503   */\n      iszero\n      tag_227\n      jumpi\n        /* \"#utility.yul\":9483:9501   */\n      tag_228\n      tag_118\n      jump\t// in\n    tag_228:\n        /* \"#utility.yul\":9388:9503   */\n    tag_227:\n        /* \"#utility.yul\":9653:9654   */\n      dup3\n        /* \"#utility.yul\":9644:9651   */\n      dup3\n        /* \"#utility.yul\":9639:9655   */\n      sdiv\n        /* \"#utility.yul\":9636:9637   */\n      dup5\n        /* \"#utility.yul\":9633:9656   */\n      eq\n        /* \"#utility.yul\":9613:9614   */\n      dup4\n        /* \"#utility.yul\":9606:9615   */\n      iszero\n        /* \"#utility.yul\":9586:9670   */\n      or\n        /* \"#utility.yul\":9563:9703   */\n      tag_229\n      jumpi\n        /* \"#utility.yul\":9683:9701   */\n      tag_230\n      tag_118\n      jump\t// in\n    tag_230:\n        /* \"#utility.yul\":9563:9703   */\n    tag_229:\n        /* \"#utility.yul\":9201:9710   */\n      pop\n        /* \"#utility.yul\":9154:9710   */\n      swap3\n      swap2\n      pop\n      pop\n      jump\t// out\n\n    auxdata: 0xa264697066735822122055e07bd282be6d0ecf15964a13e6c853d42d2834bf731e37299aae81d51d411a64736f6c63430008190033\n}\n",
				"bytecode": {
					"linkReferences": {},
					"object": "60a0604052348015600e575f80fd5b503373ffffffffffffffffffffffffffffffffffffffff1660808173ffffffffffffffffffffffffffffffffffffffff1681525050608051610c196100625f395f818161019201526104e50152610c195ff3fe60806040526004361061006f575f3560e01c8063af5e73a41161004d578063af5e73a4146100dd578063b60d428814610119578063dba6335f14610123578063dc0d3dff1461014d5761006f565b806338cc4831146100735780633ccfd60b1461009d5780636b69a592146100b3575b5f80fd5b34801561007e575f80fd5b50610087610189565b60405161009491906106ff565b60405180910390f35b3480156100a8575f80fd5b506100b1610190565b005b3480156100be575f80fd5b506100c76103bb565b6040516100d49190610730565b60405180910390f35b3480156100e8575f80fd5b5061010360048036038101906100fe9190610777565b6103c7565b6040516101109190610730565b60405180910390f35b6101216103dc565b005b34801561012e575f80fd5b506101376104e3565b60405161014491906106ff565b60405180910390f35b348015610158575f80fd5b50610173600480360381019061016e91906107cc565b610507565b60405161018091906106ff565b60405180910390f35b5f30905090565b7f000000000000000000000000000000000000000000000000000000000000000073ffffffffffffffffffffffffffffffffffffffff163373ffffffffffffffffffffffffffffffffffffffff1614610215576040517f30cd747100000000000000000000000000000000000000000000000000000000815260040160405180910390fd5b5f5b5f805490508110156102b1575f808281548110610237576102366107f7565b5b905f5260205f20015f9054906101000a900473ffffffffffffffffffffffffffffffffffffffff1690505f60015f8373ffffffffffffffffffffffffffffffffffffffff1673ffffffffffffffffffffffffffffffffffffffff1681526020019081526020015f2081905550508080600101915050610217565b505f67ffffffffffffffff8111156102cc576102cb610824565b5b6040519080825280602002602001820160405280156102fa5781602001602082028036833780820191505090505b505f908051906020019061030f92919061061e565b505f3373ffffffffffffffffffffffffffffffffffffffff16476040516103359061087e565b5f6040518083038185875af1925050503d805f811461036f576040519150601f19603f3d011682016040523d82523d5f602084013e610374565b606091505b50509050806103b8576040517f08c379a00000000000000000000000000000000000000000000000000000000081526004016103af906108ec565b60405180910390fd5b50565b674563918244f4000081565b6001602052805f5260405f205f915090505481565b674563918244f400006103ee34610541565b101561042f576040517f08c379a000000000000000000000000000000000000000000000000000000000815260040161042690610954565b60405180910390fd5b5f33908060018154018082558091505060019003905f5260205f20015f9091909190916101000a81548173ffffffffffffffffffffffffffffffffffffffff021916908373ffffffffffffffffffffffffffffffffffffffff1602179055503460015f3373ffffffffffffffffffffffffffffffffffffffff1673ffffffffffffffffffffffffffffffffffffffff1681526020019081526020015f205f8282546104da919061099f565b92505081905550565b7f000000000000000000000000000000000000000000000000000000000000000081565b5f8181548110610515575f80fd5b905f5260205f20015f915054906101000a900473ffffffffffffffffffffffffffffffffffffffff1681565b5f8061054b610579565b90505f670de0b6b3a7640000828561056391906109d2565b61056d9190610a40565b90508092505050919050565b5f8073694aa1769357215de4fac081bf1f309adc32530690505f8173ffffffffffffffffffffffffffffffffffffffff1663feaf968c6040518163ffffffff1660e01b815260040160a060405180830381865afa1580156105dc573d5f803e3d5ffd5b505050506040513d601f19601f820116820180604052508101906106009190610af6565b5050509150506402540be400816106179190610b6d565b9250505090565b828054828255905f5260205f20908101928215610694579160200282015b82811115610693578251825f6101000a81548173ffffffffffffffffffffffffffffffffffffffff021916908373ffffffffffffffffffffffffffffffffffffffff1602179055509160200191906001019061063c565b5b5090506106a191906106a5565b5090565b5b808211156106bc575f815f9055506001016106a6565b5090565b5f73ffffffffffffffffffffffffffffffffffffffff82169050919050565b5f6106e9826106c0565b9050919050565b6106f9816106df565b82525050565b5f6020820190506107125f8301846106f0565b92915050565b5f819050919050565b61072a81610718565b82525050565b5f6020820190506107435f830184610721565b92915050565b5f80fd5b610756816106df565b8114610760575f80fd5b50565b5f813590506107718161074d565b92915050565b5f6020828403121561078c5761078b610749565b5b5f61079984828501610763565b91505092915050565b6107ab81610718565b81146107b5575f80fd5b50565b5f813590506107c6816107a2565b92915050565b5f602082840312156107e1576107e0610749565b5b5f6107ee848285016107b8565b91505092915050565b7f4e487b71000000000000000000000000000000000000000000000000000000005f52603260045260245ffd5b7f4e487b71000000000000000000000000000000000000000000000000000000005f52604160045260245ffd5b5f81905092915050565b50565b5f6108695f83610851565b91506108748261085b565b5f82019050919050565b5f6108888261085e565b9150819050919050565b5f82825260208201905092915050565b7f43616c6c204661696c65640000000000000000000000000000000000000000005f82015250565b5f6108d6600b83610892565b91506108e1826108a2565b602082019050919050565b5f6020820190508181035f830152610903816108ca565b9050919050565b7f4e6f7420656e6f756768206d6f6e6579000000000000000000000000000000005f82015250565b5f61093e601083610892565b91506109498261090a565b602082019050919050565b5f6020820190508181035f83015261096b81610932565b9050919050565b7f4e487b71000000000000000000000000000000000000000000000000000000005f52601160045260245ffd5b5f6109a982610718565b91506109b483610718565b92508282019050808211156109cc576109cb610972565b5b92915050565b5f6109dc82610718565b91506109e783610718565b92508282026109f581610718565b91508282048414831517610a0c57610a0b610972565b5b5092915050565b7f4e487b71000000000000000000000000000000000000000000000000000000005f52601260045260245ffd5b5f610a4a82610718565b9150610a5583610718565b925082610a6557610a64610a13565b5b828204905092915050565b5f69ffffffffffffffffffff82169050919050565b610a8e81610a70565b8114610a98575f80fd5b50565b5f81519050610aa981610a85565b92915050565b5f819050919050565b610ac181610aaf565b8114610acb575f80fd5b50565b5f81519050610adc81610ab8565b92915050565b5f81519050610af0816107a2565b92915050565b5f805f805f60a08688031215610b0f57610b0e610749565b5b5f610b1c88828901610a9b565b9550506020610b2d88828901610ace565b9450506040610b3e88828901610ae2565b9350506060610b4f88828901610ae2565b9250506080610b6088828901610a9b565b9150509295509295909350565b5f610b7782610aaf565b9150610b8283610aaf565b9250828202610b9081610aaf565b91507f800000000000000000000000000000000000000000000000000000000000000084145f84121615610bc757610bc6610972565b5b8282058414831517610bdc57610bdb610972565b5b509291505056fea264697066735822122055e07bd282be6d0ecf15964a13e6c853d42d2834bf731e37299aae81d51d411a64736f6c63430008190033",
					"opcodes": "PUSH1 0xA0 PUSH1 0x40 MSTORE CALLVALUE DUP1 ISZERO PUSH1 0xE JUMPI PUSH0 DUP1 REVERT JUMPDEST POP CALLER PUSH20 0xFFFFFFFFFFFFFFFFFFFFFFFFFFFFFFFFFFFFFFFF AND PUSH1 0x80 DUP2 PUSH20 0xFFFFFFFFFFFFFFFFFFFFFFFFFFFFFFFFFFFFFFFF AND DUP2 MSTORE POP POP PUSH1 0x80 MLOAD PUSH2 0xC19 PUSH2 0x62 PUSH0 CODECOPY PUSH0 DUP2 DUP2 PUSH2 0x192 ADD MSTORE PUSH2 0x4E5 ADD MSTORE PUSH2 0xC19 PUSH0 RETURN INVALID PUSH1 0x80 PUSH1 0x40 MSTORE PUSH1 0x4 CALLDATASIZE LT PUSH2 0x6F JUMPI PUSH0 CALLDATALOAD PUSH1 0xE0 SHR DUP1 PUSH4 0xAF5E73A4 GT PUSH2 0x4D JUMPI DUP1 PUSH4 0xAF5E73A4 EQ PUSH2 0xDD JUMPI DUP1 PUSH4 0xB60D4288 EQ PUSH2 0x119 JUMPI DUP1 PUSH4 0xDBA6335F EQ PUSH2 0x123 JUMPI DUP1 PUSH4 0xDC0D3DFF EQ PUSH2 0x14D JUMPI PUSH2 0x6F JUMP JUMPDEST DUP1 PUSH4 0x38CC4831 EQ PUSH2 0x73 JUMPI DUP1 PUSH4 0x3CCFD60B EQ PUSH2 0x9D JUMPI DUP1 PUSH4 0x6B69A592 EQ PUSH2 0xB3 JUMPI JUMPDEST PUSH0 DUP1 REVERT JUMPDEST CALLVALUE DUP1 ISZERO PUSH2 0x7E JUMPI PUSH0 DUP1 REVERT JUMPDEST POP PUSH2 0x87 PUSH2 0x189 JUMP JUMPDEST PUSH1 0x40 MLOAD PUSH2 0x94 SWAP2 SWAP1 PUSH2 0x6FF JUMP JUMPDEST PUSH1 0x40 MLOAD DUP1 SWAP2 SUB SWAP1 RETURN JUMPDEST CALLVALUE DUP1 ISZERO PUSH2 0xA8 JUMPI PUSH0 DUP1 REVERT JUMPDEST POP PUSH2 0xB1 PUSH2 0x190 JUMP JUMPDEST STOP JUMPDEST CALLVALUE DUP1 ISZERO PUSH2 0xBE JUMPI PUSH0 DUP1 REVERT JUMPDEST POP PUSH2 0xC7 PUSH2 0x3BB JUMP JUMPDEST PUSH1 0x40 MLOAD PUSH2 0xD4 SWAP2 SWAP1 PUSH2 0x730 JUMP JUMPDEST PUSH1 0x40 MLOAD DUP1 SWAP2 SUB SWAP1 RETURN JUMPDEST CALLVALUE DUP1 ISZERO PUSH2 0xE8 JUMPI PUSH0 DUP1 REVERT JUMPDEST POP PUSH2 0x103 PUSH1 0x4 DUP1 CALLDATASIZE SUB DUP2 ADD SWAP1 PUSH2 0xFE SWAP2 SWAP1 PUSH2 0x777 JUMP JUMPDEST PUSH2 0x3C7 JUMP JUMPDEST PUSH1 0x40 MLOAD PUSH2 0x110 SWAP2 SWAP1 PUSH2 0x730 JUMP JUMPDEST PUSH1 0x40 MLOAD DUP1 SWAP2 SUB SWAP1 RETURN JUMPDEST PUSH2 0x121 PUSH2 0x3DC JUMP JUMPDEST STOP JUMPDEST CALLVALUE DUP1 ISZERO PUSH2 0x12E JUMPI PUSH0 DUP1 REVERT JUMPDEST POP PUSH2 0x137 PUSH2 0x4E3 JUMP JUMPDEST PUSH1 0x40 MLOAD PUSH2 0x144 SWAP2 SWAP1 PUSH2 0x6FF JUMP JUMPDEST PUSH1 0x40 MLOAD DUP1 SWAP2 SUB SWAP1 RETURN JUMPDEST CALLVALUE DUP1 ISZERO PUSH2 0x158 JUMPI PUSH0 DUP1 REVERT JUMPDEST POP PUSH2 0x173 PUSH1 0x4 DUP1 CALLDATASIZE SUB DUP2 ADD SWAP1 PUSH2 0x16E SWAP2 SWAP1 PUSH2 0x7CC JUMP JUMPDEST PUSH2 0x507 JUMP JUMPDEST PUSH1 0x40 MLOAD PUSH2 0x180 SWAP2 SWAP1 PUSH2 0x6FF JUMP JUMPDEST PUSH1 0x40 MLOAD DUP1 SWAP2 SUB SWAP1 RETURN JUMPDEST PUSH0 ADDRESS SWAP1 POP SWAP1 JUMP JUMPDEST PUSH32 0x0 PUSH20 0xFFFFFFFFFFFFFFFFFFFFFFFFFFFFFFFFFFFFFFFF AND CALLER PUSH20 0xFFFFFFFFFFFFFFFFFFFFFFFFFFFFFFFFFFFFFFFF AND EQ PUSH2 0x215 JUMPI PUSH1 0x40 MLOAD PUSH32 0x30CD747100000000000000000000000000000000000000000000000000000000 DUP2 MSTORE PUSH1 0x4 ADD PUSH1 0x40 MLOAD DUP1 SWAP2 SUB SWAP1 REVERT JUMPDEST PUSH0 JUMPDEST PUSH0 DUP1 SLOAD SWAP1 POP DUP2 LT ISZERO PUSH2 0x2B1 JUMPI PUSH0 DUP1 DUP3 DUP2 SLOAD DUP2 LT PUSH2 0x237 JUMPI PUSH2 0x236 PUSH2 0x7F7 JUMP JUMPDEST JUMPDEST SWAP1 PUSH0 MSTORE PUSH1 0x20 PUSH0 KECCAK256 ADD PUSH0 SWAP1 SLOAD SWAP1 PUSH2 0x100 EXP SWAP1 DIV PUSH20 0xFFFFFFFFFFFFFFFFFFFFFFFFFFFFFFFFFFFFFFFF AND SWAP1 POP PUSH0 PUSH1 0x1 PUSH0 DUP4 PUSH20 0xFFFFFFFFFFFFFFFFFFFFFFFFFFFFFFFFFFFFFFFF AND PUSH20 0xFFFFFFFFFFFFFFFFFFFFFFFFFFFFFFFFFFFFFFFF AND DUP2 MSTORE PUSH1 0x20 ADD SWAP1 DUP2 MSTORE PUSH1 0x20 ADD PUSH0 KECCAK256 DUP2 SWAP1 SSTORE POP POP DUP1 DUP1 PUSH1 0x1 ADD SWAP2 POP POP PUSH2 0x217 JUMP JUMPDEST POP PUSH0 PUSH8 0xFFFFFFFFFFFFFFFF DUP2 GT ISZERO PUSH2 0x2CC JUMPI PUSH2 0x2CB PUSH2 0x824 JUMP JUMPDEST JUMPDEST PUSH1 0x40 MLOAD SWAP1 DUP1 DUP3 MSTORE DUP1 PUSH1 0x20 MUL PUSH1 0x20 ADD DUP3 ADD PUSH1 0x40 MSTORE DUP1 ISZERO PUSH2 0x2FA JUMPI DUP2 PUSH1 0x20 ADD PUSH1 0x20 DUP3 MUL DUP1 CALLDATASIZE DUP4 CALLDATACOPY DUP1 DUP3 ADD SWAP2 POP POP SWAP1 POP JUMPDEST POP PUSH0 SWAP1 DUP1 MLOAD SWAP1 PUSH1 0x20 ADD SWAP1 PUSH2 0x30F SWAP3 SWAP2 SWAP1 PUSH2 0x61E JUMP JUMPDEST POP PUSH0 CALLER PUSH20 0xFFFFFFFFFFFFFFFFFFFFFFFFFFFFFFFFFFFFFFFF AND SELFBALANCE PUSH1 0x40 MLOAD PUSH2 0x335 SWAP1 PUSH2 0x87E JUMP JUMPDEST PUSH0 PUSH1 0x40 MLOAD DUP1 DUP4 SUB DUP2 DUP6 DUP8 GAS CALL SWAP3 POP POP POP RETURNDATASIZE DUP1 PUSH0 DUP2 EQ PUSH2 0x36F JUMPI PUSH1 0x40 MLOAD SWAP2 POP PUSH1 0x1F NOT PUSH1 0x3F RETURNDATASIZE ADD AND DUP3 ADD PUSH1 0x40 MSTORE RETURNDATASIZE DUP3 MSTORE RETURNDATASIZE PUSH0 PUSH1 0x20 DUP5 ADD RETURNDATACOPY PUSH2 0x374 JUMP JUMPDEST PUSH1 0x60 SWAP2 POP JUMPDEST POP POP SWAP1 POP DUP1 PUSH2 0x3B8 JUMPI PUSH1 0x40 MLOAD PUSH32 0x8C379A000000000000000000000000000000000000000000000000000000000 DUP2 MSTORE PUSH1 0x4 ADD PUSH2 0x3AF SWAP1 PUSH2 0x8EC JUMP JUMPDEST PUSH1 0x40 MLOAD DUP1 SWAP2 SUB SWAP1 REVERT JUMPDEST POP JUMP JUMPDEST PUSH8 0x4563918244F40000 DUP2 JUMP JUMPDEST PUSH1 0x1 PUSH1 0x20 MSTORE DUP1 PUSH0 MSTORE PUSH1 0x40 PUSH0 KECCAK256 PUSH0 SWAP2 POP SWAP1 POP SLOAD DUP2 JUMP JUMPDEST PUSH8 0x4563918244F40000 PUSH2 0x3EE CALLVALUE PUSH2 0x541 JUMP JUMPDEST LT ISZERO PUSH2 0x42F JUMPI PUSH1 0x40 MLOAD PUSH32 0x8C379A000000000000000000000000000000000000000000000000000000000 DUP2 MSTORE PUSH1 0x4 ADD PUSH2 0x426 SWAP1 PUSH2 0x954 JUMP JUMPDEST PUSH1 0x40 MLOAD DUP1 SWAP2 SUB SWAP1 REVERT JUMPDEST PUSH0 CALLER SWAP1 DUP1 PUSH1 0x1 DUP2 SLOAD ADD DUP1 DUP3 SSTORE DUP1 SWAP2 POP POP PUSH1 0x1 SWAP1 SUB SWAP1 PUSH0 MSTORE PUSH1 0x20 PUSH0 KECCAK256 ADD PUSH0 SWAP1 SWAP2 SWAP1 SWAP2 SWAP1 SWAP2 PUSH2 0x100 EXP DUP2 SLOAD DUP2 PUSH20 0xFFFFFFFFFFFFFFFFFFFFFFFFFFFFFFFFFFFFFFFF MUL NOT AND SWAP1 DUP4 PUSH20 0xFFFFFFFFFFFFFFFFFFFFFFFFFFFFFFFFFFFFFFFF AND MUL OR SWAP1 SSTORE POP CALLVALUE PUSH1 0x1 PUSH0 CALLER PUSH20 0xFFFFFFFFFFFFFFFFFFFFFFFFFFFFFFFFFFFFFFFF AND PUSH20 0xFFFFFFFFFFFFFFFFFFFFFFFFFFFFFFFFFFFFFFFF AND DUP2 MSTORE PUSH1 0x20 ADD SWAP1 DUP2 MSTORE PUSH1 0x20 ADD PUSH0 KECCAK256 PUSH0 DUP3 DUP3 SLOAD PUSH2 0x4DA SWAP2 SWAP1 PUSH2 0x99F JUMP JUMPDEST SWAP3 POP POP DUP2 SWAP1 SSTORE POP JUMP JUMPDEST PUSH32 0x0 DUP2 JUMP JUMPDEST PUSH0 DUP2 DUP2 SLOAD DUP2 LT PUSH2 0x515 JUMPI PUSH0 DUP1 REVERT JUMPDEST SWAP1 PUSH0 MSTORE PUSH1 0x20 PUSH0 KECCAK256 ADD PUSH0 SWAP2 POP SLOAD SWAP1 PUSH2 0x100 EXP SWAP1 DIV PUSH20 0xFFFFFFFFFFFFFFFFFFFFFFFFFFFFFFFFFFFFFFFF AND DUP2 JUMP JUMPDEST PUSH0 DUP1 PUSH2 0x54B PUSH2 0x579 JUMP JUMPDEST SWAP1 POP PUSH0 PUSH8 0xDE0B6B3A7640000 DUP3 DUP6 PUSH2 0x563 SWAP2 SWAP1 PUSH2 0x9D2 JUMP JUMPDEST PUSH2 0x56D SWAP2 SWAP1 PUSH2 0xA40 JUMP JUMPDEST SWAP1 POP DUP1 SWAP3 POP POP POP SWAP2 SWAP1 POP JUMP JUMPDEST PUSH0 DUP1 PUSH20 0x694AA1769357215DE4FAC081BF1F309ADC325306 SWAP1 POP PUSH0 DUP2 PUSH20 0xFFFFFFFFFFFFFFFFFFFFFFFFFFFFFFFFFFFFFFFF AND PUSH4 0xFEAF968C PUSH1 0x40 MLOAD DUP2 PUSH4 0xFFFFFFFF AND PUSH1 0xE0 SHL DUP2 MSTORE PUSH1 0x4 ADD PUSH1 0xA0 PUSH1 0x40 MLOAD DUP1 DUP4 SUB DUP2 DUP7 GAS STATICCALL ISZERO DUP1 ISZERO PUSH2 0x5DC JUMPI RETURNDATASIZE PUSH0 DUP1 RETURNDATACOPY RETURNDATASIZE PUSH0 REVERT JUMPDEST POP POP POP POP PUSH1 0x40 MLOAD RETURNDATASIZE PUSH1 0x1F NOT PUSH1 0x1F DUP3 ADD AND DUP3 ADD DUP1 PUSH1 0x40 MSTORE POP DUP2 ADD SWAP1 PUSH2 0x600 SWAP2 SWAP1 PUSH2 0xAF6 JUMP JUMPDEST POP POP POP SWAP2 POP POP PUSH5 0x2540BE400 DUP2 PUSH2 0x617 SWAP2 SWAP1 PUSH2 0xB6D JUMP JUMPDEST SWAP3 POP POP POP SWAP1 JUMP JUMPDEST DUP3 DUP1 SLOAD DUP3 DUP3 SSTORE SWAP1 PUSH0 MSTORE PUSH1 0x20 PUSH0 KECCAK256 SWAP1 DUP2 ADD SWAP3 DUP3 ISZERO PUSH2 0x694 JUMPI SWAP2 PUSH1 0x20 MUL DUP3 ADD JUMPDEST DUP3 DUP2 GT ISZERO PUSH2 0x693 JUMPI DUP3 MLOAD DUP3 PUSH0 PUSH2 0x100 EXP DUP2 SLOAD DUP2 PUSH20 0xFFFFFFFFFFFFFFFFFFFFFFFFFFFFFFFFFFFFFFFF MUL NOT AND SWAP1 DUP4 PUSH20 0xFFFFFFFFFFFFFFFFFFFFFFFFFFFFFFFFFFFFFFFF AND MUL OR SWAP1 SSTORE POP SWAP2 PUSH1 0x20 ADD SWAP2 SWAP1 PUSH1 0x1 ADD SWAP1 PUSH2 0x63C JUMP JUMPDEST JUMPDEST POP SWAP1 POP PUSH2 0x6A1 SWAP2 SWAP1 PUSH2 0x6A5 JUMP JUMPDEST POP SWAP1 JUMP JUMPDEST JUMPDEST DUP1 DUP3 GT ISZERO PUSH2 0x6BC JUMPI PUSH0 DUP2 PUSH0 SWAP1 SSTORE POP PUSH1 0x1 ADD PUSH2 0x6A6 JUMP JUMPDEST POP SWAP1 JUMP JUMPDEST PUSH0 PUSH20 0xFFFFFFFFFFFFFFFFFFFFFFFFFFFFFFFFFFFFFFFF DUP3 AND SWAP1 POP SWAP2 SWAP1 POP JUMP JUMPDEST PUSH0 PUSH2 0x6E9 DUP3 PUSH2 0x6C0 JUMP JUMPDEST SWAP1 POP SWAP2 SWAP1 POP JUMP JUMPDEST PUSH2 0x6F9 DUP2 PUSH2 0x6DF JUMP JUMPDEST DUP3 MSTORE POP POP JUMP JUMPDEST PUSH0 PUSH1 0x20 DUP3 ADD SWAP1 POP PUSH2 0x712 PUSH0 DUP4 ADD DUP5 PUSH2 0x6F0 JUMP JUMPDEST SWAP3 SWAP2 POP POP JUMP JUMPDEST PUSH0 DUP2 SWAP1 POP SWAP2 SWAP1 POP JUMP JUMPDEST PUSH2 0x72A DUP2 PUSH2 0x718 JUMP JUMPDEST DUP3 MSTORE POP POP JUMP JUMPDEST PUSH0 PUSH1 0x20 DUP3 ADD SWAP1 POP PUSH2 0x743 PUSH0 DUP4 ADD DUP5 PUSH2 0x721 JUMP JUMPDEST SWAP3 SWAP2 POP POP JUMP JUMPDEST PUSH0 DUP1 REVERT JUMPDEST PUSH2 0x756 DUP2 PUSH2 0x6DF JUMP JUMPDEST DUP2 EQ PUSH2 0x760 JUMPI PUSH0 DUP1 REVERT JUMPDEST POP JUMP JUMPDEST PUSH0 DUP2 CALLDATALOAD SWAP1 POP PUSH2 0x771 DUP2 PUSH2 0x74D JUMP JUMPDEST SWAP3 SWAP2 POP POP JUMP JUMPDEST PUSH0 PUSH1 0x20 DUP3 DUP5 SUB SLT ISZERO PUSH2 0x78C JUMPI PUSH2 0x78B PUSH2 0x749 JUMP JUMPDEST JUMPDEST PUSH0 PUSH2 0x799 DUP5 DUP3 DUP6 ADD PUSH2 0x763 JUMP JUMPDEST SWAP2 POP POP SWAP3 SWAP2 POP POP JUMP JUMPDEST PUSH2 0x7AB DUP2 PUSH2 0x718 JUMP JUMPDEST DUP2 EQ PUSH2 0x7B5 JUMPI PUSH0 DUP1 REVERT JUMPDEST POP JUMP JUMPDEST PUSH0 DUP2 CALLDATALOAD SWAP1 POP PUSH2 0x7C6 DUP2 PUSH2 0x7A2 JUMP JUMPDEST SWAP3 SWAP2 POP POP JUMP JUMPDEST PUSH0 PUSH1 0x20 DUP3 DUP5 SUB SLT ISZERO PUSH2 0x7E1 JUMPI PUSH2 0x7E0 PUSH2 0x749 JUMP JUMPDEST JUMPDEST PUSH0 PUSH2 0x7EE DUP5 DUP3 DUP6 ADD PUSH2 0x7B8 JUMP JUMPDEST SWAP2 POP POP SWAP3 SWAP2 POP POP JUMP JUMPDEST PUSH32 0x4E487B7100000000000000000000000000000000000000000000000000000000 PUSH0 MSTORE PUSH1 0x32 PUSH1 0x4 MSTORE PUSH1 0x24 PUSH0 REVERT JUMPDEST PUSH32 0x4E487B7100000000000000000000000000000000000000000000000000000000 PUSH0 MSTORE PUSH1 0x41 PUSH1 0x4 MSTORE PUSH1 0x24 PUSH0 REVERT JUMPDEST PUSH0 DUP2 SWAP1 POP SWAP3 SWAP2 POP POP JUMP JUMPDEST POP JUMP JUMPDEST PUSH0 PUSH2 0x869 PUSH0 DUP4 PUSH2 0x851 JUMP JUMPDEST SWAP2 POP PUSH2 0x874 DUP3 PUSH2 0x85B JUMP JUMPDEST PUSH0 DUP3 ADD SWAP1 POP SWAP2 SWAP1 POP JUMP JUMPDEST PUSH0 PUSH2 0x888 DUP3 PUSH2 0x85E JUMP JUMPDEST SWAP2 POP DUP2 SWAP1 POP SWAP2 SWAP1 POP JUMP JUMPDEST PUSH0 DUP3 DUP3 MSTORE PUSH1 0x20 DUP3 ADD SWAP1 POP SWAP3 SWAP2 POP POP JUMP JUMPDEST PUSH32 0x43616C6C204661696C6564000000000000000000000000000000000000000000 PUSH0 DUP3 ADD MSTORE POP JUMP JUMPDEST PUSH0 PUSH2 0x8D6 PUSH1 0xB DUP4 PUSH2 0x892 JUMP JUMPDEST SWAP2 POP PUSH2 0x8E1 DUP3 PUSH2 0x8A2 JUMP JUMPDEST PUSH1 0x20 DUP3 ADD SWAP1 POP SWAP2 SWAP1 POP JUMP JUMPDEST PUSH0 PUSH1 0x20 DUP3 ADD SWAP1 POP DUP2 DUP2 SUB PUSH0 DUP4 ADD MSTORE PUSH2 0x903 DUP2 PUSH2 0x8CA JUMP JUMPDEST SWAP1 POP SWAP2 SWAP1 POP JUMP JUMPDEST PUSH32 0x4E6F7420656E6F756768206D6F6E657900000000000000000000000000000000 PUSH0 DUP3 ADD MSTORE POP JUMP JUMPDEST PUSH0 PUSH2 0x93E PUSH1 0x10 DUP4 PUSH2 0x892 JUMP JUMPDEST SWAP2 POP PUSH2 0x949 DUP3 PUSH2 0x90A JUMP JUMPDEST PUSH1 0x20 DUP3 ADD SWAP1 POP SWAP2 SWAP1 POP JUMP JUMPDEST PUSH0 PUSH1 0x20 DUP3 ADD SWAP1 POP DUP2 DUP2 SUB PUSH0 DUP4 ADD MSTORE PUSH2 0x96B DUP2 PUSH2 0x932 JUMP JUMPDEST SWAP1 POP SWAP2 SWAP1 POP JUMP JUMPDEST PUSH32 0x4E487B7100000000000000000000000000000000000000000000000000000000 PUSH0 MSTORE PUSH1 0x11 PUSH1 0x4 MSTORE PUSH1 0x24 PUSH0 REVERT JUMPDEST PUSH0 PUSH2 0x9A9 DUP3 PUSH2 0x718 JUMP JUMPDEST SWAP2 POP PUSH2 0x9B4 DUP4 PUSH2 0x718 JUMP JUMPDEST SWAP3 POP DUP3 DUP3 ADD SWAP1 POP DUP1 DUP3 GT ISZERO PUSH2 0x9CC JUMPI PUSH2 0x9CB PUSH2 0x972 JUMP JUMPDEST JUMPDEST SWAP3 SWAP2 POP POP JUMP JUMPDEST PUSH0 PUSH2 0x9DC DUP3 PUSH2 0x718 JUMP JUMPDEST SWAP2 POP PUSH2 0x9E7 DUP4 PUSH2 0x718 JUMP JUMPDEST SWAP3 POP DUP3 DUP3 MUL PUSH2 0x9F5 DUP2 PUSH2 0x718 JUMP JUMPDEST SWAP2 POP DUP3 DUP3 DIV DUP5 EQ DUP4 ISZERO OR PUSH2 0xA0C JUMPI PUSH2 0xA0B PUSH2 0x972 JUMP JUMPDEST JUMPDEST POP SWAP3 SWAP2 POP POP JUMP JUMPDEST PUSH32 0x4E487B7100000000000000000000000000000000000000000000000000000000 PUSH0 MSTORE PUSH1 0x12 PUSH1 0x4 MSTORE PUSH1 0x24 PUSH0 REVERT JUMPDEST PUSH0 PUSH2 0xA4A DUP3 PUSH2 0x718 JUMP JUMPDEST SWAP2 POP PUSH2 0xA55 DUP4 PUSH2 0x718 JUMP JUMPDEST SWAP3 POP DUP3 PUSH2 0xA65 JUMPI PUSH2 0xA64 PUSH2 0xA13 JUMP JUMPDEST JUMPDEST DUP3 DUP3 DIV SWAP1 POP SWAP3 SWAP2 POP POP JUMP JUMPDEST PUSH0 PUSH10 0xFFFFFFFFFFFFFFFFFFFF DUP3 AND SWAP1 POP SWAP2 SWAP1 POP JUMP JUMPDEST PUSH2 0xA8E DUP2 PUSH2 0xA70 JUMP JUMPDEST DUP2 EQ PUSH2 0xA98 JUMPI PUSH0 DUP1 REVERT JUMPDEST POP JUMP JUMPDEST PUSH0 DUP2 MLOAD SWAP1 POP PUSH2 0xAA9 DUP2 PUSH2 0xA85 JUMP JUMPDEST SWAP3 SWAP2 POP POP JUMP JUMPDEST PUSH0 DUP2 SWAP1 POP SWAP2 SWAP1 POP JUMP JUMPDEST PUSH2 0xAC1 DUP2 PUSH2 0xAAF JUMP JUMPDEST DUP2 EQ PUSH2 0xACB JUMPI PUSH0 DUP1 REVERT JUMPDEST POP JUMP JUMPDEST PUSH0 DUP2 MLOAD SWAP1 POP PUSH2 0xADC DUP2 PUSH2 0xAB8 JUMP JUMPDEST SWAP3 SWAP2 POP POP JUMP JUMPDEST PUSH0 DUP2 MLOAD SWAP1 POP PUSH2 0xAF0 DUP2 PUSH2 0x7A2 JUMP JUMPDEST SWAP3 SWAP2 POP POP JUMP JUMPDEST PUSH0 DUP1 PUSH0 DUP1 PUSH0 PUSH1 0xA0 DUP7 DUP9 SUB SLT ISZERO PUSH2 0xB0F JUMPI PUSH2 0xB0E PUSH2 0x749 JUMP JUMPDEST JUMPDEST PUSH0 PUSH2 0xB1C DUP9 DUP3 DUP10 ADD PUSH2 0xA9B JUMP JUMPDEST SWAP6 POP POP PUSH1 0x20 PUSH2 0xB2D DUP9 DUP3 DUP10 ADD PUSH2 0xACE JUMP JUMPDEST SWAP5 POP POP PUSH1 0x40 PUSH2 0xB3E DUP9 DUP3 DUP10 ADD PUSH2 0xAE2 JUMP JUMPDEST SWAP4 POP POP PUSH1 0x60 PUSH2 0xB4F DUP9 DUP3 DUP10 ADD PUSH2 0xAE2 JUMP JUMPDEST SWAP3 POP POP PUSH1 0x80 PUSH2 0xB60 DUP9 DUP3 DUP10 ADD PUSH2 0xA9B JUMP JUMPDEST SWAP2 POP POP SWAP3 SWAP6 POP SWAP3 SWAP6 SWAP1 SWAP4 POP JUMP JUMPDEST PUSH0 PUSH2 0xB77 DUP3 PUSH2 0xAAF JUMP JUMPDEST SWAP2 POP PUSH2 0xB82 DUP4 PUSH2 0xAAF JUMP JUMPDEST SWAP3 POP DUP3 DUP3 MUL PUSH2 0xB90 DUP2 PUSH2 0xAAF JUMP JUMPDEST SWAP2 POP PUSH32 0x8000000000000000000000000000000000000000000000000000000000000000 DUP5 EQ PUSH0 DUP5 SLT AND ISZERO PUSH2 0xBC7 JUMPI PUSH2 0xBC6 PUSH2 0x972 JUMP JUMPDEST JUMPDEST DUP3 DUP3 SDIV DUP5 EQ DUP4 ISZERO OR PUSH2 0xBDC JUMPI PUSH2 0xBDB PUSH2 0x972 JUMP JUMPDEST JUMPDEST POP SWAP3 SWAP2 POP POP JUMP INVALID LOG2 PUSH5 0x6970667358 0x22 SLT KECCAK256 SSTORE 0xE0 PUSH28 0xD282BE6D0ECF15964A13E6C853D42D2834BF731E37299AAE81D51D41 BYTE PUSH5 0x736F6C6343 STOP ADDMOD NOT STOP CALLER "
				},
				"gasEstimates": {
					"creation": {
						"codeDepositCost": "619400",
						"executionCost": "infinite",
						"totalCost": "infinite"
					},
					"external": {
						"MINIMUM_USD()": "370",
						"fund()": "infinite",
						"funderAmount(address)": "2802",
						"funders(uint256)": "5009",
						"getAddress()": "380",
						"i_owner()": "infinite",
						"withdraw()": "infinite"
					}
				},
				"methodIdentifiers": {
					"MINIMUM_USD()": "6b69a592",
					"fund()": "b60d4288",
					"funderAmount(address)": "af5e73a4",
					"funders(uint256)": "dc0d3dff",
					"getAddress()": "38cc4831",
					"i_owner()": "dba6335f",
					"withdraw()": "3ccfd60b"
				}
			},
			"storageLayout": {
				"storage": [
					{
						"astId": 62,
						"contract": "FundMe.sol:FundMe",
						"label": "funders",
						"offset": 0,
						"slot": "0",
						"type": "t_array(t_address)dyn_storage"
					},
					{
						"astId": 66,
						"contract": "FundMe.sol:FundMe",
						"label": "funderAmount",
						"offset": 0,
						"slot": "1",
						"type": "t_mapping(t_address,t_uint256)"
					}
				],
				"types": {
					"t_address": {
						"encoding": "inplace",
						"label": "address",
						"numberOfBytes": "20"
					},
					"t_array(t_address)dyn_storage": {
						"base": "t_address",
						"encoding": "dynamic_array",
						"label": "address[]",
						"numberOfBytes": "32"
					},
					"t_mapping(t_address,t_uint256)": {
						"encoding": "mapping",
						"key": "t_address",
						"label": "mapping(address => uint256)",
						"numberOfBytes": "32",
						"value": "t_uint256"
					},
					"t_uint256": {
						"encoding": "inplace",
						"label": "uint256",
						"numberOfBytes": "32"
					}
				}
			},
			"userdoc": {
				"kind": "user",
				"methods": {},
				"version": 1
			}
		}
	}
}