{
	"Contracts/FundMe.sol": {
		"FundMe": {
			"abi": [
				{
					"inputs": [],
					"stateMutability": "nonpayable",
					"type": "constructor"
				},
				{
					"inputs": [],
					"name": "NotOwner",
					"type": "error"
				},
				{
					"inputs": [],
					"name": "MINIMUMUSD",
					"outputs": [
						{
							"internalType": "uint256",
							"name": "",
							"type": "uint256"
						}
					],
					"stateMutability": "view",
					"type": "function"
				},
				{
					"inputs": [],
					"name": "fund",
					"outputs": [],
					"stateMutability": "payable",
					"type": "function"
				},
				{
					"inputs": [
						{
							"internalType": "uint256",
							"name": "",
							"type": "uint256"
						}
					],
					"name": "funders",
					"outputs": [
						{
							"internalType": "address",
							"name": "",
							"type": "address"
						}
					],
					"stateMutability": "view",
					"type": "function"
				},
				{
					"inputs": [
						{
							"internalType": "address",
							"name": "",
							"type": "address"
						}
					],
					"name": "fundersAndAmounts",
					"outputs": [
						{
							"internalType": "uint256",
							"name": "",
							"type": "uint256"
						}
					],
					"stateMutability": "view",
					"type": "function"
				},
				{
					"inputs": [],
					"name": "i_owner",
					"outputs": [
						{
							"internalType": "address",
							"name": "",
							"type": "address"
						}
					],
					"stateMutability": "view",
					"type": "function"
				},
				{
					"inputs": [],
					"name": "withdraw",
					"outputs": [],
					"stateMutability": "nonpayable",
					"type": "function"
				}
			],
			"devdoc": {
				"kind": "dev",
				"methods": {},
				"version": 1
			},
			"evm": {
				"assembly": "    /* \"Contracts/FundMe.sol\":253:1369  contract FundMe {... */\n  mstore(0x40, 0xa0)\n    /* \"Contracts/FundMe.sol\":505:558  constructor() {... */\n  callvalue\n  dup1\n  iszero\n  tag_1\n  jumpi\n  0x00\n  dup1\n  revert\ntag_1:\n  pop\n    /* \"Contracts/FundMe.sol\":540:550  msg.sender */\n  caller\n    /* \"Contracts/FundMe.sol\":530:550  i_owner = msg.sender */\n  0xffffffffffffffffffffffffffffffffffffffff\n  and\n  0x80\n  dup2\n  0xffffffffffffffffffffffffffffffffffffffff\n  and\n  dup2\n  mstore\n  pop\n  pop\n    /* \"Contracts/FundMe.sol\":253:1369  contract FundMe {... */\n  mload(0x80)\n  codecopy(0x00, dataOffset(sub_0), dataSize(sub_0))\n  0x00\n  assignImmutable(\"0xcc143a676b82d5e07b2c9d57717b403ab3c58caa273a42cdb95b15980141a86c\")\n  return(0x00, dataSize(sub_0))\nstop\n\nsub_0: assembly {\n        /* \"Contracts/FundMe.sol\":253:1369  contract FundMe {... */\n      mstore(0x40, 0x80)\n      jumpi(tag_1, lt(calldatasize, 0x04))\n      shr(0xe0, calldataload(0x00))\n      dup1\n      0x17611d02\n      eq\n      tag_2\n      jumpi\n      dup1\n      0x3ccfd60b\n      eq\n      tag_3\n      jumpi\n      dup1\n      0x7d451480\n      eq\n      tag_4\n      jumpi\n      dup1\n      0xb60d4288\n      eq\n      tag_5\n      jumpi\n      dup1\n      0xdba6335f\n      eq\n      tag_6\n      jumpi\n      dup1\n      0xdc0d3dff\n      eq\n      tag_7\n      jumpi\n    tag_1:\n      0x00\n      dup1\n      revert\n        /* \"Contracts/FundMe.sol\":402:455  mapping (address => uint256) public fundersAndAmounts */\n    tag_2:\n      callvalue\n      dup1\n      iszero\n      tag_8\n      jumpi\n      0x00\n      dup1\n      revert\n    tag_8:\n      pop\n      tag_9\n      0x04\n      dup1\n      calldatasize\n      sub\n      dup2\n      add\n      swap1\n      tag_10\n      swap2\n      swap1\n      tag_11\n      jump\t// in\n    tag_10:\n      tag_12\n      jump\t// in\n    tag_9:\n      mload(0x40)\n      tag_13\n      swap2\n      swap1\n      tag_14\n      jump\t// in\n    tag_13:\n      mload(0x40)\n      dup1\n      swap2\n      sub\n      swap1\n      return\n        /* \"Contracts/FundMe.sol\":819:1238  function withdraw() public onlyOwner {... */\n    tag_3:\n      callvalue\n      dup1\n      iszero\n      tag_15\n      jumpi\n      0x00\n      dup1\n      revert\n    tag_15:\n      pop\n      tag_16\n      tag_17\n      jump\t// in\n    tag_16:\n      stop\n        /* \"Contracts/FundMe.sol\":319:360  uint256 public constant MINIMUMUSD = 5e18 */\n    tag_4:\n      callvalue\n      dup1\n      iszero\n      tag_18\n      jumpi\n      0x00\n      dup1\n      revert\n    tag_18:\n      pop\n      tag_19\n      tag_20\n      jump\t// in\n    tag_19:\n      mload(0x40)\n      tag_21\n      swap2\n      swap1\n      tag_14\n      jump\t// in\n    tag_21:\n      mload(0x40)\n      dup1\n      swap2\n      sub\n      swap1\n      return\n        /* \"Contracts/FundMe.sol\":572:811  function fund() public payable {... */\n    tag_5:\n      tag_22\n      tag_23\n      jump\t// in\n    tag_22:\n      stop\n        /* \"Contracts/FundMe.sol\":464:496  address public immutable i_owner */\n    tag_6:\n      callvalue\n      dup1\n      iszero\n      tag_24\n      jumpi\n      0x00\n      dup1\n      revert\n    tag_24:\n      pop\n      tag_25\n      tag_26\n      jump\t// in\n    tag_25:\n      mload(0x40)\n      tag_27\n      swap2\n      swap1\n      tag_28\n      jump\t// in\n    tag_27:\n      mload(0x40)\n      dup1\n      swap2\n      sub\n      swap1\n      return\n        /* \"Contracts/FundMe.sol\":369:393  address[] public funders */\n    tag_7:\n      callvalue\n      dup1\n      iszero\n      tag_29\n      jumpi\n      0x00\n      dup1\n      revert\n    tag_29:\n      pop\n      tag_30\n      0x04\n      dup1\n      calldatasize\n      sub\n      dup2\n      add\n      swap1\n      tag_31\n      swap2\n      swap1\n      tag_32\n      jump\t// in\n    tag_31:\n      tag_33\n      jump\t// in\n    tag_30:\n      mload(0x40)\n      tag_34\n      swap2\n      swap1\n      tag_28\n      jump\t// in\n    tag_34:\n      mload(0x40)\n      dup1\n      swap2\n      sub\n      swap1\n      return\n        /* \"Contracts/FundMe.sol\":402:455  mapping (address => uint256) public fundersAndAmounts */\n    tag_12:\n      mstore(0x20, 0x01)\n      dup1\n      0x00\n      mstore\n      keccak256(0x00, 0x40)\n      0x00\n      swap2\n      pop\n      swap1\n      pop\n      sload\n      dup2\n      jump\t// out\n        /* \"Contracts/FundMe.sol\":819:1238  function withdraw() public onlyOwner {... */\n    tag_17:\n        /* \"Contracts/FundMe.sol\":1294:1301  i_owner */\n      immutable(\"0xcc143a676b82d5e07b2c9d57717b403ab3c58caa273a42cdb95b15980141a86c\")\n        /* \"Contracts/FundMe.sol\":1280:1301  msg.sender == i_owner */\n      0xffffffffffffffffffffffffffffffffffffffff\n      and\n        /* \"Contracts/FundMe.sol\":1280:1290  msg.sender */\n      caller\n        /* \"Contracts/FundMe.sol\":1280:1301  msg.sender == i_owner */\n      0xffffffffffffffffffffffffffffffffffffffff\n      and\n      sub\n        /* \"Contracts/FundMe.sol\":1276:1347  if (msg.sender == i_owner) {... */\n      tag_36\n      jumpi\n        /* \"Contracts/FundMe.sol\":1325:1335  NotOwner() */\n      mload(0x40)\n      0x30cd747100000000000000000000000000000000000000000000000000000000\n      dup2\n      mstore\n      0x04\n      add\n      mload(0x40)\n      dup1\n      swap2\n      sub\n      swap1\n      revert\n        /* \"Contracts/FundMe.sol\":1276:1347  if (msg.sender == i_owner) {... */\n    tag_36:\n        /* \"Contracts/FundMe.sol\":872:891  uint256 funderIndex */\n      0x00\n        /* \"Contracts/FundMe.sol\":867:1050  for (uint256 funderIndex = 0; funderIndex < funders.length; funderIndex++) {... */\n    tag_38:\n        /* \"Contracts/FundMe.sol\":911:918  funders */\n      0x00\n        /* \"Contracts/FundMe.sol\":911:925  funders.length */\n      dup1\n      sload\n      swap1\n      pop\n        /* \"Contracts/FundMe.sol\":897:908  funderIndex */\n      dup2\n        /* \"Contracts/FundMe.sol\":897:925  funderIndex < funders.length */\n      lt\n        /* \"Contracts/FundMe.sol\":867:1050  for (uint256 funderIndex = 0; funderIndex < funders.length; funderIndex++) {... */\n      iszero\n      tag_39\n      jumpi\n        /* \"Contracts/FundMe.sol\":957:971  address funder */\n      0x00\n        /* \"Contracts/FundMe.sol\":974:981  funders */\n      dup1\n        /* \"Contracts/FundMe.sol\":982:993  funderIndex */\n      dup3\n        /* \"Contracts/FundMe.sol\":974:994  funders[funderIndex] */\n      dup2\n      sload\n      dup2\n      lt\n      tag_41\n      jumpi\n      tag_42\n      tag_43\n      jump\t// in\n    tag_42:\n    tag_41:\n      swap1\n      0x00\n      mstore\n      keccak256(0x00, 0x20)\n      add\n      0x00\n      swap1\n      sload\n      swap1\n      0x0100\n      exp\n      swap1\n      div\n      0xffffffffffffffffffffffffffffffffffffffff\n      and\n        /* \"Contracts/FundMe.sol\":957:994  address funder = funders[funderIndex] */\n      swap1\n      pop\n        /* \"Contracts/FundMe.sol\":1037:1038  0 */\n      0x00\n        /* \"Contracts/FundMe.sol\":1009:1026  fundersAndAmounts */\n      0x01\n        /* \"Contracts/FundMe.sol\":1009:1034  fundersAndAmounts[funder] */\n      0x00\n        /* \"Contracts/FundMe.sol\":1027:1033  funder */\n      dup4\n        /* \"Contracts/FundMe.sol\":1009:1034  fundersAndAmounts[funder] */\n      0xffffffffffffffffffffffffffffffffffffffff\n      and\n      0xffffffffffffffffffffffffffffffffffffffff\n      and\n      dup2\n      mstore\n      0x20\n      add\n      swap1\n      dup2\n      mstore\n      0x20\n      add\n      0x00\n      keccak256\n        /* \"Contracts/FundMe.sol\":1009:1038  fundersAndAmounts[funder] = 0 */\n      dup2\n      swap1\n      sstore\n      pop\n        /* \"Contracts/FundMe.sol\":942:1050  {... */\n      pop\n        /* \"Contracts/FundMe.sol\":927:940  funderIndex++ */\n      dup1\n      dup1\n      0x01\n      add\n      swap2\n      pop\n      pop\n        /* \"Contracts/FundMe.sol\":867:1050  for (uint256 funderIndex = 0; funderIndex < funders.length; funderIndex++) {... */\n      jump(tag_38)\n    tag_39:\n      pop\n        /* \"Contracts/FundMe.sol\":1084:1085  0 */\n      0x00\n        /* \"Contracts/FundMe.sol\":1070:1086  new address[](0) */\n      0xffffffffffffffff\n      dup2\n      gt\n      iszero\n      tag_45\n      jumpi\n      tag_46\n      tag_47\n      jump\t// in\n    tag_46:\n    tag_45:\n      mload(0x40)\n      swap1\n      dup1\n      dup3\n      mstore\n      dup1\n      0x20\n      mul\n      0x20\n      add\n      dup3\n      add\n      0x40\n      mstore\n      dup1\n      iszero\n      tag_48\n      jumpi\n      dup2\n      0x20\n      add\n      0x20\n      dup3\n      mul\n      dup1\n      calldatasize\n      dup4\n      calldatacopy\n      dup1\n      dup3\n      add\n      swap2\n      pop\n      pop\n      swap1\n      pop\n    tag_48:\n      pop\n        /* \"Contracts/FundMe.sol\":1060:1067  funders */\n      0x00\n        /* \"Contracts/FundMe.sol\":1060:1086  funders = new address[](0) */\n      swap1\n      dup1\n      mload\n      swap1\n      0x20\n      add\n      swap1\n      tag_49\n      swap3\n      swap2\n      swap1\n      tag_50\n      jump\t// in\n    tag_49:\n      pop\n        /* \"Contracts/FundMe.sol\":1100:1116  bool callSuccess */\n      0x00\n        /* \"Contracts/FundMe.sol\":1130:1140  msg.sender */\n      caller\n        /* \"Contracts/FundMe.sol\":1122:1146  payable(msg.sender).call */\n      0xffffffffffffffffffffffffffffffffffffffff\n      and\n        /* \"Contracts/FundMe.sol\":1154:1175  address(this).balance */\n      selfbalance\n        /* \"Contracts/FundMe.sol\":1122:1180  payable(msg.sender).call{value: address(this).balance}(\"\") */\n      mload(0x40)\n      tag_51\n      swap1\n      tag_52\n      jump\t// in\n    tag_51:\n      0x00\n      mload(0x40)\n      dup1\n      dup4\n      sub\n      dup2\n      dup6\n      dup8\n      gas\n      call\n      swap3\n      pop\n      pop\n      pop\n      returndatasize\n      dup1\n      0x00\n      dup2\n      eq\n      tag_55\n      jumpi\n      mload(0x40)\n      swap2\n      pop\n      and(add(returndatasize, 0x3f), not(0x1f))\n      dup3\n      add\n      0x40\n      mstore\n      returndatasize\n      dup3\n      mstore\n      returndatasize\n      0x00\n      0x20\n      dup5\n      add\n      returndatacopy\n      jump(tag_54)\n    tag_55:\n      0x60\n      swap2\n      pop\n    tag_54:\n      pop\n        /* \"Contracts/FundMe.sol\":1099:1180  (bool callSuccess, ) = payable(msg.sender).call{value: address(this).balance}(\"\") */\n      pop\n      swap1\n      pop\n        /* \"Contracts/FundMe.sol\":1199:1210  callSuccess */\n      dup1\n        /* \"Contracts/FundMe.sol\":1191:1230  require(callSuccess, \"Transfer Failed\") */\n      tag_56\n      jumpi\n      mload(0x40)\n      0x08c379a000000000000000000000000000000000000000000000000000000000\n      dup2\n      mstore\n      0x04\n      add\n      tag_57\n      swap1\n      tag_58\n      jump\t// in\n    tag_57:\n      mload(0x40)\n      dup1\n      swap2\n      sub\n      swap1\n      revert\n    tag_56:\n        /* \"Contracts/FundMe.sol\":856:1238  {... */\n      pop\n        /* \"Contracts/FundMe.sol\":819:1238  function withdraw() public onlyOwner {... */\n      jump\t// out\n        /* \"Contracts/FundMe.sol\":319:360  uint256 public constant MINIMUMUSD = 5e18 */\n    tag_20:\n        /* \"Contracts/FundMe.sol\":356:360  5e18 */\n      0x4563918244f40000\n        /* \"Contracts/FundMe.sol\":319:360  uint256 public constant MINIMUMUSD = 5e18 */\n      dup2\n      jump\t// out\n        /* \"Contracts/FundMe.sol\":572:811  function fund() public payable {... */\n    tag_23:\n        /* \"Contracts/FundMe.sol\":356:360  5e18 */\n      0x4563918244f40000\n        /* \"Contracts/FundMe.sol\":622:651  msg.value.getConversionRate() */\n      tag_60\n        /* \"Contracts/FundMe.sol\":622:631  msg.value */\n      callvalue\n        /* \"Contracts/FundMe.sol\":622:649  msg.value.getConversionRate */\n      tag_61\n        /* \"Contracts/FundMe.sol\":622:651  msg.value.getConversionRate() */\n      jump\t// in\n    tag_60:\n        /* \"Contracts/FundMe.sol\":622:665  msg.value.getConversionRate() >= MINIMUMUSD */\n      lt\n      iszero\n        /* \"Contracts/FundMe.sol\":614:684  require(msg.value.getConversionRate() >= MINIMUMUSD, \"Not enough eth\") */\n      tag_62\n      jumpi\n      mload(0x40)\n      0x08c379a000000000000000000000000000000000000000000000000000000000\n      dup2\n      mstore\n      0x04\n      add\n      tag_63\n      swap1\n      tag_64\n      jump\t// in\n    tag_63:\n      mload(0x40)\n      dup1\n      swap2\n      sub\n      swap1\n      revert\n    tag_62:\n        /* \"Contracts/FundMe.sol\":695:702  funders */\n      0x00\n        /* \"Contracts/FundMe.sol\":708:718  msg.sender */\n      caller\n        /* \"Contracts/FundMe.sol\":695:719  funders.push(msg.sender) */\n      swap1\n      dup1\n      0x01\n      dup2\n      sload\n      add\n      dup1\n      dup3\n      sstore\n      dup1\n      swap2\n      pop\n      pop\n      0x01\n      swap1\n      sub\n      swap1\n      0x00\n      mstore\n      keccak256(0x00, 0x20)\n      add\n      0x00\n      swap1\n      swap2\n      swap1\n      swap2\n      swap1\n      swap2\n      0x0100\n      exp\n      dup2\n      sload\n      dup2\n      0xffffffffffffffffffffffffffffffffffffffff\n      mul\n      not\n      and\n      swap1\n      dup4\n      0xffffffffffffffffffffffffffffffffffffffff\n      and\n      mul\n      or\n      swap1\n      sstore\n      pop\n        /* \"Contracts/FundMe.sol\":794:803  msg.value */\n      callvalue\n        /* \"Contracts/FundMe.sol\":762:779  fundersAndAmounts */\n      0x01\n        /* \"Contracts/FundMe.sol\":762:791  fundersAndAmounts[msg.sender] */\n      0x00\n        /* \"Contracts/FundMe.sol\":780:790  msg.sender */\n      caller\n        /* \"Contracts/FundMe.sol\":762:791  fundersAndAmounts[msg.sender] */\n      0xffffffffffffffffffffffffffffffffffffffff\n      and\n      0xffffffffffffffffffffffffffffffffffffffff\n      and\n      dup2\n      mstore\n      0x20\n      add\n      swap1\n      dup2\n      mstore\n      0x20\n      add\n      0x00\n      keccak256\n      sload\n        /* \"Contracts/FundMe.sol\":762:803  fundersAndAmounts[msg.sender] + msg.value */\n      tag_66\n      swap2\n      swap1\n      tag_67\n      jump\t// in\n    tag_66:\n        /* \"Contracts/FundMe.sol\":730:747  fundersAndAmounts */\n      0x01\n        /* \"Contracts/FundMe.sol\":730:759  fundersAndAmounts[msg.sender] */\n      0x00\n        /* \"Contracts/FundMe.sol\":748:758  msg.sender */\n      caller\n        /* \"Contracts/FundMe.sol\":730:759  fundersAndAmounts[msg.sender] */\n      0xffffffffffffffffffffffffffffffffffffffff\n      and\n      0xffffffffffffffffffffffffffffffffffffffff\n      and\n      dup2\n      mstore\n      0x20\n      add\n      swap1\n      dup2\n      mstore\n      0x20\n      add\n      0x00\n      keccak256\n        /* \"Contracts/FundMe.sol\":730:803  fundersAndAmounts[msg.sender] = fundersAndAmounts[msg.sender] + msg.value */\n      dup2\n      swap1\n      sstore\n      pop\n        /* \"Contracts/FundMe.sol\":572:811  function fund() public payable {... */\n      jump\t// out\n        /* \"Contracts/FundMe.sol\":464:496  address public immutable i_owner */\n    tag_26:\n      immutable(\"0xcc143a676b82d5e07b2c9d57717b403ab3c58caa273a42cdb95b15980141a86c\")\n      dup2\n      jump\t// out\n        /* \"Contracts/FundMe.sol\":369:393  address[] public funders */\n    tag_33:\n      0x00\n      dup2\n      dup2\n      sload\n      dup2\n      lt\n      tag_68\n      jumpi\n      0x00\n      dup1\n      revert\n    tag_68:\n      swap1\n      0x00\n      mstore\n      keccak256(0x00, 0x20)\n      add\n      0x00\n      swap2\n      pop\n      sload\n      swap1\n      0x0100\n      exp\n      swap1\n      div\n      0xffffffffffffffffffffffffffffffffffffffff\n      and\n      dup2\n      jump\t// out\n        /* \"Contracts/PriceConverter.sol\":557:845  function getConversionRate(uint256 ethAmount) internal  view  returns(uint256) {... */\n    tag_61:\n        /* \"Contracts/PriceConverter.sol\":627:634  uint256 */\n      0x00\n        /* \"Contracts/PriceConverter.sol\":647:668  uint256 ethPriceInUsd */\n      dup1\n        /* \"Contracts/PriceConverter.sol\":671:681  getPrice() */\n      tag_71\n        /* \"Contracts/PriceConverter.sol\":671:679  getPrice */\n      tag_72\n        /* \"Contracts/PriceConverter.sol\":671:681  getPrice() */\n      jump\t// in\n    tag_71:\n        /* \"Contracts/PriceConverter.sol\":647:681  uint256 ethPriceInUsd = getPrice() */\n      swap1\n      pop\n        /* \"Contracts/PriceConverter.sol\":746:768  uint256 ethAmountInUsd */\n      0x00\n        /* \"Contracts/PriceConverter.sol\":801:805  1e18 */\n      0x0de0b6b3a7640000\n        /* \"Contracts/PriceConverter.sol\":784:797  ethPriceInUsd */\n      dup3\n        /* \"Contracts/PriceConverter.sol\":772:781  ethAmount */\n      dup6\n        /* \"Contracts/PriceConverter.sol\":772:797  ethAmount * ethPriceInUsd */\n      tag_73\n      swap2\n      swap1\n      tag_74\n      jump\t// in\n    tag_73:\n        /* \"Contracts/PriceConverter.sol\":771:805  (ethAmount * ethPriceInUsd) / 1e18 */\n      tag_75\n      swap2\n      swap1\n      tag_76\n      jump\t// in\n    tag_75:\n        /* \"Contracts/PriceConverter.sol\":746:805  uint256 ethAmountInUsd = (ethAmount * ethPriceInUsd) / 1e18 */\n      swap1\n      pop\n        /* \"Contracts/PriceConverter.sol\":823:837  ethAmountInUsd */\n      dup1\n        /* \"Contracts/PriceConverter.sol\":816:837  return ethAmountInUsd */\n      swap3\n      pop\n      pop\n      pop\n        /* \"Contracts/PriceConverter.sol\":557:845  function getConversionRate(uint256 ethAmount) internal  view  returns(uint256) {... */\n      swap2\n      swap1\n      pop\n      jump\t// out\n        /* \"Contracts/PriceConverter.sol\":217:549  function getPrice() internal  view returns (uint256) {... */\n    tag_72:\n        /* \"Contracts/PriceConverter.sol\":261:268  uint256 */\n      0x00\n        /* \"Contracts/PriceConverter.sol\":279:310  AggregatorV3Interface priceFeed */\n      dup1\n        /* \"Contracts/PriceConverter.sol\":335:377  0x694AA1769357215DE4FAC081bf1f309aDC325306 */\n      0x694aa1769357215de4fac081bf1f309adc325306\n        /* \"Contracts/PriceConverter.sol\":279:378  AggregatorV3Interface priceFeed = AggregatorV3Interface(0x694AA1769357215DE4FAC081bf1f309aDC325306) */\n      swap1\n      pop\n        /* \"Contracts/PriceConverter.sol\":389:402  int256 answer */\n      0x00\n        /* \"Contracts/PriceConverter.sol\":409:418  priceFeed */\n      dup2\n        /* \"Contracts/PriceConverter.sol\":409:434  priceFeed.latestRoundData */\n      0xffffffffffffffffffffffffffffffffffffffff\n      and\n      0xfeaf968c\n        /* \"Contracts/PriceConverter.sol\":409:436  priceFeed.latestRoundData() */\n      mload(0x40)\n      dup2\n      0xffffffff\n      and\n      0xe0\n      shl\n      dup2\n      mstore\n      0x04\n      add\n      0xa0\n      mload(0x40)\n      dup1\n      dup4\n      sub\n      dup2\n      dup7\n      gas\n      staticcall\n      iszero\n      dup1\n      iszero\n      tag_79\n      jumpi\n      returndatasize\n      0x00\n      dup1\n      returndatacopy\n      revert(0x00, returndatasize)\n    tag_79:\n      pop\n      pop\n      pop\n      pop\n      mload(0x40)\n      returndatasize\n      not(0x1f)\n      0x1f\n      dup3\n      add\n      and\n      dup3\n      add\n      dup1\n      0x40\n      mstore\n      pop\n      dup2\n      add\n      swap1\n      tag_80\n      swap2\n      swap1\n      tag_81\n      jump\t// in\n    tag_80:\n        /* \"Contracts/PriceConverter.sol\":387:436  (,int256 answer,,,) = priceFeed.latestRoundData() */\n      pop\n      pop\n      pop\n      swap2\n      pop\n      pop\n        /* \"Contracts/PriceConverter.sol\":469:473  1e10 */\n      0x02540be400\n        /* \"Contracts/PriceConverter.sol\":460:466  answer */\n      dup2\n        /* \"Contracts/PriceConverter.sol\":460:473  answer * 1e10 */\n      tag_82\n      swap2\n      swap1\n      tag_83\n      jump\t// in\n    tag_82:\n        /* \"Contracts/PriceConverter.sol\":445:474  return uint256(answer * 1e10) */\n      swap3\n      pop\n      pop\n      pop\n        /* \"Contracts/PriceConverter.sol\":217:549  function getPrice() internal  view returns (uint256) {... */\n      swap1\n      jump\t// out\n    tag_50:\n      dup3\n      dup1\n      sload\n      dup3\n      dup3\n      sstore\n      swap1\n      0x00\n      mstore\n      keccak256(0x00, 0x20)\n      swap1\n      dup2\n      add\n      swap3\n      dup3\n      iszero\n      tag_84\n      jumpi\n      swap2\n      0x20\n      mul\n      dup3\n      add\n    tag_85:\n      dup3\n      dup2\n      gt\n      iszero\n      tag_86\n      jumpi\n      dup3\n      mload\n      dup3\n      exp(0x0100, 0x00)\n      dup2\n      sload\n      dup2\n      0xffffffffffffffffffffffffffffffffffffffff\n      mul\n      not\n      and\n      swap1\n      dup4\n      0xffffffffffffffffffffffffffffffffffffffff\n      and\n      mul\n      or\n      swap1\n      sstore\n      pop\n      swap2\n      0x20\n      add\n      swap2\n      swap1\n      0x01\n      add\n      swap1\n      jump(tag_85)\n    tag_86:\n    tag_84:\n      pop\n      swap1\n      pop\n      tag_87\n      swap2\n      swap1\n      tag_88\n      jump\t// in\n    tag_87:\n      pop\n      swap1\n      jump\t// out\n    tag_88:\n    tag_89:\n      dup1\n      dup3\n      gt\n      iszero\n      tag_90\n      jumpi\n      0x00\n      dup2\n      0x00\n      swap1\n      sstore\n      pop\n      0x01\n      add\n      jump(tag_89)\n    tag_90:\n      pop\n      swap1\n      jump\t// out\n        /* \"#utility.yul\":88:205   */\n    tag_92:\n        /* \"#utility.yul\":197:198   */\n      0x00\n        /* \"#utility.yul\":194:195   */\n      dup1\n        /* \"#utility.yul\":187:199   */\n      revert\n        /* \"#utility.yul\":334:460   */\n    tag_94:\n        /* \"#utility.yul\":371:378   */\n      0x00\n        /* \"#utility.yul\":411:453   */\n      0xffffffffffffffffffffffffffffffffffffffff\n        /* \"#utility.yul\":404:409   */\n      dup3\n        /* \"#utility.yul\":400:454   */\n      and\n        /* \"#utility.yul\":389:454   */\n      swap1\n      pop\n        /* \"#utility.yul\":334:460   */\n      swap2\n      swap1\n      pop\n      jump\t// out\n        /* \"#utility.yul\":466:562   */\n    tag_95:\n        /* \"#utility.yul\":503:510   */\n      0x00\n        /* \"#utility.yul\":532:556   */\n      tag_126\n        /* \"#utility.yul\":550:555   */\n      dup3\n        /* \"#utility.yul\":532:556   */\n      tag_94\n      jump\t// in\n    tag_126:\n        /* \"#utility.yul\":521:556   */\n      swap1\n      pop\n        /* \"#utility.yul\":466:562   */\n      swap2\n      swap1\n      pop\n      jump\t// out\n        /* \"#utility.yul\":568:690   */\n    tag_96:\n        /* \"#utility.yul\":641:665   */\n      tag_128\n        /* \"#utility.yul\":659:664   */\n      dup2\n        /* \"#utility.yul\":641:665   */\n      tag_95\n      jump\t// in\n    tag_128:\n        /* \"#utility.yul\":634:639   */\n      dup2\n        /* \"#utility.yul\":631:666   */\n      eq\n        /* \"#utility.yul\":621:684   */\n      tag_129\n      jumpi\n        /* \"#utility.yul\":680:681   */\n      0x00\n        /* \"#utility.yul\":677:678   */\n      dup1\n        /* \"#utility.yul\":670:682   */\n      revert\n        /* \"#utility.yul\":621:684   */\n    tag_129:\n        /* \"#utility.yul\":568:690   */\n      pop\n      jump\t// out\n        /* \"#utility.yul\":696:835   */\n    tag_97:\n        /* \"#utility.yul\":742:747   */\n      0x00\n        /* \"#utility.yul\":780:786   */\n      dup2\n        /* \"#utility.yul\":767:787   */\n      calldataload\n        /* \"#utility.yul\":758:787   */\n      swap1\n      pop\n        /* \"#utility.yul\":796:829   */\n      tag_131\n        /* \"#utility.yul\":823:828   */\n      dup2\n        /* \"#utility.yul\":796:829   */\n      tag_96\n      jump\t// in\n    tag_131:\n        /* \"#utility.yul\":696:835   */\n      swap3\n      swap2\n      pop\n      pop\n      jump\t// out\n        /* \"#utility.yul\":841:1170   */\n    tag_11:\n        /* \"#utility.yul\":900:906   */\n      0x00\n        /* \"#utility.yul\":949:951   */\n      0x20\n        /* \"#utility.yul\":937:946   */\n      dup3\n        /* \"#utility.yul\":928:935   */\n      dup5\n        /* \"#utility.yul\":924:947   */\n      sub\n        /* \"#utility.yul\":920:952   */\n      slt\n        /* \"#utility.yul\":917:1036   */\n      iszero\n      tag_133\n      jumpi\n        /* \"#utility.yul\":955:1034   */\n      tag_134\n      tag_92\n      jump\t// in\n    tag_134:\n        /* \"#utility.yul\":917:1036   */\n    tag_133:\n        /* \"#utility.yul\":1075:1076   */\n      0x00\n        /* \"#utility.yul\":1100:1153   */\n      tag_135\n        /* \"#utility.yul\":1145:1152   */\n      dup5\n        /* \"#utility.yul\":1136:1142   */\n      dup3\n        /* \"#utility.yul\":1125:1134   */\n      dup6\n        /* \"#utility.yul\":1121:1143   */\n      add\n        /* \"#utility.yul\":1100:1153   */\n      tag_97\n      jump\t// in\n    tag_135:\n        /* \"#utility.yul\":1090:1153   */\n      swap2\n      pop\n        /* \"#utility.yul\":1046:1163   */\n      pop\n        /* \"#utility.yul\":841:1170   */\n      swap3\n      swap2\n      pop\n      pop\n      jump\t// out\n        /* \"#utility.yul\":1176:1253   */\n    tag_98:\n        /* \"#utility.yul\":1213:1220   */\n      0x00\n        /* \"#utility.yul\":1242:1247   */\n      dup2\n        /* \"#utility.yul\":1231:1247   */\n      swap1\n      pop\n        /* \"#utility.yul\":1176:1253   */\n      swap2\n      swap1\n      pop\n      jump\t// out\n        /* \"#utility.yul\":1259:1377   */\n    tag_99:\n        /* \"#utility.yul\":1346:1370   */\n      tag_138\n        /* \"#utility.yul\":1364:1369   */\n      dup2\n        /* \"#utility.yul\":1346:1370   */\n      tag_98\n      jump\t// in\n    tag_138:\n        /* \"#utility.yul\":1341:1344   */\n      dup3\n        /* \"#utility.yul\":1334:1371   */\n      mstore\n        /* \"#utility.yul\":1259:1377   */\n      pop\n      pop\n      jump\t// out\n        /* \"#utility.yul\":1383:1605   */\n    tag_14:\n        /* \"#utility.yul\":1476:1480   */\n      0x00\n        /* \"#utility.yul\":1514:1516   */\n      0x20\n        /* \"#utility.yul\":1503:1512   */\n      dup3\n        /* \"#utility.yul\":1499:1517   */\n      add\n        /* \"#utility.yul\":1491:1517   */\n      swap1\n      pop\n        /* \"#utility.yul\":1527:1598   */\n      tag_140\n        /* \"#utility.yul\":1595:1596   */\n      0x00\n        /* \"#utility.yul\":1584:1593   */\n      dup4\n        /* \"#utility.yul\":1580:1597   */\n      add\n        /* \"#utility.yul\":1571:1577   */\n      dup5\n        /* \"#utility.yul\":1527:1598   */\n      tag_99\n      jump\t// in\n    tag_140:\n        /* \"#utility.yul\":1383:1605   */\n      swap3\n      swap2\n      pop\n      pop\n      jump\t// out\n        /* \"#utility.yul\":1611:1729   */\n    tag_100:\n        /* \"#utility.yul\":1698:1722   */\n      tag_142\n        /* \"#utility.yul\":1716:1721   */\n      dup2\n        /* \"#utility.yul\":1698:1722   */\n      tag_95\n      jump\t// in\n    tag_142:\n        /* \"#utility.yul\":1693:1696   */\n      dup3\n        /* \"#utility.yul\":1686:1723   */\n      mstore\n        /* \"#utility.yul\":1611:1729   */\n      pop\n      pop\n      jump\t// out\n        /* \"#utility.yul\":1735:1957   */\n    tag_28:\n        /* \"#utility.yul\":1828:1832   */\n      0x00\n        /* \"#utility.yul\":1866:1868   */\n      0x20\n        /* \"#utility.yul\":1855:1864   */\n      dup3\n        /* \"#utility.yul\":1851:1869   */\n      add\n        /* \"#utility.yul\":1843:1869   */\n      swap1\n      pop\n        /* \"#utility.yul\":1879:1950   */\n      tag_144\n        /* \"#utility.yul\":1947:1948   */\n      0x00\n        /* \"#utility.yul\":1936:1945   */\n      dup4\n        /* \"#utility.yul\":1932:1949   */\n      add\n        /* \"#utility.yul\":1923:1929   */\n      dup5\n        /* \"#utility.yul\":1879:1950   */\n      tag_100\n      jump\t// in\n    tag_144:\n        /* \"#utility.yul\":1735:1957   */\n      swap3\n      swap2\n      pop\n      pop\n      jump\t// out\n        /* \"#utility.yul\":1963:2085   */\n    tag_101:\n        /* \"#utility.yul\":2036:2060   */\n      tag_146\n        /* \"#utility.yul\":2054:2059   */\n      dup2\n        /* \"#utility.yul\":2036:2060   */\n      tag_98\n      jump\t// in\n    tag_146:\n        /* \"#utility.yul\":2029:2034   */\n      dup2\n        /* \"#utility.yul\":2026:2061   */\n      eq\n        /* \"#utility.yul\":2016:2079   */\n      tag_147\n      jumpi\n        /* \"#utility.yul\":2075:2076   */\n      0x00\n        /* \"#utility.yul\":2072:2073   */\n      dup1\n        /* \"#utility.yul\":2065:2077   */\n      revert\n        /* \"#utility.yul\":2016:2079   */\n    tag_147:\n        /* \"#utility.yul\":1963:2085   */\n      pop\n      jump\t// out\n        /* \"#utility.yul\":2091:2230   */\n    tag_102:\n        /* \"#utility.yul\":2137:2142   */\n      0x00\n        /* \"#utility.yul\":2175:2181   */\n      dup2\n        /* \"#utility.yul\":2162:2182   */\n      calldataload\n        /* \"#utility.yul\":2153:2182   */\n      swap1\n      pop\n        /* \"#utility.yul\":2191:2224   */\n      tag_149\n        /* \"#utility.yul\":2218:2223   */\n      dup2\n        /* \"#utility.yul\":2191:2224   */\n      tag_101\n      jump\t// in\n    tag_149:\n        /* \"#utility.yul\":2091:2230   */\n      swap3\n      swap2\n      pop\n      pop\n      jump\t// out\n        /* \"#utility.yul\":2236:2565   */\n    tag_32:\n        /* \"#utility.yul\":2295:2301   */\n      0x00\n        /* \"#utility.yul\":2344:2346   */\n      0x20\n        /* \"#utility.yul\":2332:2341   */\n      dup3\n        /* \"#utility.yul\":2323:2330   */\n      dup5\n        /* \"#utility.yul\":2319:2342   */\n      sub\n        /* \"#utility.yul\":2315:2347   */\n      slt\n        /* \"#utility.yul\":2312:2431   */\n      iszero\n      tag_151\n      jumpi\n        /* \"#utility.yul\":2350:2429   */\n      tag_152\n      tag_92\n      jump\t// in\n    tag_152:\n        /* \"#utility.yul\":2312:2431   */\n    tag_151:\n        /* \"#utility.yul\":2470:2471   */\n      0x00\n        /* \"#utility.yul\":2495:2548   */\n      tag_153\n        /* \"#utility.yul\":2540:2547   */\n      dup5\n        /* \"#utility.yul\":2531:2537   */\n      dup3\n        /* \"#utility.yul\":2520:2529   */\n      dup6\n        /* \"#utility.yul\":2516:2538   */\n      add\n        /* \"#utility.yul\":2495:2548   */\n      tag_102\n      jump\t// in\n    tag_153:\n        /* \"#utility.yul\":2485:2548   */\n      swap2\n      pop\n        /* \"#utility.yul\":2441:2558   */\n      pop\n        /* \"#utility.yul\":2236:2565   */\n      swap3\n      swap2\n      pop\n      pop\n      jump\t// out\n        /* \"#utility.yul\":2571:2751   */\n    tag_43:\n        /* \"#utility.yul\":2619:2696   */\n      0x4e487b7100000000000000000000000000000000000000000000000000000000\n        /* \"#utility.yul\":2616:2617   */\n      0x00\n        /* \"#utility.yul\":2609:2697   */\n      mstore\n        /* \"#utility.yul\":2716:2720   */\n      0x32\n        /* \"#utility.yul\":2713:2714   */\n      0x04\n        /* \"#utility.yul\":2706:2721   */\n      mstore\n        /* \"#utility.yul\":2740:2744   */\n      0x24\n        /* \"#utility.yul\":2737:2738   */\n      0x00\n        /* \"#utility.yul\":2730:2745   */\n      revert\n        /* \"#utility.yul\":2757:2937   */\n    tag_47:\n        /* \"#utility.yul\":2805:2882   */\n      0x4e487b7100000000000000000000000000000000000000000000000000000000\n        /* \"#utility.yul\":2802:2803   */\n      0x00\n        /* \"#utility.yul\":2795:2883   */\n      mstore\n        /* \"#utility.yul\":2902:2906   */\n      0x41\n        /* \"#utility.yul\":2899:2900   */\n      0x04\n        /* \"#utility.yul\":2892:2907   */\n      mstore\n        /* \"#utility.yul\":2926:2930   */\n      0x24\n        /* \"#utility.yul\":2923:2924   */\n      0x00\n        /* \"#utility.yul\":2916:2931   */\n      revert\n        /* \"#utility.yul\":2943:3090   */\n    tag_103:\n        /* \"#utility.yul\":3044:3055   */\n      0x00\n        /* \"#utility.yul\":3081:3084   */\n      dup2\n        /* \"#utility.yul\":3066:3084   */\n      swap1\n      pop\n        /* \"#utility.yul\":2943:3090   */\n      swap3\n      swap2\n      pop\n      pop\n      jump\t// out\n        /* \"#utility.yul\":3096:3210   */\n    tag_104:\n      pop\n      jump\t// out\n        /* \"#utility.yul\":3216:3614   */\n    tag_105:\n        /* \"#utility.yul\":3375:3378   */\n      0x00\n        /* \"#utility.yul\":3396:3479   */\n      tag_159\n        /* \"#utility.yul\":3477:3478   */\n      0x00\n        /* \"#utility.yul\":3472:3475   */\n      dup4\n        /* \"#utility.yul\":3396:3479   */\n      tag_103\n      jump\t// in\n    tag_159:\n        /* \"#utility.yul\":3389:3479   */\n      swap2\n      pop\n        /* \"#utility.yul\":3488:3581   */\n      tag_160\n        /* \"#utility.yul\":3577:3580   */\n      dup3\n        /* \"#utility.yul\":3488:3581   */\n      tag_104\n      jump\t// in\n    tag_160:\n        /* \"#utility.yul\":3606:3607   */\n      0x00\n        /* \"#utility.yul\":3601:3604   */\n      dup3\n        /* \"#utility.yul\":3597:3608   */\n      add\n        /* \"#utility.yul\":3590:3608   */\n      swap1\n      pop\n        /* \"#utility.yul\":3216:3614   */\n      swap2\n      swap1\n      pop\n      jump\t// out\n        /* \"#utility.yul\":3620:3999   */\n    tag_52:\n        /* \"#utility.yul\":3804:3807   */\n      0x00\n        /* \"#utility.yul\":3826:3973   */\n      tag_162\n        /* \"#utility.yul\":3969:3972   */\n      dup3\n        /* \"#utility.yul\":3826:3973   */\n      tag_105\n      jump\t// in\n    tag_162:\n        /* \"#utility.yul\":3819:3973   */\n      swap2\n      pop\n        /* \"#utility.yul\":3990:3993   */\n      dup2\n        /* \"#utility.yul\":3983:3993   */\n      swap1\n      pop\n        /* \"#utility.yul\":3620:3999   */\n      swap2\n      swap1\n      pop\n      jump\t// out\n        /* \"#utility.yul\":4005:4174   */\n    tag_106:\n        /* \"#utility.yul\":4089:4100   */\n      0x00\n        /* \"#utility.yul\":4123:4129   */\n      dup3\n        /* \"#utility.yul\":4118:4121   */\n      dup3\n        /* \"#utility.yul\":4111:4130   */\n      mstore\n        /* \"#utility.yul\":4163:4167   */\n      0x20\n        /* \"#utility.yul\":4158:4161   */\n      dup3\n        /* \"#utility.yul\":4154:4168   */\n      add\n        /* \"#utility.yul\":4139:4168   */\n      swap1\n      pop\n        /* \"#utility.yul\":4005:4174   */\n      swap3\n      swap2\n      pop\n      pop\n      jump\t// out\n        /* \"#utility.yul\":4180:4345   */\n    tag_107:\n        /* \"#utility.yul\":4320:4337   */\n      0x5472616e73666572204661696c65640000000000000000000000000000000000\n        /* \"#utility.yul\":4316:4317   */\n      0x00\n        /* \"#utility.yul\":4308:4314   */\n      dup3\n        /* \"#utility.yul\":4304:4318   */\n      add\n        /* \"#utility.yul\":4297:4338   */\n      mstore\n        /* \"#utility.yul\":4180:4345   */\n      pop\n      jump\t// out\n        /* \"#utility.yul\":4351:4717   */\n    tag_108:\n        /* \"#utility.yul\":4493:4496   */\n      0x00\n        /* \"#utility.yul\":4514:4581   */\n      tag_166\n        /* \"#utility.yul\":4578:4580   */\n      0x0f\n        /* \"#utility.yul\":4573:4576   */\n      dup4\n        /* \"#utility.yul\":4514:4581   */\n      tag_106\n      jump\t// in\n    tag_166:\n        /* \"#utility.yul\":4507:4581   */\n      swap2\n      pop\n        /* \"#utility.yul\":4590:4683   */\n      tag_167\n        /* \"#utility.yul\":4679:4682   */\n      dup3\n        /* \"#utility.yul\":4590:4683   */\n      tag_107\n      jump\t// in\n    tag_167:\n        /* \"#utility.yul\":4708:4710   */\n      0x20\n        /* \"#utility.yul\":4703:4706   */\n      dup3\n        /* \"#utility.yul\":4699:4711   */\n      add\n        /* \"#utility.yul\":4692:4711   */\n      swap1\n      pop\n        /* \"#utility.yul\":4351:4717   */\n      swap2\n      swap1\n      pop\n      jump\t// out\n        /* \"#utility.yul\":4723:5142   */\n    tag_58:\n        /* \"#utility.yul\":4889:4893   */\n      0x00\n        /* \"#utility.yul\":4927:4929   */\n      0x20\n        /* \"#utility.yul\":4916:4925   */\n      dup3\n        /* \"#utility.yul\":4912:4930   */\n      add\n        /* \"#utility.yul\":4904:4930   */\n      swap1\n      pop\n        /* \"#utility.yul\":4976:4985   */\n      dup2\n        /* \"#utility.yul\":4970:4974   */\n      dup2\n        /* \"#utility.yul\":4966:4986   */\n      sub\n        /* \"#utility.yul\":4962:4963   */\n      0x00\n        /* \"#utility.yul\":4951:4960   */\n      dup4\n        /* \"#utility.yul\":4947:4964   */\n      add\n        /* \"#utility.yul\":4940:4987   */\n      mstore\n        /* \"#utility.yul\":5004:5135   */\n      tag_169\n        /* \"#utility.yul\":5130:5134   */\n      dup2\n        /* \"#utility.yul\":5004:5135   */\n      tag_108\n      jump\t// in\n    tag_169:\n        /* \"#utility.yul\":4996:5135   */\n      swap1\n      pop\n        /* \"#utility.yul\":4723:5142   */\n      swap2\n      swap1\n      pop\n      jump\t// out\n        /* \"#utility.yul\":5148:5312   */\n    tag_109:\n        /* \"#utility.yul\":5288:5304   */\n      0x4e6f7420656e6f75676820657468000000000000000000000000000000000000\n        /* \"#utility.yul\":5284:5285   */\n      0x00\n        /* \"#utility.yul\":5276:5282   */\n      dup3\n        /* \"#utility.yul\":5272:5286   */\n      add\n        /* \"#utility.yul\":5265:5305   */\n      mstore\n        /* \"#utility.yul\":5148:5312   */\n      pop\n      jump\t// out\n        /* \"#utility.yul\":5318:5684   */\n    tag_110:\n        /* \"#utility.yul\":5460:5463   */\n      0x00\n        /* \"#utility.yul\":5481:5548   */\n      tag_172\n        /* \"#utility.yul\":5545:5547   */\n      0x0e\n        /* \"#utility.yul\":5540:5543   */\n      dup4\n        /* \"#utility.yul\":5481:5548   */\n      tag_106\n      jump\t// in\n    tag_172:\n        /* \"#utility.yul\":5474:5548   */\n      swap2\n      pop\n        /* \"#utility.yul\":5557:5650   */\n      tag_173\n        /* \"#utility.yul\":5646:5649   */\n      dup3\n        /* \"#utility.yul\":5557:5650   */\n      tag_109\n      jump\t// in\n    tag_173:\n        /* \"#utility.yul\":5675:5677   */\n      0x20\n        /* \"#utility.yul\":5670:5673   */\n      dup3\n        /* \"#utility.yul\":5666:5678   */\n      add\n        /* \"#utility.yul\":5659:5678   */\n      swap1\n      pop\n        /* \"#utility.yul\":5318:5684   */\n      swap2\n      swap1\n      pop\n      jump\t// out\n        /* \"#utility.yul\":5690:6109   */\n    tag_64:\n        /* \"#utility.yul\":5856:5860   */\n      0x00\n        /* \"#utility.yul\":5894:5896   */\n      0x20\n        /* \"#utility.yul\":5883:5892   */\n      dup3\n        /* \"#utility.yul\":5879:5897   */\n      add\n        /* \"#utility.yul\":5871:5897   */\n      swap1\n      pop\n        /* \"#utility.yul\":5943:5952   */\n      dup2\n        /* \"#utility.yul\":5937:5941   */\n      dup2\n        /* \"#utility.yul\":5933:5953   */\n      sub\n        /* \"#utility.yul\":5929:5930   */\n      0x00\n        /* \"#utility.yul\":5918:5927   */\n      dup4\n        /* \"#utility.yul\":5914:5931   */\n      add\n        /* \"#utility.yul\":5907:5954   */\n      mstore\n        /* \"#utility.yul\":5971:6102   */\n      tag_175\n        /* \"#utility.yul\":6097:6101   */\n      dup2\n        /* \"#utility.yul\":5971:6102   */\n      tag_110\n      jump\t// in\n    tag_175:\n        /* \"#utility.yul\":5963:6102   */\n      swap1\n      pop\n        /* \"#utility.yul\":5690:6109   */\n      swap2\n      swap1\n      pop\n      jump\t// out\n        /* \"#utility.yul\":6115:6295   */\n    tag_111:\n        /* \"#utility.yul\":6163:6240   */\n      0x4e487b7100000000000000000000000000000000000000000000000000000000\n        /* \"#utility.yul\":6160:6161   */\n      0x00\n        /* \"#utility.yul\":6153:6241   */\n      mstore\n        /* \"#utility.yul\":6260:6264   */\n      0x11\n        /* \"#utility.yul\":6257:6258   */\n      0x04\n        /* \"#utility.yul\":6250:6265   */\n      mstore\n        /* \"#utility.yul\":6284:6288   */\n      0x24\n        /* \"#utility.yul\":6281:6282   */\n      0x00\n        /* \"#utility.yul\":6274:6289   */\n      revert\n        /* \"#utility.yul\":6301:6492   */\n    tag_67:\n        /* \"#utility.yul\":6341:6344   */\n      0x00\n        /* \"#utility.yul\":6360:6380   */\n      tag_178\n        /* \"#utility.yul\":6378:6379   */\n      dup3\n        /* \"#utility.yul\":6360:6380   */\n      tag_98\n      jump\t// in\n    tag_178:\n        /* \"#utility.yul\":6355:6380   */\n      swap2\n      pop\n        /* \"#utility.yul\":6394:6414   */\n      tag_179\n        /* \"#utility.yul\":6412:6413   */\n      dup4\n        /* \"#utility.yul\":6394:6414   */\n      tag_98\n      jump\t// in\n    tag_179:\n        /* \"#utility.yul\":6389:6414   */\n      swap3\n      pop\n        /* \"#utility.yul\":6437:6438   */\n      dup3\n        /* \"#utility.yul\":6434:6435   */\n      dup3\n        /* \"#utility.yul\":6430:6439   */\n      add\n        /* \"#utility.yul\":6423:6439   */\n      swap1\n      pop\n        /* \"#utility.yul\":6458:6461   */\n      dup1\n        /* \"#utility.yul\":6455:6456   */\n      dup3\n        /* \"#utility.yul\":6452:6462   */\n      gt\n        /* \"#utility.yul\":6449:6485   */\n      iszero\n      tag_180\n      jumpi\n        /* \"#utility.yul\":6465:6483   */\n      tag_181\n      tag_111\n      jump\t// in\n    tag_181:\n        /* \"#utility.yul\":6449:6485   */\n    tag_180:\n        /* \"#utility.yul\":6301:6492   */\n      swap3\n      swap2\n      pop\n      pop\n      jump\t// out\n        /* \"#utility.yul\":6498:6908   */\n    tag_74:\n        /* \"#utility.yul\":6538:6545   */\n      0x00\n        /* \"#utility.yul\":6561:6581   */\n      tag_183\n        /* \"#utility.yul\":6579:6580   */\n      dup3\n        /* \"#utility.yul\":6561:6581   */\n      tag_98\n      jump\t// in\n    tag_183:\n        /* \"#utility.yul\":6556:6581   */\n      swap2\n      pop\n        /* \"#utility.yul\":6595:6615   */\n      tag_184\n        /* \"#utility.yul\":6613:6614   */\n      dup4\n        /* \"#utility.yul\":6595:6615   */\n      tag_98\n      jump\t// in\n    tag_184:\n        /* \"#utility.yul\":6590:6615   */\n      swap3\n      pop\n        /* \"#utility.yul\":6650:6651   */\n      dup3\n        /* \"#utility.yul\":6647:6648   */\n      dup3\n        /* \"#utility.yul\":6643:6652   */\n      mul\n        /* \"#utility.yul\":6672:6702   */\n      tag_185\n        /* \"#utility.yul\":6690:6701   */\n      dup2\n        /* \"#utility.yul\":6672:6702   */\n      tag_98\n      jump\t// in\n    tag_185:\n        /* \"#utility.yul\":6661:6702   */\n      swap2\n      pop\n        /* \"#utility.yul\":6851:6852   */\n      dup3\n        /* \"#utility.yul\":6842:6849   */\n      dup3\n        /* \"#utility.yul\":6838:6853   */\n      div\n        /* \"#utility.yul\":6835:6836   */\n      dup5\n        /* \"#utility.yul\":6832:6854   */\n      eq\n        /* \"#utility.yul\":6812:6813   */\n      dup4\n        /* \"#utility.yul\":6805:6814   */\n      iszero\n        /* \"#utility.yul\":6785:6868   */\n      or\n        /* \"#utility.yul\":6762:6901   */\n      tag_186\n      jumpi\n        /* \"#utility.yul\":6881:6899   */\n      tag_187\n      tag_111\n      jump\t// in\n    tag_187:\n        /* \"#utility.yul\":6762:6901   */\n    tag_186:\n        /* \"#utility.yul\":6546:6908   */\n      pop\n        /* \"#utility.yul\":6498:6908   */\n      swap3\n      swap2\n      pop\n      pop\n      jump\t// out\n        /* \"#utility.yul\":6914:7094   */\n    tag_112:\n        /* \"#utility.yul\":6962:7039   */\n      0x4e487b7100000000000000000000000000000000000000000000000000000000\n        /* \"#utility.yul\":6959:6960   */\n      0x00\n        /* \"#utility.yul\":6952:7040   */\n      mstore\n        /* \"#utility.yul\":7059:7063   */\n      0x12\n        /* \"#utility.yul\":7056:7057   */\n      0x04\n        /* \"#utility.yul\":7049:7064   */\n      mstore\n        /* \"#utility.yul\":7083:7087   */\n      0x24\n        /* \"#utility.yul\":7080:7081   */\n      0x00\n        /* \"#utility.yul\":7073:7088   */\n      revert\n        /* \"#utility.yul\":7100:7285   */\n    tag_76:\n        /* \"#utility.yul\":7140:7141   */\n      0x00\n        /* \"#utility.yul\":7157:7177   */\n      tag_190\n        /* \"#utility.yul\":7175:7176   */\n      dup3\n        /* \"#utility.yul\":7157:7177   */\n      tag_98\n      jump\t// in\n    tag_190:\n        /* \"#utility.yul\":7152:7177   */\n      swap2\n      pop\n        /* \"#utility.yul\":7191:7211   */\n      tag_191\n        /* \"#utility.yul\":7209:7210   */\n      dup4\n        /* \"#utility.yul\":7191:7211   */\n      tag_98\n      jump\t// in\n    tag_191:\n        /* \"#utility.yul\":7186:7211   */\n      swap3\n      pop\n        /* \"#utility.yul\":7230:7231   */\n      dup3\n        /* \"#utility.yul\":7220:7255   */\n      tag_192\n      jumpi\n        /* \"#utility.yul\":7235:7253   */\n      tag_193\n      tag_112\n      jump\t// in\n    tag_193:\n        /* \"#utility.yul\":7220:7255   */\n    tag_192:\n        /* \"#utility.yul\":7277:7278   */\n      dup3\n        /* \"#utility.yul\":7274:7275   */\n      dup3\n        /* \"#utility.yul\":7270:7279   */\n      div\n        /* \"#utility.yul\":7265:7279   */\n      swap1\n      pop\n        /* \"#utility.yul\":7100:7285   */\n      swap3\n      swap2\n      pop\n      pop\n      jump\t// out\n        /* \"#utility.yul\":7291:7396   */\n    tag_113:\n        /* \"#utility.yul\":7327:7334   */\n      0x00\n        /* \"#utility.yul\":7367:7389   */\n      0xffffffffffffffffffff\n        /* \"#utility.yul\":7360:7365   */\n      dup3\n        /* \"#utility.yul\":7356:7390   */\n      and\n        /* \"#utility.yul\":7345:7390   */\n      swap1\n      pop\n        /* \"#utility.yul\":7291:7396   */\n      swap2\n      swap1\n      pop\n      jump\t// out\n        /* \"#utility.yul\":7402:7522   */\n    tag_114:\n        /* \"#utility.yul\":7474:7497   */\n      tag_196\n        /* \"#utility.yul\":7491:7496   */\n      dup2\n        /* \"#utility.yul\":7474:7497   */\n      tag_113\n      jump\t// in\n    tag_196:\n        /* \"#utility.yul\":7467:7472   */\n      dup2\n        /* \"#utility.yul\":7464:7498   */\n      eq\n        /* \"#utility.yul\":7454:7516   */\n      tag_197\n      jumpi\n        /* \"#utility.yul\":7512:7513   */\n      0x00\n        /* \"#utility.yul\":7509:7510   */\n      dup1\n        /* \"#utility.yul\":7502:7514   */\n      revert\n        /* \"#utility.yul\":7454:7516   */\n    tag_197:\n        /* \"#utility.yul\":7402:7522   */\n      pop\n      jump\t// out\n        /* \"#utility.yul\":7528:7669   */\n    tag_115:\n        /* \"#utility.yul\":7584:7589   */\n      0x00\n        /* \"#utility.yul\":7615:7621   */\n      dup2\n        /* \"#utility.yul\":7609:7622   */\n      mload\n        /* \"#utility.yul\":7600:7622   */\n      swap1\n      pop\n        /* \"#utility.yul\":7631:7663   */\n      tag_199\n        /* \"#utility.yul\":7657:7662   */\n      dup2\n        /* \"#utility.yul\":7631:7663   */\n      tag_114\n      jump\t// in\n    tag_199:\n        /* \"#utility.yul\":7528:7669   */\n      swap3\n      swap2\n      pop\n      pop\n      jump\t// out\n        /* \"#utility.yul\":7675:7751   */\n    tag_116:\n        /* \"#utility.yul\":7711:7718   */\n      0x00\n        /* \"#utility.yul\":7740:7745   */\n      dup2\n        /* \"#utility.yul\":7729:7745   */\n      swap1\n      pop\n        /* \"#utility.yul\":7675:7751   */\n      swap2\n      swap1\n      pop\n      jump\t// out\n        /* \"#utility.yul\":7757:7877   */\n    tag_117:\n        /* \"#utility.yul\":7829:7852   */\n      tag_202\n        /* \"#utility.yul\":7846:7851   */\n      dup2\n        /* \"#utility.yul\":7829:7852   */\n      tag_116\n      jump\t// in\n    tag_202:\n        /* \"#utility.yul\":7822:7827   */\n      dup2\n        /* \"#utility.yul\":7819:7853   */\n      eq\n        /* \"#utility.yul\":7809:7871   */\n      tag_203\n      jumpi\n        /* \"#utility.yul\":7867:7868   */\n      0x00\n        /* \"#utility.yul\":7864:7865   */\n      dup1\n        /* \"#utility.yul\":7857:7869   */\n      revert\n        /* \"#utility.yul\":7809:7871   */\n    tag_203:\n        /* \"#utility.yul\":7757:7877   */\n      pop\n      jump\t// out\n        /* \"#utility.yul\":7883:8024   */\n    tag_118:\n        /* \"#utility.yul\":7939:7944   */\n      0x00\n        /* \"#utility.yul\":7970:7976   */\n      dup2\n        /* \"#utility.yul\":7964:7977   */\n      mload\n        /* \"#utility.yul\":7955:7977   */\n      swap1\n      pop\n        /* \"#utility.yul\":7986:8018   */\n      tag_205\n        /* \"#utility.yul\":8012:8017   */\n      dup2\n        /* \"#utility.yul\":7986:8018   */\n      tag_117\n      jump\t// in\n    tag_205:\n        /* \"#utility.yul\":7883:8024   */\n      swap3\n      swap2\n      pop\n      pop\n      jump\t// out\n        /* \"#utility.yul\":8030:8173   */\n    tag_119:\n        /* \"#utility.yul\":8087:8092   */\n      0x00\n        /* \"#utility.yul\":8118:8124   */\n      dup2\n        /* \"#utility.yul\":8112:8125   */\n      mload\n        /* \"#utility.yul\":8103:8125   */\n      swap1\n      pop\n        /* \"#utility.yul\":8134:8167   */\n      tag_207\n        /* \"#utility.yul\":8161:8166   */\n      dup2\n        /* \"#utility.yul\":8134:8167   */\n      tag_101\n      jump\t// in\n    tag_207:\n        /* \"#utility.yul\":8030:8173   */\n      swap3\n      swap2\n      pop\n      pop\n      jump\t// out\n        /* \"#utility.yul\":8179:9150   */\n    tag_81:\n        /* \"#utility.yul\":8282:8288   */\n      0x00\n        /* \"#utility.yul\":8290:8296   */\n      dup1\n        /* \"#utility.yul\":8298:8304   */\n      0x00\n        /* \"#utility.yul\":8306:8312   */\n      dup1\n        /* \"#utility.yul\":8314:8320   */\n      0x00\n        /* \"#utility.yul\":8363:8366   */\n      0xa0\n        /* \"#utility.yul\":8351:8360   */\n      dup7\n        /* \"#utility.yul\":8342:8349   */\n      dup9\n        /* \"#utility.yul\":8338:8361   */\n      sub\n        /* \"#utility.yul\":8334:8367   */\n      slt\n        /* \"#utility.yul\":8331:8451   */\n      iszero\n      tag_209\n      jumpi\n        /* \"#utility.yul\":8370:8449   */\n      tag_210\n      tag_92\n      jump\t// in\n    tag_210:\n        /* \"#utility.yul\":8331:8451   */\n    tag_209:\n        /* \"#utility.yul\":8490:8491   */\n      0x00\n        /* \"#utility.yul\":8515:8578   */\n      tag_211\n        /* \"#utility.yul\":8570:8577   */\n      dup9\n        /* \"#utility.yul\":8561:8567   */\n      dup3\n        /* \"#utility.yul\":8550:8559   */\n      dup10\n        /* \"#utility.yul\":8546:8568   */\n      add\n        /* \"#utility.yul\":8515:8578   */\n      tag_115\n      jump\t// in\n    tag_211:\n        /* \"#utility.yul\":8505:8578   */\n      swap6\n      pop\n        /* \"#utility.yul\":8461:8588   */\n      pop\n        /* \"#utility.yul\":8627:8629   */\n      0x20\n        /* \"#utility.yul\":8653:8716   */\n      tag_212\n        /* \"#utility.yul\":8708:8715   */\n      dup9\n        /* \"#utility.yul\":8699:8705   */\n      dup3\n        /* \"#utility.yul\":8688:8697   */\n      dup10\n        /* \"#utility.yul\":8684:8706   */\n      add\n        /* \"#utility.yul\":8653:8716   */\n      tag_118\n      jump\t// in\n    tag_212:\n        /* \"#utility.yul\":8643:8716   */\n      swap5\n      pop\n        /* \"#utility.yul\":8598:8726   */\n      pop\n        /* \"#utility.yul\":8765:8767   */\n      0x40\n        /* \"#utility.yul\":8791:8855   */\n      tag_213\n        /* \"#utility.yul\":8847:8854   */\n      dup9\n        /* \"#utility.yul\":8838:8844   */\n      dup3\n        /* \"#utility.yul\":8827:8836   */\n      dup10\n        /* \"#utility.yul\":8823:8845   */\n      add\n        /* \"#utility.yul\":8791:8855   */\n      tag_119\n      jump\t// in\n    tag_213:\n        /* \"#utility.yul\":8781:8855   */\n      swap4\n      pop\n        /* \"#utility.yul\":8736:8865   */\n      pop\n        /* \"#utility.yul\":8904:8906   */\n      0x60\n        /* \"#utility.yul\":8930:8994   */\n      tag_214\n        /* \"#utility.yul\":8986:8993   */\n      dup9\n        /* \"#utility.yul\":8977:8983   */\n      dup3\n        /* \"#utility.yul\":8966:8975   */\n      dup10\n        /* \"#utility.yul\":8962:8984   */\n      add\n        /* \"#utility.yul\":8930:8994   */\n      tag_119\n      jump\t// in\n    tag_214:\n        /* \"#utility.yul\":8920:8994   */\n      swap3\n      pop\n        /* \"#utility.yul\":8875:9004   */\n      pop\n        /* \"#utility.yul\":9043:9046   */\n      0x80\n        /* \"#utility.yul\":9070:9133   */\n      tag_215\n        /* \"#utility.yul\":9125:9132   */\n      dup9\n        /* \"#utility.yul\":9116:9122   */\n      dup3\n        /* \"#utility.yul\":9105:9114   */\n      dup10\n        /* \"#utility.yul\":9101:9123   */\n      add\n        /* \"#utility.yul\":9070:9133   */\n      tag_115\n      jump\t// in\n    tag_215:\n        /* \"#utility.yul\":9060:9133   */\n      swap2\n      pop\n        /* \"#utility.yul\":9014:9143   */\n      pop\n        /* \"#utility.yul\":8179:9150   */\n      swap3\n      swap6\n      pop\n      swap3\n      swap6\n      swap1\n      swap4\n      pop\n      jump\t// out\n        /* \"#utility.yul\":9156:9712   */\n    tag_83:\n        /* \"#utility.yul\":9195:9202   */\n      0x00\n        /* \"#utility.yul\":9218:9237   */\n      tag_217\n        /* \"#utility.yul\":9235:9236   */\n      dup3\n        /* \"#utility.yul\":9218:9237   */\n      tag_116\n      jump\t// in\n    tag_217:\n        /* \"#utility.yul\":9213:9237   */\n      swap2\n      pop\n        /* \"#utility.yul\":9251:9270   */\n      tag_218\n        /* \"#utility.yul\":9268:9269   */\n      dup4\n        /* \"#utility.yul\":9251:9270   */\n      tag_116\n      jump\t// in\n    tag_218:\n        /* \"#utility.yul\":9246:9270   */\n      swap3\n      pop\n        /* \"#utility.yul\":9305:9306   */\n      dup3\n        /* \"#utility.yul\":9302:9303   */\n      dup3\n        /* \"#utility.yul\":9298:9307   */\n      mul\n        /* \"#utility.yul\":9327:9356   */\n      tag_219\n        /* \"#utility.yul\":9344:9355   */\n      dup2\n        /* \"#utility.yul\":9327:9356   */\n      tag_116\n      jump\t// in\n    tag_219:\n        /* \"#utility.yul\":9316:9356   */\n      swap2\n      pop\n        /* \"#utility.yul\":9414:9480   */\n      0x8000000000000000000000000000000000000000000000000000000000000000\n        /* \"#utility.yul\":9411:9412   */\n      dup5\n        /* \"#utility.yul\":9408:9481   */\n      eq\n        /* \"#utility.yul\":9404:9405   */\n      0x00\n        /* \"#utility.yul\":9401:9402   */\n      dup5\n        /* \"#utility.yul\":9397:9406   */\n      slt\n        /* \"#utility.yul\":9393:9482   */\n      and\n        /* \"#utility.yul\":9390:9505   */\n      iszero\n      tag_220\n      jumpi\n        /* \"#utility.yul\":9485:9503   */\n      tag_221\n      tag_111\n      jump\t// in\n    tag_221:\n        /* \"#utility.yul\":9390:9505   */\n    tag_220:\n        /* \"#utility.yul\":9655:9656   */\n      dup3\n        /* \"#utility.yul\":9646:9653   */\n      dup3\n        /* \"#utility.yul\":9641:9657   */\n      sdiv\n        /* \"#utility.yul\":9638:9639   */\n      dup5\n        /* \"#utility.yul\":9635:9658   */\n      eq\n        /* \"#utility.yul\":9615:9616   */\n      dup4\n        /* \"#utility.yul\":9608:9617   */\n      iszero\n        /* \"#utility.yul\":9588:9672   */\n      or\n        /* \"#utility.yul\":9565:9705   */\n      tag_222\n      jumpi\n        /* \"#utility.yul\":9685:9703   */\n      tag_223\n      tag_111\n      jump\t// in\n    tag_223:\n        /* \"#utility.yul\":9565:9705   */\n    tag_222:\n        /* \"#utility.yul\":9203:9712   */\n      pop\n        /* \"#utility.yul\":9156:9712   */\n      swap3\n      swap2\n      pop\n      pop\n      jump\t// out\n\n    auxdata: 0xa26469706673582212209110f011f598c6d11e23cf936017d9c3ca1c91edea382040ad4aae260f43846664736f6c634300081a0033\n}\n",
				"bytecode": {
					"linkReferences": {},
					"object": "60a0604052348015600e575f80fd5b503373ffffffffffffffffffffffffffffffffffffffff1660808173ffffffffffffffffffffffffffffffffffffffff1681525050608051610c046100625f395f818161015b01526104d00152610c045ff3fe608060405260043610610054575f3560e01c806317611d02146100585780633ccfd60b146100945780637d451480146100aa578063b60d4288146100d4578063dba6335f146100de578063dc0d3dff14610108575b5f80fd5b348015610063575f80fd5b5061007e60048036038101906100799190610709565b610144565b60405161008b919061074c565b60405180910390f35b34801561009f575f80fd5b506100a8610159565b005b3480156100b5575f80fd5b506100be610384565b6040516100cb919061074c565b60405180910390f35b6100dc610390565b005b3480156100e9575f80fd5b506100f26104ce565b6040516100ff9190610774565b60405180910390f35b348015610113575f80fd5b5061012e600480360381019061012991906107b7565b6104f2565b60405161013b9190610774565b60405180910390f35b6001602052805f5260405f205f915090505481565b7f000000000000000000000000000000000000000000000000000000000000000073ffffffffffffffffffffffffffffffffffffffff163373ffffffffffffffffffffffffffffffffffffffff16036101de576040517f30cd747100000000000000000000000000000000000000000000000000000000815260040160405180910390fd5b5f5b5f8054905081101561027a575f808281548110610200576101ff6107e2565b5b905f5260205f20015f9054906101000a900473ffffffffffffffffffffffffffffffffffffffff1690505f60015f8373ffffffffffffffffffffffffffffffffffffffff1673ffffffffffffffffffffffffffffffffffffffff1681526020019081526020015f20819055505080806001019150506101e0565b505f67ffffffffffffffff8111156102955761029461080f565b5b6040519080825280602002602001820160405280156102c35781602001602082028036833780820191505090505b505f90805190602001906102d8929190610609565b505f3373ffffffffffffffffffffffffffffffffffffffff16476040516102fe90610869565b5f6040518083038185875af1925050503d805f8114610338576040519150601f19603f3d011682016040523d82523d5f602084013e61033d565b606091505b5050905080610381576040517f08c379a0000000000000000000000000000000000000000000000000000000008152600401610378906108d7565b60405180910390fd5b50565b674563918244f4000081565b674563918244f400006103a23461052c565b10156103e3576040517f08c379a00000000000000000000000000000000000000000000000000000000081526004016103da9061093f565b60405180910390fd5b5f33908060018154018082558091505060019003905f5260205f20015f9091909190916101000a81548173ffffffffffffffffffffffffffffffffffffffff021916908373ffffffffffffffffffffffffffffffffffffffff1602179055503460015f3373ffffffffffffffffffffffffffffffffffffffff1673ffffffffffffffffffffffffffffffffffffffff1681526020019081526020015f205461048b919061098a565b60015f3373ffffffffffffffffffffffffffffffffffffffff1673ffffffffffffffffffffffffffffffffffffffff1681526020019081526020015f2081905550565b7f000000000000000000000000000000000000000000000000000000000000000081565b5f8181548110610500575f80fd5b905f5260205f20015f915054906101000a900473ffffffffffffffffffffffffffffffffffffffff1681565b5f80610536610564565b90505f670de0b6b3a7640000828561054e91906109bd565b6105589190610a2b565b90508092505050919050565b5f8073694aa1769357215de4fac081bf1f309adc32530690505f8173ffffffffffffffffffffffffffffffffffffffff1663feaf968c6040518163ffffffff1660e01b815260040160a060405180830381865afa1580156105c7573d5f803e3d5ffd5b505050506040513d601f19601f820116820180604052508101906105eb9190610ae1565b5050509150506402540be400816106029190610b58565b9250505090565b828054828255905f5260205f2090810192821561067f579160200282015b8281111561067e578251825f6101000a81548173ffffffffffffffffffffffffffffffffffffffff021916908373ffffffffffffffffffffffffffffffffffffffff16021790555091602001919060010190610627565b5b50905061068c9190610690565b5090565b5b808211156106a7575f815f905550600101610691565b5090565b5f80fd5b5f73ffffffffffffffffffffffffffffffffffffffff82169050919050565b5f6106d8826106af565b9050919050565b6106e8816106ce565b81146106f2575f80fd5b50565b5f81359050610703816106df565b92915050565b5f6020828403121561071e5761071d6106ab565b5b5f61072b848285016106f5565b91505092915050565b5f819050919050565b61074681610734565b82525050565b5f60208201905061075f5f83018461073d565b92915050565b61076e816106ce565b82525050565b5f6020820190506107875f830184610765565b92915050565b61079681610734565b81146107a0575f80fd5b50565b5f813590506107b18161078d565b92915050565b5f602082840312156107cc576107cb6106ab565b5b5f6107d9848285016107a3565b91505092915050565b7f4e487b71000000000000000000000000000000000000000000000000000000005f52603260045260245ffd5b7f4e487b71000000000000000000000000000000000000000000000000000000005f52604160045260245ffd5b5f81905092915050565b50565b5f6108545f8361083c565b915061085f82610846565b5f82019050919050565b5f61087382610849565b9150819050919050565b5f82825260208201905092915050565b7f5472616e73666572204661696c656400000000000000000000000000000000005f82015250565b5f6108c1600f8361087d565b91506108cc8261088d565b602082019050919050565b5f6020820190508181035f8301526108ee816108b5565b9050919050565b7f4e6f7420656e6f756768206574680000000000000000000000000000000000005f82015250565b5f610929600e8361087d565b9150610934826108f5565b602082019050919050565b5f6020820190508181035f8301526109568161091d565b9050919050565b7f4e487b71000000000000000000000000000000000000000000000000000000005f52601160045260245ffd5b5f61099482610734565b915061099f83610734565b92508282019050808211156109b7576109b661095d565b5b92915050565b5f6109c782610734565b91506109d283610734565b92508282026109e081610734565b915082820484148315176109f7576109f661095d565b5b5092915050565b7f4e487b71000000000000000000000000000000000000000000000000000000005f52601260045260245ffd5b5f610a3582610734565b9150610a4083610734565b925082610a5057610a4f6109fe565b5b828204905092915050565b5f69ffffffffffffffffffff82169050919050565b610a7981610a5b565b8114610a83575f80fd5b50565b5f81519050610a9481610a70565b92915050565b5f819050919050565b610aac81610a9a565b8114610ab6575f80fd5b50565b5f81519050610ac781610aa3565b92915050565b5f81519050610adb8161078d565b92915050565b5f805f805f60a08688031215610afa57610af96106ab565b5b5f610b0788828901610a86565b9550506020610b1888828901610ab9565b9450506040610b2988828901610acd565b9350506060610b3a88828901610acd565b9250506080610b4b88828901610a86565b9150509295509295909350565b5f610b6282610a9a565b9150610b6d83610a9a565b9250828202610b7b81610a9a565b91507f800000000000000000000000000000000000000000000000000000000000000084145f84121615610bb257610bb161095d565b5b8282058414831517610bc757610bc661095d565b5b509291505056fea26469706673582212209110f011f598c6d11e23cf936017d9c3ca1c91edea382040ad4aae260f43846664736f6c634300081a0033",
					"opcodes": "PUSH1 0xA0 PUSH1 0x40 MSTORE CALLVALUE DUP1 ISZERO PUSH1 0xE JUMPI PUSH0 DUP1 REVERT JUMPDEST POP CALLER PUSH20 0xFFFFFFFFFFFFFFFFFFFFFFFFFFFFFFFFFFFFFFFF AND PUSH1 0x80 DUP2 PUSH20 0xFFFFFFFFFFFFFFFFFFFFFFFFFFFFFFFFFFFFFFFF AND DUP2 MSTORE POP POP PUSH1 0x80 MLOAD PUSH2 0xC04 PUSH2 0x62 PUSH0 CODECOPY PUSH0 DUP2 DUP2 PUSH2 0x15B ADD MSTORE PUSH2 0x4D0 ADD MSTORE PUSH2 0xC04 PUSH0 RETURN INVALID PUSH1 0x80 PUSH1 0x40 MSTORE PUSH1 0x4 CALLDATASIZE LT PUSH2 0x54 JUMPI PUSH0 CALLDATALOAD PUSH1 0xE0 SHR DUP1 PUSH4 0x17611D02 EQ PUSH2 0x58 JUMPI DUP1 PUSH4 0x3CCFD60B EQ PUSH2 0x94 JUMPI DUP1 PUSH4 0x7D451480 EQ PUSH2 0xAA JUMPI DUP1 PUSH4 0xB60D4288 EQ PUSH2 0xD4 JUMPI DUP1 PUSH4 0xDBA6335F EQ PUSH2 0xDE JUMPI DUP1 PUSH4 0xDC0D3DFF EQ PUSH2 0x108 JUMPI JUMPDEST PUSH0 DUP1 REVERT JUMPDEST CALLVALUE DUP1 ISZERO PUSH2 0x63 JUMPI PUSH0 DUP1 REVERT JUMPDEST POP PUSH2 0x7E PUSH1 0x4 DUP1 CALLDATASIZE SUB DUP2 ADD SWAP1 PUSH2 0x79 SWAP2 SWAP1 PUSH2 0x709 JUMP JUMPDEST PUSH2 0x144 JUMP JUMPDEST PUSH1 0x40 MLOAD PUSH2 0x8B SWAP2 SWAP1 PUSH2 0x74C JUMP JUMPDEST PUSH1 0x40 MLOAD DUP1 SWAP2 SUB SWAP1 RETURN JUMPDEST CALLVALUE DUP1 ISZERO PUSH2 0x9F JUMPI PUSH0 DUP1 REVERT JUMPDEST POP PUSH2 0xA8 PUSH2 0x159 JUMP JUMPDEST STOP JUMPDEST CALLVALUE DUP1 ISZERO PUSH2 0xB5 JUMPI PUSH0 DUP1 REVERT JUMPDEST POP PUSH2 0xBE PUSH2 0x384 JUMP JUMPDEST PUSH1 0x40 MLOAD PUSH2 0xCB SWAP2 SWAP1 PUSH2 0x74C JUMP JUMPDEST PUSH1 0x40 MLOAD DUP1 SWAP2 SUB SWAP1 RETURN JUMPDEST PUSH2 0xDC PUSH2 0x390 JUMP JUMPDEST STOP JUMPDEST CALLVALUE DUP1 ISZERO PUSH2 0xE9 JUMPI PUSH0 DUP1 REVERT JUMPDEST POP PUSH2 0xF2 PUSH2 0x4CE JUMP JUMPDEST PUSH1 0x40 MLOAD PUSH2 0xFF SWAP2 SWAP1 PUSH2 0x774 JUMP JUMPDEST PUSH1 0x40 MLOAD DUP1 SWAP2 SUB SWAP1 RETURN JUMPDEST CALLVALUE DUP1 ISZERO PUSH2 0x113 JUMPI PUSH0 DUP1 REVERT JUMPDEST POP PUSH2 0x12E PUSH1 0x4 DUP1 CALLDATASIZE SUB DUP2 ADD SWAP1 PUSH2 0x129 SWAP2 SWAP1 PUSH2 0x7B7 JUMP JUMPDEST PUSH2 0x4F2 JUMP JUMPDEST PUSH1 0x40 MLOAD PUSH2 0x13B SWAP2 SWAP1 PUSH2 0x774 JUMP JUMPDEST PUSH1 0x40 MLOAD DUP1 SWAP2 SUB SWAP1 RETURN JUMPDEST PUSH1 0x1 PUSH1 0x20 MSTORE DUP1 PUSH0 MSTORE PUSH1 0x40 PUSH0 KECCAK256 PUSH0 SWAP2 POP SWAP1 POP SLOAD DUP2 JUMP JUMPDEST PUSH32 0x0 PUSH20 0xFFFFFFFFFFFFFFFFFFFFFFFFFFFFFFFFFFFFFFFF AND CALLER PUSH20 0xFFFFFFFFFFFFFFFFFFFFFFFFFFFFFFFFFFFFFFFF AND SUB PUSH2 0x1DE JUMPI PUSH1 0x40 MLOAD PUSH32 0x30CD747100000000000000000000000000000000000000000000000000000000 DUP2 MSTORE PUSH1 0x4 ADD PUSH1 0x40 MLOAD DUP1 SWAP2 SUB SWAP1 REVERT JUMPDEST PUSH0 JUMPDEST PUSH0 DUP1 SLOAD SWAP1 POP DUP2 LT ISZERO PUSH2 0x27A JUMPI PUSH0 DUP1 DUP3 DUP2 SLOAD DUP2 LT PUSH2 0x200 JUMPI PUSH2 0x1FF PUSH2 0x7E2 JUMP JUMPDEST JUMPDEST SWAP1 PUSH0 MSTORE PUSH1 0x20 PUSH0 KECCAK256 ADD PUSH0 SWAP1 SLOAD SWAP1 PUSH2 0x100 EXP SWAP1 DIV PUSH20 0xFFFFFFFFFFFFFFFFFFFFFFFFFFFFFFFFFFFFFFFF AND SWAP1 POP PUSH0 PUSH1 0x1 PUSH0 DUP4 PUSH20 0xFFFFFFFFFFFFFFFFFFFFFFFFFFFFFFFFFFFFFFFF AND PUSH20 0xFFFFFFFFFFFFFFFFFFFFFFFFFFFFFFFFFFFFFFFF AND DUP2 MSTORE PUSH1 0x20 ADD SWAP1 DUP2 MSTORE PUSH1 0x20 ADD PUSH0 KECCAK256 DUP2 SWAP1 SSTORE POP POP DUP1 DUP1 PUSH1 0x1 ADD SWAP2 POP POP PUSH2 0x1E0 JUMP JUMPDEST POP PUSH0 PUSH8 0xFFFFFFFFFFFFFFFF DUP2 GT ISZERO PUSH2 0x295 JUMPI PUSH2 0x294 PUSH2 0x80F JUMP JUMPDEST JUMPDEST PUSH1 0x40 MLOAD SWAP1 DUP1 DUP3 MSTORE DUP1 PUSH1 0x20 MUL PUSH1 0x20 ADD DUP3 ADD PUSH1 0x40 MSTORE DUP1 ISZERO PUSH2 0x2C3 JUMPI DUP2 PUSH1 0x20 ADD PUSH1 0x20 DUP3 MUL DUP1 CALLDATASIZE DUP4 CALLDATACOPY DUP1 DUP3 ADD SWAP2 POP POP SWAP1 POP JUMPDEST POP PUSH0 SWAP1 DUP1 MLOAD SWAP1 PUSH1 0x20 ADD SWAP1 PUSH2 0x2D8 SWAP3 SWAP2 SWAP1 PUSH2 0x609 JUMP JUMPDEST POP PUSH0 CALLER PUSH20 0xFFFFFFFFFFFFFFFFFFFFFFFFFFFFFFFFFFFFFFFF AND SELFBALANCE PUSH1 0x40 MLOAD PUSH2 0x2FE SWAP1 PUSH2 0x869 JUMP JUMPDEST PUSH0 PUSH1 0x40 MLOAD DUP1 DUP4 SUB DUP2 DUP6 DUP8 GAS CALL SWAP3 POP POP POP RETURNDATASIZE DUP1 PUSH0 DUP2 EQ PUSH2 0x338 JUMPI PUSH1 0x40 MLOAD SWAP2 POP PUSH1 0x1F NOT PUSH1 0x3F RETURNDATASIZE ADD AND DUP3 ADD PUSH1 0x40 MSTORE RETURNDATASIZE DUP3 MSTORE RETURNDATASIZE PUSH0 PUSH1 0x20 DUP5 ADD RETURNDATACOPY PUSH2 0x33D JUMP JUMPDEST PUSH1 0x60 SWAP2 POP JUMPDEST POP POP SWAP1 POP DUP1 PUSH2 0x381 JUMPI PUSH1 0x40 MLOAD PUSH32 0x8C379A000000000000000000000000000000000000000000000000000000000 DUP2 MSTORE PUSH1 0x4 ADD PUSH2 0x378 SWAP1 PUSH2 0x8D7 JUMP JUMPDEST PUSH1 0x40 MLOAD DUP1 SWAP2 SUB SWAP1 REVERT JUMPDEST POP JUMP JUMPDEST PUSH8 0x4563918244F40000 DUP2 JUMP JUMPDEST PUSH8 0x4563918244F40000 PUSH2 0x3A2 CALLVALUE PUSH2 0x52C JUMP JUMPDEST LT ISZERO PUSH2 0x3E3 JUMPI PUSH1 0x40 MLOAD PUSH32 0x8C379A000000000000000000000000000000000000000000000000000000000 DUP2 MSTORE PUSH1 0x4 ADD PUSH2 0x3DA SWAP1 PUSH2 0x93F JUMP JUMPDEST PUSH1 0x40 MLOAD DUP1 SWAP2 SUB SWAP1 REVERT JUMPDEST PUSH0 CALLER SWAP1 DUP1 PUSH1 0x1 DUP2 SLOAD ADD DUP1 DUP3 SSTORE DUP1 SWAP2 POP POP PUSH1 0x1 SWAP1 SUB SWAP1 PUSH0 MSTORE PUSH1 0x20 PUSH0 KECCAK256 ADD PUSH0 SWAP1 SWAP2 SWAP1 SWAP2 SWAP1 SWAP2 PUSH2 0x100 EXP DUP2 SLOAD DUP2 PUSH20 0xFFFFFFFFFFFFFFFFFFFFFFFFFFFFFFFFFFFFFFFF MUL NOT AND SWAP1 DUP4 PUSH20 0xFFFFFFFFFFFFFFFFFFFFFFFFFFFFFFFFFFFFFFFF AND MUL OR SWAP1 SSTORE POP CALLVALUE PUSH1 0x1 PUSH0 CALLER PUSH20 0xFFFFFFFFFFFFFFFFFFFFFFFFFFFFFFFFFFFFFFFF AND PUSH20 0xFFFFFFFFFFFFFFFFFFFFFFFFFFFFFFFFFFFFFFFF AND DUP2 MSTORE PUSH1 0x20 ADD SWAP1 DUP2 MSTORE PUSH1 0x20 ADD PUSH0 KECCAK256 SLOAD PUSH2 0x48B SWAP2 SWAP1 PUSH2 0x98A JUMP JUMPDEST PUSH1 0x1 PUSH0 CALLER PUSH20 0xFFFFFFFFFFFFFFFFFFFFFFFFFFFFFFFFFFFFFFFF AND PUSH20 0xFFFFFFFFFFFFFFFFFFFFFFFFFFFFFFFFFFFFFFFF AND DUP2 MSTORE PUSH1 0x20 ADD SWAP1 DUP2 MSTORE PUSH1 0x20 ADD PUSH0 KECCAK256 DUP2 SWAP1 SSTORE POP JUMP JUMPDEST PUSH32 0x0 DUP2 JUMP JUMPDEST PUSH0 DUP2 DUP2 SLOAD DUP2 LT PUSH2 0x500 JUMPI PUSH0 DUP1 REVERT JUMPDEST SWAP1 PUSH0 MSTORE PUSH1 0x20 PUSH0 KECCAK256 ADD PUSH0 SWAP2 POP SLOAD SWAP1 PUSH2 0x100 EXP SWAP1 DIV PUSH20 0xFFFFFFFFFFFFFFFFFFFFFFFFFFFFFFFFFFFFFFFF AND DUP2 JUMP JUMPDEST PUSH0 DUP1 PUSH2 0x536 PUSH2 0x564 JUMP JUMPDEST SWAP1 POP PUSH0 PUSH8 0xDE0B6B3A7640000 DUP3 DUP6 PUSH2 0x54E SWAP2 SWAP1 PUSH2 0x9BD JUMP JUMPDEST PUSH2 0x558 SWAP2 SWAP1 PUSH2 0xA2B JUMP JUMPDEST SWAP1 POP DUP1 SWAP3 POP POP POP SWAP2 SWAP1 POP JUMP JUMPDEST PUSH0 DUP1 PUSH20 0x694AA1769357215DE4FAC081BF1F309ADC325306 SWAP1 POP PUSH0 DUP2 PUSH20 0xFFFFFFFFFFFFFFFFFFFFFFFFFFFFFFFFFFFFFFFF AND PUSH4 0xFEAF968C PUSH1 0x40 MLOAD DUP2 PUSH4 0xFFFFFFFF AND PUSH1 0xE0 SHL DUP2 MSTORE PUSH1 0x4 ADD PUSH1 0xA0 PUSH1 0x40 MLOAD DUP1 DUP4 SUB DUP2 DUP7 GAS STATICCALL ISZERO DUP1 ISZERO PUSH2 0x5C7 JUMPI RETURNDATASIZE PUSH0 DUP1 RETURNDATACOPY RETURNDATASIZE PUSH0 REVERT JUMPDEST POP POP POP POP PUSH1 0x40 MLOAD RETURNDATASIZE PUSH1 0x1F NOT PUSH1 0x1F DUP3 ADD AND DUP3 ADD DUP1 PUSH1 0x40 MSTORE POP DUP2 ADD SWAP1 PUSH2 0x5EB SWAP2 SWAP1 PUSH2 0xAE1 JUMP JUMPDEST POP POP POP SWAP2 POP POP PUSH5 0x2540BE400 DUP2 PUSH2 0x602 SWAP2 SWAP1 PUSH2 0xB58 JUMP JUMPDEST SWAP3 POP POP POP SWAP1 JUMP JUMPDEST DUP3 DUP1 SLOAD DUP3 DUP3 SSTORE SWAP1 PUSH0 MSTORE PUSH1 0x20 PUSH0 KECCAK256 SWAP1 DUP2 ADD SWAP3 DUP3 ISZERO PUSH2 0x67F JUMPI SWAP2 PUSH1 0x20 MUL DUP3 ADD JUMPDEST DUP3 DUP2 GT ISZERO PUSH2 0x67E JUMPI DUP3 MLOAD DUP3 PUSH0 PUSH2 0x100 EXP DUP2 SLOAD DUP2 PUSH20 0xFFFFFFFFFFFFFFFFFFFFFFFFFFFFFFFFFFFFFFFF MUL NOT AND SWAP1 DUP4 PUSH20 0xFFFFFFFFFFFFFFFFFFFFFFFFFFFFFFFFFFFFFFFF AND MUL OR SWAP1 SSTORE POP SWAP2 PUSH1 0x20 ADD SWAP2 SWAP1 PUSH1 0x1 ADD SWAP1 PUSH2 0x627 JUMP JUMPDEST JUMPDEST POP SWAP1 POP PUSH2 0x68C SWAP2 SWAP1 PUSH2 0x690 JUMP JUMPDEST POP SWAP1 JUMP JUMPDEST JUMPDEST DUP1 DUP3 GT ISZERO PUSH2 0x6A7 JUMPI PUSH0 DUP2 PUSH0 SWAP1 SSTORE POP PUSH1 0x1 ADD PUSH2 0x691 JUMP JUMPDEST POP SWAP1 JUMP JUMPDEST PUSH0 DUP1 REVERT JUMPDEST PUSH0 PUSH20 0xFFFFFFFFFFFFFFFFFFFFFFFFFFFFFFFFFFFFFFFF DUP3 AND SWAP1 POP SWAP2 SWAP1 POP JUMP JUMPDEST PUSH0 PUSH2 0x6D8 DUP3 PUSH2 0x6AF JUMP JUMPDEST SWAP1 POP SWAP2 SWAP1 POP JUMP JUMPDEST PUSH2 0x6E8 DUP2 PUSH2 0x6CE JUMP JUMPDEST DUP2 EQ PUSH2 0x6F2 JUMPI PUSH0 DUP1 REVERT JUMPDEST POP JUMP JUMPDEST PUSH0 DUP2 CALLDATALOAD SWAP1 POP PUSH2 0x703 DUP2 PUSH2 0x6DF JUMP JUMPDEST SWAP3 SWAP2 POP POP JUMP JUMPDEST PUSH0 PUSH1 0x20 DUP3 DUP5 SUB SLT ISZERO PUSH2 0x71E JUMPI PUSH2 0x71D PUSH2 0x6AB JUMP JUMPDEST JUMPDEST PUSH0 PUSH2 0x72B DUP5 DUP3 DUP6 ADD PUSH2 0x6F5 JUMP JUMPDEST SWAP2 POP POP SWAP3 SWAP2 POP POP JUMP JUMPDEST PUSH0 DUP2 SWAP1 POP SWAP2 SWAP1 POP JUMP JUMPDEST PUSH2 0x746 DUP2 PUSH2 0x734 JUMP JUMPDEST DUP3 MSTORE POP POP JUMP JUMPDEST PUSH0 PUSH1 0x20 DUP3 ADD SWAP1 POP PUSH2 0x75F PUSH0 DUP4 ADD DUP5 PUSH2 0x73D JUMP JUMPDEST SWAP3 SWAP2 POP POP JUMP JUMPDEST PUSH2 0x76E DUP2 PUSH2 0x6CE JUMP JUMPDEST DUP3 MSTORE POP POP JUMP JUMPDEST PUSH0 PUSH1 0x20 DUP3 ADD SWAP1 POP PUSH2 0x787 PUSH0 DUP4 ADD DUP5 PUSH2 0x765 JUMP JUMPDEST SWAP3 SWAP2 POP POP JUMP JUMPDEST PUSH2 0x796 DUP2 PUSH2 0x734 JUMP JUMPDEST DUP2 EQ PUSH2 0x7A0 JUMPI PUSH0 DUP1 REVERT JUMPDEST POP JUMP JUMPDEST PUSH0 DUP2 CALLDATALOAD SWAP1 POP PUSH2 0x7B1 DUP2 PUSH2 0x78D JUMP JUMPDEST SWAP3 SWAP2 POP POP JUMP JUMPDEST PUSH0 PUSH1 0x20 DUP3 DUP5 SUB SLT ISZERO PUSH2 0x7CC JUMPI PUSH2 0x7CB PUSH2 0x6AB JUMP JUMPDEST JUMPDEST PUSH0 PUSH2 0x7D9 DUP5 DUP3 DUP6 ADD PUSH2 0x7A3 JUMP JUMPDEST SWAP2 POP POP SWAP3 SWAP2 POP POP JUMP JUMPDEST PUSH32 0x4E487B7100000000000000000000000000000000000000000000000000000000 PUSH0 MSTORE PUSH1 0x32 PUSH1 0x4 MSTORE PUSH1 0x24 PUSH0 REVERT JUMPDEST PUSH32 0x4E487B7100000000000000000000000000000000000000000000000000000000 PUSH0 MSTORE PUSH1 0x41 PUSH1 0x4 MSTORE PUSH1 0x24 PUSH0 REVERT JUMPDEST PUSH0 DUP2 SWAP1 POP SWAP3 SWAP2 POP POP JUMP JUMPDEST POP JUMP JUMPDEST PUSH0 PUSH2 0x854 PUSH0 DUP4 PUSH2 0x83C JUMP JUMPDEST SWAP2 POP PUSH2 0x85F DUP3 PUSH2 0x846 JUMP JUMPDEST PUSH0 DUP3 ADD SWAP1 POP SWAP2 SWAP1 POP JUMP JUMPDEST PUSH0 PUSH2 0x873 DUP3 PUSH2 0x849 JUMP JUMPDEST SWAP2 POP DUP2 SWAP1 POP SWAP2 SWAP1 POP JUMP JUMPDEST PUSH0 DUP3 DUP3 MSTORE PUSH1 0x20 DUP3 ADD SWAP1 POP SWAP3 SWAP2 POP POP JUMP JUMPDEST PUSH32 0x5472616E73666572204661696C65640000000000000000000000000000000000 PUSH0 DUP3 ADD MSTORE POP JUMP JUMPDEST PUSH0 PUSH2 0x8C1 PUSH1 0xF DUP4 PUSH2 0x87D JUMP JUMPDEST SWAP2 POP PUSH2 0x8CC DUP3 PUSH2 0x88D JUMP JUMPDEST PUSH1 0x20 DUP3 ADD SWAP1 POP SWAP2 SWAP1 POP JUMP JUMPDEST PUSH0 PUSH1 0x20 DUP3 ADD SWAP1 POP DUP2 DUP2 SUB PUSH0 DUP4 ADD MSTORE PUSH2 0x8EE DUP2 PUSH2 0x8B5 JUMP JUMPDEST SWAP1 POP SWAP2 SWAP1 POP JUMP JUMPDEST PUSH32 0x4E6F7420656E6F75676820657468000000000000000000000000000000000000 PUSH0 DUP3 ADD MSTORE POP JUMP JUMPDEST PUSH0 PUSH2 0x929 PUSH1 0xE DUP4 PUSH2 0x87D JUMP JUMPDEST SWAP2 POP PUSH2 0x934 DUP3 PUSH2 0x8F5 JUMP JUMPDEST PUSH1 0x20 DUP3 ADD SWAP1 POP SWAP2 SWAP1 POP JUMP JUMPDEST PUSH0 PUSH1 0x20 DUP3 ADD SWAP1 POP DUP2 DUP2 SUB PUSH0 DUP4 ADD MSTORE PUSH2 0x956 DUP2 PUSH2 0x91D JUMP JUMPDEST SWAP1 POP SWAP2 SWAP1 POP JUMP JUMPDEST PUSH32 0x4E487B7100000000000000000000000000000000000000000000000000000000 PUSH0 MSTORE PUSH1 0x11 PUSH1 0x4 MSTORE PUSH1 0x24 PUSH0 REVERT JUMPDEST PUSH0 PUSH2 0x994 DUP3 PUSH2 0x734 JUMP JUMPDEST SWAP2 POP PUSH2 0x99F DUP4 PUSH2 0x734 JUMP JUMPDEST SWAP3 POP DUP3 DUP3 ADD SWAP1 POP DUP1 DUP3 GT ISZERO PUSH2 0x9B7 JUMPI PUSH2 0x9B6 PUSH2 0x95D JUMP JUMPDEST JUMPDEST SWAP3 SWAP2 POP POP JUMP JUMPDEST PUSH0 PUSH2 0x9C7 DUP3 PUSH2 0x734 JUMP JUMPDEST SWAP2 POP PUSH2 0x9D2 DUP4 PUSH2 0x734 JUMP JUMPDEST SWAP3 POP DUP3 DUP3 MUL PUSH2 0x9E0 DUP2 PUSH2 0x734 JUMP JUMPDEST SWAP2 POP DUP3 DUP3 DIV DUP5 EQ DUP4 ISZERO OR PUSH2 0x9F7 JUMPI PUSH2 0x9F6 PUSH2 0x95D JUMP JUMPDEST JUMPDEST POP SWAP3 SWAP2 POP POP JUMP JUMPDEST PUSH32 0x4E487B7100000000000000000000000000000000000000000000000000000000 PUSH0 MSTORE PUSH1 0x12 PUSH1 0x4 MSTORE PUSH1 0x24 PUSH0 REVERT JUMPDEST PUSH0 PUSH2 0xA35 DUP3 PUSH2 0x734 JUMP JUMPDEST SWAP2 POP PUSH2 0xA40 DUP4 PUSH2 0x734 JUMP JUMPDEST SWAP3 POP DUP3 PUSH2 0xA50 JUMPI PUSH2 0xA4F PUSH2 0x9FE JUMP JUMPDEST JUMPDEST DUP3 DUP3 DIV SWAP1 POP SWAP3 SWAP2 POP POP JUMP JUMPDEST PUSH0 PUSH10 0xFFFFFFFFFFFFFFFFFFFF DUP3 AND SWAP1 POP SWAP2 SWAP1 POP JUMP JUMPDEST PUSH2 0xA79 DUP2 PUSH2 0xA5B JUMP JUMPDEST DUP2 EQ PUSH2 0xA83 JUMPI PUSH0 DUP1 REVERT JUMPDEST POP JUMP JUMPDEST PUSH0 DUP2 MLOAD SWAP1 POP PUSH2 0xA94 DUP2 PUSH2 0xA70 JUMP JUMPDEST SWAP3 SWAP2 POP POP JUMP JUMPDEST PUSH0 DUP2 SWAP1 POP SWAP2 SWAP1 POP JUMP JUMPDEST PUSH2 0xAAC DUP2 PUSH2 0xA9A JUMP JUMPDEST DUP2 EQ PUSH2 0xAB6 JUMPI PUSH0 DUP1 REVERT JUMPDEST POP JUMP JUMPDEST PUSH0 DUP2 MLOAD SWAP1 POP PUSH2 0xAC7 DUP2 PUSH2 0xAA3 JUMP JUMPDEST SWAP3 SWAP2 POP POP JUMP JUMPDEST PUSH0 DUP2 MLOAD SWAP1 POP PUSH2 0xADB DUP2 PUSH2 0x78D JUMP JUMPDEST SWAP3 SWAP2 POP POP JUMP JUMPDEST PUSH0 DUP1 PUSH0 DUP1 PUSH0 PUSH1 0xA0 DUP7 DUP9 SUB SLT ISZERO PUSH2 0xAFA JUMPI PUSH2 0xAF9 PUSH2 0x6AB JUMP JUMPDEST JUMPDEST PUSH0 PUSH2 0xB07 DUP9 DUP3 DUP10 ADD PUSH2 0xA86 JUMP JUMPDEST SWAP6 POP POP PUSH1 0x20 PUSH2 0xB18 DUP9 DUP3 DUP10 ADD PUSH2 0xAB9 JUMP JUMPDEST SWAP5 POP POP PUSH1 0x40 PUSH2 0xB29 DUP9 DUP3 DUP10 ADD PUSH2 0xACD JUMP JUMPDEST SWAP4 POP POP PUSH1 0x60 PUSH2 0xB3A DUP9 DUP3 DUP10 ADD PUSH2 0xACD JUMP JUMPDEST SWAP3 POP POP PUSH1 0x80 PUSH2 0xB4B DUP9 DUP3 DUP10 ADD PUSH2 0xA86 JUMP JUMPDEST SWAP2 POP POP SWAP3 SWAP6 POP SWAP3 SWAP6 SWAP1 SWAP4 POP JUMP JUMPDEST PUSH0 PUSH2 0xB62 DUP3 PUSH2 0xA9A JUMP JUMPDEST SWAP2 POP PUSH2 0xB6D DUP4 PUSH2 0xA9A JUMP JUMPDEST SWAP3 POP DUP3 DUP3 MUL PUSH2 0xB7B DUP2 PUSH2 0xA9A JUMP JUMPDEST SWAP2 POP PUSH32 0x8000000000000000000000000000000000000000000000000000000000000000 DUP5 EQ PUSH0 DUP5 SLT AND ISZERO PUSH2 0xBB2 JUMPI PUSH2 0xBB1 PUSH2 0x95D JUMP JUMPDEST JUMPDEST DUP3 DUP3 SDIV DUP5 EQ DUP4 ISZERO OR PUSH2 0xBC7 JUMPI PUSH2 0xBC6 PUSH2 0x95D JUMP JUMPDEST JUMPDEST POP SWAP3 SWAP2 POP POP JUMP INVALID LOG2 PUSH5 0x6970667358 0x22 SLT KECCAK256 SWAP2 LT CREATE GT CREATE2 SWAP9 0xC6 0xD1 0x1E 0x23 0xCF SWAP4 PUSH1 0x17 0xD9 0xC3 0xCA SHR SWAP2 0xED 0xEA CODESIZE KECCAK256 BLOCKHASH 0xAD BLOBBASEFEE 0xAE 0x26 0xF NUMBER DUP5 PUSH7 0x64736F6C634300 ADDMOD BYTE STOP CALLER "
				},
				"gasEstimates": {
					"creation": {
						"codeDepositCost": "615200",
						"executionCost": "infinite",
						"totalCost": "infinite"
					},
					"external": {
						"MINIMUMUSD()": "347",
						"fund()": "infinite",
						"funders(uint256)": "5031",
						"fundersAndAmounts(address)": "2780",
						"i_owner()": "infinite",
						"withdraw()": "infinite"
					}
				},
				"methodIdentifiers": {
					"MINIMUMUSD()": "7d451480",
					"fund()": "b60d4288",
					"funders(uint256)": "dc0d3dff",
					"fundersAndAmounts(address)": "17611d02",
					"i_owner()": "dba6335f",
					"withdraw()": "3ccfd60b"
				}
			},
			"storageLayout": {
				"storage": [
					{
						"astId": 62,
						"contract": "Contracts/FundMe.sol:FundMe",
						"label": "funders",
						"offset": 0,
						"slot": "0",
						"type": "t_array(t_address)dyn_storage"
					},
					{
						"astId": 66,
						"contract": "Contracts/FundMe.sol:FundMe",
						"label": "fundersAndAmounts",
						"offset": 0,
						"slot": "1",
						"type": "t_mapping(t_address,t_uint256)"
					}
				],
				"types": {
					"t_address": {
						"encoding": "inplace",
						"label": "address",
						"numberOfBytes": "20"
					},
					"t_array(t_address)dyn_storage": {
						"base": "t_address",
						"encoding": "dynamic_array",
						"label": "address[]",
						"numberOfBytes": "32"
					},
					"t_mapping(t_address,t_uint256)": {
						"encoding": "mapping",
						"key": "t_address",
						"label": "mapping(address => uint256)",
						"numberOfBytes": "32",
						"value": "t_uint256"
					},
					"t_uint256": {
						"encoding": "inplace",
						"label": "uint256",
						"numberOfBytes": "32"
					}
				}
			},
			"userdoc": {
				"kind": "user",
				"methods": {},
				"version": 1
			}
		}
	}
}