{
	"contracts/TokenSale.sol": {
		"UnpaidCoinSale": {
			"abi": [
				{
					"stateMutability": "payable",
					"type": "fallback"
				},
				{
					"inputs": [
						{
							"internalType": "uint256",
							"name": "",
							"type": "uint256"
						}
					],
					"name": "buyers",
					"outputs": [
						{
							"internalType": "address",
							"name": "",
							"type": "address"
						}
					],
					"stateMutability": "view",
					"type": "function"
				},
				{
					"inputs": [
						{
							"internalType": "address",
							"name": "",
							"type": "address"
						}
					],
					"name": "buyersToUCAmount",
					"outputs": [
						{
							"internalType": "uint256",
							"name": "",
							"type": "uint256"
						}
					],
					"stateMutability": "view",
					"type": "function"
				},
				{
					"inputs": [],
					"name": "fund",
					"outputs": [],
					"stateMutability": "payable",
					"type": "function"
				},
				{
					"inputs": [],
					"name": "totalSupply",
					"outputs": [
						{
							"internalType": "uint256",
							"name": "",
							"type": "uint256"
						}
					],
					"stateMutability": "view",
					"type": "function"
				},
				{
					"stateMutability": "payable",
					"type": "receive"
				}
			],
			"devdoc": {
				"kind": "dev",
				"methods": {},
				"version": 1
			},
			"evm": {
				"assembly": "    /* \"contracts/TokenSale.sol\":63:1596  contract UnpaidCoinSale {... */\n  mstore(0x40, 0x80)\n    /* \"contracts/TokenSale.sol\":138:147  250000e18 */\n  0x34f086f3b33b68400000\n    /* \"contracts/TokenSale.sol\":109:147  uint256 public totalSupply = 250000e18 */\n  0x00\n  sstore\n    /* \"contracts/TokenSale.sol\":63:1596  contract UnpaidCoinSale {... */\n  callvalue\n  dup1\n  iszero\n  tag_1\n  jumpi\n  0x00\n  dup1\n  revert\ntag_1:\n  pop\n  dataSize(sub_0)\n  dup1\n  dataOffset(sub_0)\n  0x00\n  codecopy\n  0x00\n  return\nstop\n\nsub_0: assembly {\n        /* \"contracts/TokenSale.sol\":63:1596  contract UnpaidCoinSale {... */\n      mstore(0x40, 0x80)\n      jumpi(tag_1, lt(calldatasize, 0x04))\n      shr(0xe0, calldataload(0x00))\n      dup1\n      0x18160ddd\n      eq\n      tag_3\n      jumpi\n      dup1\n      0xa9aa1476\n      eq\n      tag_4\n      jumpi\n      dup1\n      0xb60d4288\n      eq\n      tag_5\n      jumpi\n      dup1\n      0xf2aa8218\n      eq\n      tag_6\n      jumpi\n      jump(tag_2)\n    tag_1:\n      jumpi(tag_2, calldatasize)\n        /* \"contracts/TokenSale.sol\":1514:1520  fund() */\n      tag_9\n        /* \"contracts/TokenSale.sol\":1514:1518  fund */\n      tag_10\n        /* \"contracts/TokenSale.sol\":1514:1520  fund() */\n      jump\t// in\n    tag_9:\n        /* \"contracts/TokenSale.sol\":63:1596  contract UnpaidCoinSale {... */\n      stop\n    tag_2:\n        /* \"contracts/TokenSale.sol\":1576:1582  fund() */\n      tag_13\n        /* \"contracts/TokenSale.sol\":1576:1580  fund */\n      tag_10\n        /* \"contracts/TokenSale.sol\":1576:1582  fund() */\n      jump\t// in\n    tag_13:\n        /* \"contracts/TokenSale.sol\":63:1596  contract UnpaidCoinSale {... */\n      stop\n        /* \"contracts/TokenSale.sol\":109:147  uint256 public totalSupply = 250000e18 */\n    tag_3:\n      callvalue\n      dup1\n      iszero\n      tag_14\n      jumpi\n      0x00\n      dup1\n      revert\n    tag_14:\n      pop\n      tag_15\n      tag_16\n      jump\t// in\n    tag_15:\n      mload(0x40)\n      tag_17\n      swap2\n      swap1\n      tag_18\n      jump\t// in\n    tag_17:\n      mload(0x40)\n      dup1\n      swap2\n      sub\n      swap1\n      return\n        /* \"contracts/TokenSale.sol\":254:306  mapping (address => uint256) public buyersToUCAmount */\n    tag_4:\n      callvalue\n      dup1\n      iszero\n      tag_19\n      jumpi\n      0x00\n      dup1\n      revert\n    tag_19:\n      pop\n      tag_20\n      0x04\n      dup1\n      calldatasize\n      sub\n      dup2\n      add\n      swap1\n      tag_21\n      swap2\n      swap1\n      tag_22\n      jump\t// in\n    tag_21:\n      tag_23\n      jump\t// in\n    tag_20:\n      mload(0x40)\n      tag_24\n      swap2\n      swap1\n      tag_18\n      jump\t// in\n    tag_24:\n      mload(0x40)\n      dup1\n      swap2\n      sub\n      swap1\n      return\n        /* \"contracts/TokenSale.sol\":363:653  function fund() public payable {... */\n    tag_5:\n      tag_25\n      tag_10\n      jump\t// in\n    tag_25:\n      stop\n        /* \"contracts/TokenSale.sol\":224:247  address[] public buyers */\n    tag_6:\n      callvalue\n      dup1\n      iszero\n      tag_26\n      jumpi\n      0x00\n      dup1\n      revert\n    tag_26:\n      pop\n      tag_27\n      0x04\n      dup1\n      calldatasize\n      sub\n      dup2\n      add\n      swap1\n      tag_28\n      swap2\n      swap1\n      tag_29\n      jump\t// in\n    tag_28:\n      tag_30\n      jump\t// in\n    tag_27:\n      mload(0x40)\n      tag_31\n      swap2\n      swap1\n      tag_32\n      jump\t// in\n    tag_31:\n      mload(0x40)\n      dup1\n      swap2\n      sub\n      swap1\n      return\n        /* \"contracts/TokenSale.sol\":363:653  function fund() public payable {... */\n    tag_10:\n        /* \"contracts/TokenSale.sol\":425:426  0 */\n      0x00\n        /* \"contracts/TokenSale.sol\":413:422  msg.value */\n      callvalue\n        /* \"contracts/TokenSale.sol\":413:426  msg.value > 0 */\n      gt\n        /* \"contracts/TokenSale.sol\":405:450  require(msg.value > 0, \"Not enough Eth Sent\") */\n      tag_34\n      jumpi\n      mload(0x40)\n      0x08c379a000000000000000000000000000000000000000000000000000000000\n      dup2\n      mstore\n      0x04\n      add\n      tag_35\n      swap1\n      tag_36\n      jump\t// in\n    tag_35:\n      mload(0x40)\n      dup1\n      swap2\n      sub\n      swap1\n      revert\n    tag_34:\n        /* \"contracts/TokenSale.sol\":461:467  buyers */\n      0x03\n        /* \"contracts/TokenSale.sol\":473:483  msg.sender */\n      caller\n        /* \"contracts/TokenSale.sol\":461:484  buyers.push(msg.sender) */\n      swap1\n      dup1\n      0x01\n      dup2\n      sload\n      add\n      dup1\n      dup3\n      sstore\n      dup1\n      swap2\n      pop\n      pop\n      0x01\n      swap1\n      sub\n      swap1\n      0x00\n      mstore\n      keccak256(0x00, 0x20)\n      add\n      0x00\n      swap1\n      swap2\n      swap1\n      swap2\n      swap1\n      swap2\n      0x0100\n      exp\n      dup2\n      sload\n      dup2\n      0xffffffffffffffffffffffffffffffffffffffff\n      mul\n      not\n      and\n      swap1\n      dup4\n      0xffffffffffffffffffffffffffffffffffffffff\n      and\n      mul\n      or\n      swap1\n      sstore\n      pop\n        /* \"contracts/TokenSale.sol\":507:516  msg.value */\n      callvalue\n        /* \"contracts/TokenSale.sol\":495:504  ethAmount */\n      0x01\n        /* \"contracts/TokenSale.sol\":495:516  ethAmount = msg.value */\n      dup2\n      swap1\n      sstore\n      pop\n        /* \"contracts/TokenSale.sol\":558:583  conversionRate(ethAmount) */\n      tag_38\n        /* \"contracts/TokenSale.sol\":573:582  ethAmount */\n      sload(0x01)\n        /* \"contracts/TokenSale.sol\":558:572  conversionRate */\n      tag_39\n        /* \"contracts/TokenSale.sol\":558:583  conversionRate(ethAmount) */\n      jump\t// in\n    tag_38:\n        /* \"contracts/TokenSale.sol\":527:543  buyersToUCAmount */\n      0x04\n        /* \"contracts/TokenSale.sol\":527:555  buyersToUCAmount[msg.sender] */\n      0x00\n        /* \"contracts/TokenSale.sol\":544:554  msg.sender */\n      caller\n        /* \"contracts/TokenSale.sol\":527:555  buyersToUCAmount[msg.sender] */\n      0xffffffffffffffffffffffffffffffffffffffff\n      and\n      0xffffffffffffffffffffffffffffffffffffffff\n      and\n      dup2\n      mstore\n      0x20\n      add\n      swap1\n      dup2\n      mstore\n      0x20\n      add\n      0x00\n      keccak256\n        /* \"contracts/TokenSale.sol\":527:583  buyersToUCAmount[msg.sender] = conversionRate(ethAmount) */\n      dup2\n      swap1\n      sstore\n      pop\n        /* \"contracts/TokenSale.sol\":609:618  ethAmount */\n      sload(0x01)\n        /* \"contracts/TokenSale.sol\":594:605  totalRaised */\n      0x02\n      0x00\n        /* \"contracts/TokenSale.sol\":594:618  totalRaised += ethAmount */\n      dup3\n      dup3\n      sload\n      tag_40\n      swap2\n      swap1\n      tag_41\n      jump\t// in\n    tag_40:\n      swap3\n      pop\n      pop\n      dup2\n      swap1\n      sstore\n      pop\n        /* \"contracts/TokenSale.sol\":629:645  tokenDisbursal() */\n      tag_42\n        /* \"contracts/TokenSale.sol\":629:643  tokenDisbursal */\n      tag_43\n        /* \"contracts/TokenSale.sol\":629:645  tokenDisbursal() */\n      jump\t// in\n    tag_42:\n        /* \"contracts/TokenSale.sol\":363:653  function fund() public payable {... */\n      jump\t// out\n        /* \"contracts/TokenSale.sol\":109:147  uint256 public totalSupply = 250000e18 */\n    tag_16:\n      sload(0x00)\n      dup2\n      jump\t// out\n        /* \"contracts/TokenSale.sol\":254:306  mapping (address => uint256) public buyersToUCAmount */\n    tag_23:\n      mstore(0x20, 0x04)\n      dup1\n      0x00\n      mstore\n      keccak256(0x00, 0x40)\n      0x00\n      swap2\n      pop\n      swap1\n      pop\n      sload\n      dup2\n      jump\t// out\n        /* \"contracts/TokenSale.sol\":224:247  address[] public buyers */\n    tag_30:\n      0x03\n      dup2\n      dup2\n      sload\n      dup2\n      lt\n      tag_44\n      jumpi\n      0x00\n      dup1\n      revert\n    tag_44:\n      swap1\n      0x00\n      mstore\n      keccak256(0x00, 0x20)\n      add\n      0x00\n      swap2\n      pop\n      sload\n      swap1\n      0x0100\n      exp\n      swap1\n      div\n      0xffffffffffffffffffffffffffffffffffffffff\n      and\n      dup2\n      jump\t// out\n        /* \"contracts/TokenSale.sol\":1173:1468  function conversionRate(uint256 amountInEth) internal pure returns(uint256) {... */\n    tag_39:\n        /* \"contracts/TokenSale.sol\":1240:1247  uint256 */\n      0x00\n        /* \"contracts/TokenSale.sol\":1335:1355  uint256 amountFunded */\n      dup1\n        /* \"contracts/TokenSale.sol\":1358:1369  amountInEth */\n      dup3\n        /* \"contracts/TokenSale.sol\":1335:1369  uint256 amountFunded = amountInEth */\n      swap1\n      pop\n        /* \"contracts/TokenSale.sol\":1381:1399  uint256 amountInUc */\n      0x00\n        /* \"contracts/TokenSale.sol\":1428:1432  1e18 */\n      0x0de0b6b3a7640000\n        /* \"contracts/TokenSale.sol\":1418:1424  100e18 */\n      0x056bc75e2d63100000\n        /* \"contracts/TokenSale.sol\":1403:1415  amountFunded */\n      dup4\n        /* \"contracts/TokenSale.sol\":1403:1424  amountFunded * 100e18 */\n      tag_47\n      swap2\n      swap1\n      tag_48\n      jump\t// in\n    tag_47:\n        /* \"contracts/TokenSale.sol\":1402:1432  (amountFunded * 100e18) / 1e18 */\n      tag_49\n      swap2\n      swap1\n      tag_50\n      jump\t// in\n    tag_49:\n        /* \"contracts/TokenSale.sol\":1381:1432  uint256 amountInUc = (amountFunded * 100e18) / 1e18 */\n      swap1\n      pop\n        /* \"contracts/TokenSale.sol\":1450:1460  amountInUc */\n      dup1\n        /* \"contracts/TokenSale.sol\":1443:1460  return amountInUc */\n      swap3\n      pop\n      pop\n      pop\n        /* \"contracts/TokenSale.sol\":1173:1468  function conversionRate(uint256 amountInEth) internal pure returns(uint256) {... */\n      swap2\n      swap1\n      pop\n      jump\t// out\n        /* \"contracts/TokenSale.sol\":978:1165  function tokenDisbursal() internal {... */\n    tag_43:\n        /* \"contracts/TokenSale.sol\":1047:1072  conversionRate(ethAmount) */\n      tag_52\n        /* \"contracts/TokenSale.sol\":1062:1071  ethAmount */\n      sload(0x01)\n        /* \"contracts/TokenSale.sol\":1047:1061  conversionRate */\n      tag_39\n        /* \"contracts/TokenSale.sol\":1047:1072  conversionRate(ethAmount) */\n      jump\t// in\n    tag_52:\n        /* \"contracts/TokenSale.sol\":1032:1043  totalSupply */\n      sload(0x00)\n        /* \"contracts/TokenSale.sol\":1032:1072  totalSupply >= conversionRate(ethAmount) */\n      lt\n      iszero\n        /* \"contracts/TokenSale.sol\":1024:1092  require(totalSupply >= conversionRate(ethAmount), \"Token Exhausted\") */\n      tag_53\n      jumpi\n      mload(0x40)\n      0x08c379a000000000000000000000000000000000000000000000000000000000\n      dup2\n      mstore\n      0x04\n      add\n      tag_54\n      swap1\n      tag_55\n      jump\t// in\n    tag_54:\n      mload(0x40)\n      dup1\n      swap2\n      sub\n      swap1\n      revert\n    tag_53:\n        /* \"contracts/TokenSale.sol\":1132:1157  conversionRate(ethAmount) */\n      tag_56\n        /* \"contracts/TokenSale.sol\":1147:1156  ethAmount */\n      sload(0x01)\n        /* \"contracts/TokenSale.sol\":1132:1146  conversionRate */\n      tag_39\n        /* \"contracts/TokenSale.sol\":1132:1157  conversionRate(ethAmount) */\n      jump\t// in\n    tag_56:\n        /* \"contracts/TokenSale.sol\":1118:1129  totalSupply */\n      sload(0x00)\n        /* \"contracts/TokenSale.sol\":1118:1157  totalSupply - conversionRate(ethAmount) */\n      tag_57\n      swap2\n      swap1\n      tag_58\n      jump\t// in\n    tag_57:\n        /* \"contracts/TokenSale.sol\":1104:1115  totalSupply */\n      0x00\n        /* \"contracts/TokenSale.sol\":1104:1157  totalSupply = totalSupply - conversionRate(ethAmount) */\n      dup2\n      swap1\n      sstore\n      pop\n        /* \"contracts/TokenSale.sol\":978:1165  function tokenDisbursal() internal {... */\n      jump\t// out\n        /* \"#utility.yul\":7:84   */\n    tag_59:\n        /* \"#utility.yul\":44:51   */\n      0x00\n        /* \"#utility.yul\":73:78   */\n      dup2\n        /* \"#utility.yul\":62:78   */\n      swap1\n      pop\n        /* \"#utility.yul\":7:84   */\n      swap2\n      swap1\n      pop\n      jump\t// out\n        /* \"#utility.yul\":90:208   */\n    tag_60:\n        /* \"#utility.yul\":177:201   */\n      tag_81\n        /* \"#utility.yul\":195:200   */\n      dup2\n        /* \"#utility.yul\":177:201   */\n      tag_59\n      jump\t// in\n    tag_81:\n        /* \"#utility.yul\":172:175   */\n      dup3\n        /* \"#utility.yul\":165:202   */\n      mstore\n        /* \"#utility.yul\":90:208   */\n      pop\n      pop\n      jump\t// out\n        /* \"#utility.yul\":214:436   */\n    tag_18:\n        /* \"#utility.yul\":307:311   */\n      0x00\n        /* \"#utility.yul\":345:347   */\n      0x20\n        /* \"#utility.yul\":334:343   */\n      dup3\n        /* \"#utility.yul\":330:348   */\n      add\n        /* \"#utility.yul\":322:348   */\n      swap1\n      pop\n        /* \"#utility.yul\":358:429   */\n      tag_83\n        /* \"#utility.yul\":426:427   */\n      0x00\n        /* \"#utility.yul\":415:424   */\n      dup4\n        /* \"#utility.yul\":411:428   */\n      add\n        /* \"#utility.yul\":402:408   */\n      dup5\n        /* \"#utility.yul\":358:429   */\n      tag_60\n      jump\t// in\n    tag_83:\n        /* \"#utility.yul\":214:436   */\n      swap3\n      swap2\n      pop\n      pop\n      jump\t// out\n        /* \"#utility.yul\":523:640   */\n    tag_62:\n        /* \"#utility.yul\":632:633   */\n      0x00\n        /* \"#utility.yul\":629:630   */\n      dup1\n        /* \"#utility.yul\":622:634   */\n      revert\n        /* \"#utility.yul\":769:895   */\n    tag_64:\n        /* \"#utility.yul\":806:813   */\n      0x00\n        /* \"#utility.yul\":846:888   */\n      0xffffffffffffffffffffffffffffffffffffffff\n        /* \"#utility.yul\":839:844   */\n      dup3\n        /* \"#utility.yul\":835:889   */\n      and\n        /* \"#utility.yul\":824:889   */\n      swap1\n      pop\n        /* \"#utility.yul\":769:895   */\n      swap2\n      swap1\n      pop\n      jump\t// out\n        /* \"#utility.yul\":901:997   */\n    tag_65:\n        /* \"#utility.yul\":938:945   */\n      0x00\n        /* \"#utility.yul\":967:991   */\n      tag_89\n        /* \"#utility.yul\":985:990   */\n      dup3\n        /* \"#utility.yul\":967:991   */\n      tag_64\n      jump\t// in\n    tag_89:\n        /* \"#utility.yul\":956:991   */\n      swap1\n      pop\n        /* \"#utility.yul\":901:997   */\n      swap2\n      swap1\n      pop\n      jump\t// out\n        /* \"#utility.yul\":1003:1125   */\n    tag_66:\n        /* \"#utility.yul\":1076:1100   */\n      tag_91\n        /* \"#utility.yul\":1094:1099   */\n      dup2\n        /* \"#utility.yul\":1076:1100   */\n      tag_65\n      jump\t// in\n    tag_91:\n        /* \"#utility.yul\":1069:1074   */\n      dup2\n        /* \"#utility.yul\":1066:1101   */\n      eq\n        /* \"#utility.yul\":1056:1119   */\n      tag_92\n      jumpi\n        /* \"#utility.yul\":1115:1116   */\n      0x00\n        /* \"#utility.yul\":1112:1113   */\n      dup1\n        /* \"#utility.yul\":1105:1117   */\n      revert\n        /* \"#utility.yul\":1056:1119   */\n    tag_92:\n        /* \"#utility.yul\":1003:1125   */\n      pop\n      jump\t// out\n        /* \"#utility.yul\":1131:1270   */\n    tag_67:\n        /* \"#utility.yul\":1177:1182   */\n      0x00\n        /* \"#utility.yul\":1215:1221   */\n      dup2\n        /* \"#utility.yul\":1202:1222   */\n      calldataload\n        /* \"#utility.yul\":1193:1222   */\n      swap1\n      pop\n        /* \"#utility.yul\":1231:1264   */\n      tag_94\n        /* \"#utility.yul\":1258:1263   */\n      dup2\n        /* \"#utility.yul\":1231:1264   */\n      tag_66\n      jump\t// in\n    tag_94:\n        /* \"#utility.yul\":1131:1270   */\n      swap3\n      swap2\n      pop\n      pop\n      jump\t// out\n        /* \"#utility.yul\":1276:1605   */\n    tag_22:\n        /* \"#utility.yul\":1335:1341   */\n      0x00\n        /* \"#utility.yul\":1384:1386   */\n      0x20\n        /* \"#utility.yul\":1372:1381   */\n      dup3\n        /* \"#utility.yul\":1363:1370   */\n      dup5\n        /* \"#utility.yul\":1359:1382   */\n      sub\n        /* \"#utility.yul\":1355:1387   */\n      slt\n        /* \"#utility.yul\":1352:1471   */\n      iszero\n      tag_96\n      jumpi\n        /* \"#utility.yul\":1390:1469   */\n      tag_97\n      tag_62\n      jump\t// in\n    tag_97:\n        /* \"#utility.yul\":1352:1471   */\n    tag_96:\n        /* \"#utility.yul\":1510:1511   */\n      0x00\n        /* \"#utility.yul\":1535:1588   */\n      tag_98\n        /* \"#utility.yul\":1580:1587   */\n      dup5\n        /* \"#utility.yul\":1571:1577   */\n      dup3\n        /* \"#utility.yul\":1560:1569   */\n      dup6\n        /* \"#utility.yul\":1556:1578   */\n      add\n        /* \"#utility.yul\":1535:1588   */\n      tag_67\n      jump\t// in\n    tag_98:\n        /* \"#utility.yul\":1525:1588   */\n      swap2\n      pop\n        /* \"#utility.yul\":1481:1598   */\n      pop\n        /* \"#utility.yul\":1276:1605   */\n      swap3\n      swap2\n      pop\n      pop\n      jump\t// out\n        /* \"#utility.yul\":1611:1733   */\n    tag_68:\n        /* \"#utility.yul\":1684:1708   */\n      tag_100\n        /* \"#utility.yul\":1702:1707   */\n      dup2\n        /* \"#utility.yul\":1684:1708   */\n      tag_59\n      jump\t// in\n    tag_100:\n        /* \"#utility.yul\":1677:1682   */\n      dup2\n        /* \"#utility.yul\":1674:1709   */\n      eq\n        /* \"#utility.yul\":1664:1727   */\n      tag_101\n      jumpi\n        /* \"#utility.yul\":1723:1724   */\n      0x00\n        /* \"#utility.yul\":1720:1721   */\n      dup1\n        /* \"#utility.yul\":1713:1725   */\n      revert\n        /* \"#utility.yul\":1664:1727   */\n    tag_101:\n        /* \"#utility.yul\":1611:1733   */\n      pop\n      jump\t// out\n        /* \"#utility.yul\":1739:1878   */\n    tag_69:\n        /* \"#utility.yul\":1785:1790   */\n      0x00\n        /* \"#utility.yul\":1823:1829   */\n      dup2\n        /* \"#utility.yul\":1810:1830   */\n      calldataload\n        /* \"#utility.yul\":1801:1830   */\n      swap1\n      pop\n        /* \"#utility.yul\":1839:1872   */\n      tag_103\n        /* \"#utility.yul\":1866:1871   */\n      dup2\n        /* \"#utility.yul\":1839:1872   */\n      tag_68\n      jump\t// in\n    tag_103:\n        /* \"#utility.yul\":1739:1878   */\n      swap3\n      swap2\n      pop\n      pop\n      jump\t// out\n        /* \"#utility.yul\":1884:2213   */\n    tag_29:\n        /* \"#utility.yul\":1943:1949   */\n      0x00\n        /* \"#utility.yul\":1992:1994   */\n      0x20\n        /* \"#utility.yul\":1980:1989   */\n      dup3\n        /* \"#utility.yul\":1971:1978   */\n      dup5\n        /* \"#utility.yul\":1967:1990   */\n      sub\n        /* \"#utility.yul\":1963:1995   */\n      slt\n        /* \"#utility.yul\":1960:2079   */\n      iszero\n      tag_105\n      jumpi\n        /* \"#utility.yul\":1998:2077   */\n      tag_106\n      tag_62\n      jump\t// in\n    tag_106:\n        /* \"#utility.yul\":1960:2079   */\n    tag_105:\n        /* \"#utility.yul\":2118:2119   */\n      0x00\n        /* \"#utility.yul\":2143:2196   */\n      tag_107\n        /* \"#utility.yul\":2188:2195   */\n      dup5\n        /* \"#utility.yul\":2179:2185   */\n      dup3\n        /* \"#utility.yul\":2168:2177   */\n      dup6\n        /* \"#utility.yul\":2164:2186   */\n      add\n        /* \"#utility.yul\":2143:2196   */\n      tag_69\n      jump\t// in\n    tag_107:\n        /* \"#utility.yul\":2133:2196   */\n      swap2\n      pop\n        /* \"#utility.yul\":2089:2206   */\n      pop\n        /* \"#utility.yul\":1884:2213   */\n      swap3\n      swap2\n      pop\n      pop\n      jump\t// out\n        /* \"#utility.yul\":2219:2337   */\n    tag_70:\n        /* \"#utility.yul\":2306:2330   */\n      tag_109\n        /* \"#utility.yul\":2324:2329   */\n      dup2\n        /* \"#utility.yul\":2306:2330   */\n      tag_65\n      jump\t// in\n    tag_109:\n        /* \"#utility.yul\":2301:2304   */\n      dup3\n        /* \"#utility.yul\":2294:2331   */\n      mstore\n        /* \"#utility.yul\":2219:2337   */\n      pop\n      pop\n      jump\t// out\n        /* \"#utility.yul\":2343:2565   */\n    tag_32:\n        /* \"#utility.yul\":2436:2440   */\n      0x00\n        /* \"#utility.yul\":2474:2476   */\n      0x20\n        /* \"#utility.yul\":2463:2472   */\n      dup3\n        /* \"#utility.yul\":2459:2477   */\n      add\n        /* \"#utility.yul\":2451:2477   */\n      swap1\n      pop\n        /* \"#utility.yul\":2487:2558   */\n      tag_111\n        /* \"#utility.yul\":2555:2556   */\n      0x00\n        /* \"#utility.yul\":2544:2553   */\n      dup4\n        /* \"#utility.yul\":2540:2557   */\n      add\n        /* \"#utility.yul\":2531:2537   */\n      dup5\n        /* \"#utility.yul\":2487:2558   */\n      tag_70\n      jump\t// in\n    tag_111:\n        /* \"#utility.yul\":2343:2565   */\n      swap3\n      swap2\n      pop\n      pop\n      jump\t// out\n        /* \"#utility.yul\":2571:2740   */\n    tag_71:\n        /* \"#utility.yul\":2655:2666   */\n      0x00\n        /* \"#utility.yul\":2689:2695   */\n      dup3\n        /* \"#utility.yul\":2684:2687   */\n      dup3\n        /* \"#utility.yul\":2677:2696   */\n      mstore\n        /* \"#utility.yul\":2729:2733   */\n      0x20\n        /* \"#utility.yul\":2724:2727   */\n      dup3\n        /* \"#utility.yul\":2720:2734   */\n      add\n        /* \"#utility.yul\":2705:2734   */\n      swap1\n      pop\n        /* \"#utility.yul\":2571:2740   */\n      swap3\n      swap2\n      pop\n      pop\n      jump\t// out\n        /* \"#utility.yul\":2746:2915   */\n    tag_72:\n        /* \"#utility.yul\":2886:2907   */\n      0x4e6f7420656e6f756768204574682053656e7400000000000000000000000000\n        /* \"#utility.yul\":2882:2883   */\n      0x00\n        /* \"#utility.yul\":2874:2880   */\n      dup3\n        /* \"#utility.yul\":2870:2884   */\n      add\n        /* \"#utility.yul\":2863:2908   */\n      mstore\n        /* \"#utility.yul\":2746:2915   */\n      pop\n      jump\t// out\n        /* \"#utility.yul\":2921:3287   */\n    tag_73:\n        /* \"#utility.yul\":3063:3066   */\n      0x00\n        /* \"#utility.yul\":3084:3151   */\n      tag_115\n        /* \"#utility.yul\":3148:3150   */\n      0x13\n        /* \"#utility.yul\":3143:3146   */\n      dup4\n        /* \"#utility.yul\":3084:3151   */\n      tag_71\n      jump\t// in\n    tag_115:\n        /* \"#utility.yul\":3077:3151   */\n      swap2\n      pop\n        /* \"#utility.yul\":3160:3253   */\n      tag_116\n        /* \"#utility.yul\":3249:3252   */\n      dup3\n        /* \"#utility.yul\":3160:3253   */\n      tag_72\n      jump\t// in\n    tag_116:\n        /* \"#utility.yul\":3278:3280   */\n      0x20\n        /* \"#utility.yul\":3273:3276   */\n      dup3\n        /* \"#utility.yul\":3269:3281   */\n      add\n        /* \"#utility.yul\":3262:3281   */\n      swap1\n      pop\n        /* \"#utility.yul\":2921:3287   */\n      swap2\n      swap1\n      pop\n      jump\t// out\n        /* \"#utility.yul\":3293:3712   */\n    tag_36:\n        /* \"#utility.yul\":3459:3463   */\n      0x00\n        /* \"#utility.yul\":3497:3499   */\n      0x20\n        /* \"#utility.yul\":3486:3495   */\n      dup3\n        /* \"#utility.yul\":3482:3500   */\n      add\n        /* \"#utility.yul\":3474:3500   */\n      swap1\n      pop\n        /* \"#utility.yul\":3546:3555   */\n      dup2\n        /* \"#utility.yul\":3540:3544   */\n      dup2\n        /* \"#utility.yul\":3536:3556   */\n      sub\n        /* \"#utility.yul\":3532:3533   */\n      0x00\n        /* \"#utility.yul\":3521:3530   */\n      dup4\n        /* \"#utility.yul\":3517:3534   */\n      add\n        /* \"#utility.yul\":3510:3557   */\n      mstore\n        /* \"#utility.yul\":3574:3705   */\n      tag_118\n        /* \"#utility.yul\":3700:3704   */\n      dup2\n        /* \"#utility.yul\":3574:3705   */\n      tag_73\n      jump\t// in\n    tag_118:\n        /* \"#utility.yul\":3566:3705   */\n      swap1\n      pop\n        /* \"#utility.yul\":3293:3712   */\n      swap2\n      swap1\n      pop\n      jump\t// out\n        /* \"#utility.yul\":3718:3898   */\n    tag_74:\n        /* \"#utility.yul\":3766:3843   */\n      0x4e487b7100000000000000000000000000000000000000000000000000000000\n        /* \"#utility.yul\":3763:3764   */\n      0x00\n        /* \"#utility.yul\":3756:3844   */\n      mstore\n        /* \"#utility.yul\":3863:3867   */\n      0x11\n        /* \"#utility.yul\":3860:3861   */\n      0x04\n        /* \"#utility.yul\":3853:3868   */\n      mstore\n        /* \"#utility.yul\":3887:3891   */\n      0x24\n        /* \"#utility.yul\":3884:3885   */\n      0x00\n        /* \"#utility.yul\":3877:3892   */\n      revert\n        /* \"#utility.yul\":3904:4095   */\n    tag_41:\n        /* \"#utility.yul\":3944:3947   */\n      0x00\n        /* \"#utility.yul\":3963:3983   */\n      tag_121\n        /* \"#utility.yul\":3981:3982   */\n      dup3\n        /* \"#utility.yul\":3963:3983   */\n      tag_59\n      jump\t// in\n    tag_121:\n        /* \"#utility.yul\":3958:3983   */\n      swap2\n      pop\n        /* \"#utility.yul\":3997:4017   */\n      tag_122\n        /* \"#utility.yul\":4015:4016   */\n      dup4\n        /* \"#utility.yul\":3997:4017   */\n      tag_59\n      jump\t// in\n    tag_122:\n        /* \"#utility.yul\":3992:4017   */\n      swap3\n      pop\n        /* \"#utility.yul\":4040:4041   */\n      dup3\n        /* \"#utility.yul\":4037:4038   */\n      dup3\n        /* \"#utility.yul\":4033:4042   */\n      add\n        /* \"#utility.yul\":4026:4042   */\n      swap1\n      pop\n        /* \"#utility.yul\":4061:4064   */\n      dup1\n        /* \"#utility.yul\":4058:4059   */\n      dup3\n        /* \"#utility.yul\":4055:4065   */\n      gt\n        /* \"#utility.yul\":4052:4088   */\n      iszero\n      tag_123\n      jumpi\n        /* \"#utility.yul\":4068:4086   */\n      tag_124\n      tag_74\n      jump\t// in\n    tag_124:\n        /* \"#utility.yul\":4052:4088   */\n    tag_123:\n        /* \"#utility.yul\":3904:4095   */\n      swap3\n      swap2\n      pop\n      pop\n      jump\t// out\n        /* \"#utility.yul\":4101:4511   */\n    tag_48:\n        /* \"#utility.yul\":4141:4148   */\n      0x00\n        /* \"#utility.yul\":4164:4184   */\n      tag_126\n        /* \"#utility.yul\":4182:4183   */\n      dup3\n        /* \"#utility.yul\":4164:4184   */\n      tag_59\n      jump\t// in\n    tag_126:\n        /* \"#utility.yul\":4159:4184   */\n      swap2\n      pop\n        /* \"#utility.yul\":4198:4218   */\n      tag_127\n        /* \"#utility.yul\":4216:4217   */\n      dup4\n        /* \"#utility.yul\":4198:4218   */\n      tag_59\n      jump\t// in\n    tag_127:\n        /* \"#utility.yul\":4193:4218   */\n      swap3\n      pop\n        /* \"#utility.yul\":4253:4254   */\n      dup3\n        /* \"#utility.yul\":4250:4251   */\n      dup3\n        /* \"#utility.yul\":4246:4255   */\n      mul\n        /* \"#utility.yul\":4275:4305   */\n      tag_128\n        /* \"#utility.yul\":4293:4304   */\n      dup2\n        /* \"#utility.yul\":4275:4305   */\n      tag_59\n      jump\t// in\n    tag_128:\n        /* \"#utility.yul\":4264:4305   */\n      swap2\n      pop\n        /* \"#utility.yul\":4454:4455   */\n      dup3\n        /* \"#utility.yul\":4445:4452   */\n      dup3\n        /* \"#utility.yul\":4441:4456   */\n      div\n        /* \"#utility.yul\":4438:4439   */\n      dup5\n        /* \"#utility.yul\":4435:4457   */\n      eq\n        /* \"#utility.yul\":4415:4416   */\n      dup4\n        /* \"#utility.yul\":4408:4417   */\n      iszero\n        /* \"#utility.yul\":4388:4471   */\n      or\n        /* \"#utility.yul\":4365:4504   */\n      tag_129\n      jumpi\n        /* \"#utility.yul\":4484:4502   */\n      tag_130\n      tag_74\n      jump\t// in\n    tag_130:\n        /* \"#utility.yul\":4365:4504   */\n    tag_129:\n        /* \"#utility.yul\":4149:4511   */\n      pop\n        /* \"#utility.yul\":4101:4511   */\n      swap3\n      swap2\n      pop\n      pop\n      jump\t// out\n        /* \"#utility.yul\":4517:4697   */\n    tag_75:\n        /* \"#utility.yul\":4565:4642   */\n      0x4e487b7100000000000000000000000000000000000000000000000000000000\n        /* \"#utility.yul\":4562:4563   */\n      0x00\n        /* \"#utility.yul\":4555:4643   */\n      mstore\n        /* \"#utility.yul\":4662:4666   */\n      0x12\n        /* \"#utility.yul\":4659:4660   */\n      0x04\n        /* \"#utility.yul\":4652:4667   */\n      mstore\n        /* \"#utility.yul\":4686:4690   */\n      0x24\n        /* \"#utility.yul\":4683:4684   */\n      0x00\n        /* \"#utility.yul\":4676:4691   */\n      revert\n        /* \"#utility.yul\":4703:4888   */\n    tag_50:\n        /* \"#utility.yul\":4743:4744   */\n      0x00\n        /* \"#utility.yul\":4760:4780   */\n      tag_133\n        /* \"#utility.yul\":4778:4779   */\n      dup3\n        /* \"#utility.yul\":4760:4780   */\n      tag_59\n      jump\t// in\n    tag_133:\n        /* \"#utility.yul\":4755:4780   */\n      swap2\n      pop\n        /* \"#utility.yul\":4794:4814   */\n      tag_134\n        /* \"#utility.yul\":4812:4813   */\n      dup4\n        /* \"#utility.yul\":4794:4814   */\n      tag_59\n      jump\t// in\n    tag_134:\n        /* \"#utility.yul\":4789:4814   */\n      swap3\n      pop\n        /* \"#utility.yul\":4833:4834   */\n      dup3\n        /* \"#utility.yul\":4823:4858   */\n      tag_135\n      jumpi\n        /* \"#utility.yul\":4838:4856   */\n      tag_136\n      tag_75\n      jump\t// in\n    tag_136:\n        /* \"#utility.yul\":4823:4858   */\n    tag_135:\n        /* \"#utility.yul\":4880:4881   */\n      dup3\n        /* \"#utility.yul\":4877:4878   */\n      dup3\n        /* \"#utility.yul\":4873:4882   */\n      div\n        /* \"#utility.yul\":4868:4882   */\n      swap1\n      pop\n        /* \"#utility.yul\":4703:4888   */\n      swap3\n      swap2\n      pop\n      pop\n      jump\t// out\n        /* \"#utility.yul\":4894:5059   */\n    tag_76:\n        /* \"#utility.yul\":5034:5051   */\n      0x546f6b656e204578686175737465640000000000000000000000000000000000\n        /* \"#utility.yul\":5030:5031   */\n      0x00\n        /* \"#utility.yul\":5022:5028   */\n      dup3\n        /* \"#utility.yul\":5018:5032   */\n      add\n        /* \"#utility.yul\":5011:5052   */\n      mstore\n        /* \"#utility.yul\":4894:5059   */\n      pop\n      jump\t// out\n        /* \"#utility.yul\":5065:5431   */\n    tag_77:\n        /* \"#utility.yul\":5207:5210   */\n      0x00\n        /* \"#utility.yul\":5228:5295   */\n      tag_139\n        /* \"#utility.yul\":5292:5294   */\n      0x0f\n        /* \"#utility.yul\":5287:5290   */\n      dup4\n        /* \"#utility.yul\":5228:5295   */\n      tag_71\n      jump\t// in\n    tag_139:\n        /* \"#utility.yul\":5221:5295   */\n      swap2\n      pop\n        /* \"#utility.yul\":5304:5397   */\n      tag_140\n        /* \"#utility.yul\":5393:5396   */\n      dup3\n        /* \"#utility.yul\":5304:5397   */\n      tag_76\n      jump\t// in\n    tag_140:\n        /* \"#utility.yul\":5422:5424   */\n      0x20\n        /* \"#utility.yul\":5417:5420   */\n      dup3\n        /* \"#utility.yul\":5413:5425   */\n      add\n        /* \"#utility.yul\":5406:5425   */\n      swap1\n      pop\n        /* \"#utility.yul\":5065:5431   */\n      swap2\n      swap1\n      pop\n      jump\t// out\n        /* \"#utility.yul\":5437:5856   */\n    tag_55:\n        /* \"#utility.yul\":5603:5607   */\n      0x00\n        /* \"#utility.yul\":5641:5643   */\n      0x20\n        /* \"#utility.yul\":5630:5639   */\n      dup3\n        /* \"#utility.yul\":5626:5644   */\n      add\n        /* \"#utility.yul\":5618:5644   */\n      swap1\n      pop\n        /* \"#utility.yul\":5690:5699   */\n      dup2\n        /* \"#utility.yul\":5684:5688   */\n      dup2\n        /* \"#utility.yul\":5680:5700   */\n      sub\n        /* \"#utility.yul\":5676:5677   */\n      0x00\n        /* \"#utility.yul\":5665:5674   */\n      dup4\n        /* \"#utility.yul\":5661:5678   */\n      add\n        /* \"#utility.yul\":5654:5701   */\n      mstore\n        /* \"#utility.yul\":5718:5849   */\n      tag_142\n        /* \"#utility.yul\":5844:5848   */\n      dup2\n        /* \"#utility.yul\":5718:5849   */\n      tag_77\n      jump\t// in\n    tag_142:\n        /* \"#utility.yul\":5710:5849   */\n      swap1\n      pop\n        /* \"#utility.yul\":5437:5856   */\n      swap2\n      swap1\n      pop\n      jump\t// out\n        /* \"#utility.yul\":5862:6056   */\n    tag_58:\n        /* \"#utility.yul\":5902:5906   */\n      0x00\n        /* \"#utility.yul\":5922:5942   */\n      tag_144\n        /* \"#utility.yul\":5940:5941   */\n      dup3\n        /* \"#utility.yul\":5922:5942   */\n      tag_59\n      jump\t// in\n    tag_144:\n        /* \"#utility.yul\":5917:5942   */\n      swap2\n      pop\n        /* \"#utility.yul\":5956:5976   */\n      tag_145\n        /* \"#utility.yul\":5974:5975   */\n      dup4\n        /* \"#utility.yul\":5956:5976   */\n      tag_59\n      jump\t// in\n    tag_145:\n        /* \"#utility.yul\":5951:5976   */\n      swap3\n      pop\n        /* \"#utility.yul\":6000:6001   */\n      dup3\n        /* \"#utility.yul\":5997:5998   */\n      dup3\n        /* \"#utility.yul\":5993:6002   */\n      sub\n        /* \"#utility.yul\":5985:6002   */\n      swap1\n      pop\n        /* \"#utility.yul\":6024:6025   */\n      dup2\n        /* \"#utility.yul\":6018:6022   */\n      dup2\n        /* \"#utility.yul\":6015:6026   */\n      gt\n        /* \"#utility.yul\":6012:6049   */\n      iszero\n      tag_146\n      jumpi\n        /* \"#utility.yul\":6029:6047   */\n      tag_147\n      tag_74\n      jump\t// in\n    tag_147:\n        /* \"#utility.yul\":6012:6049   */\n    tag_146:\n        /* \"#utility.yul\":5862:6056   */\n      swap3\n      swap2\n      pop\n      pop\n      jump\t// out\n\n    auxdata: 0xa2646970667358221220e07e0a27e7330ebf00b25bdf8b98550b4415d92ab85443156472764edf3c16ff64736f6c634300081a0033\n}\n",
				"bytecode": {
					"linkReferences": {},
					"object": "60806040526934f086f3b33b684000005f55348015601b575f80fd5b50610699806100295f395ff3fe608060405260043610610042575f3560e01c806318160ddd1461005b578063a9aa147614610085578063b60d4288146100c1578063f2aa8218146100cb57610051565b366100515761004f610107565b005b610059610107565b005b348015610066575f80fd5b5061006f610220565b60405161007c9190610333565b60405180910390f35b348015610090575f80fd5b506100ab60048036038101906100a691906103aa565b610225565b6040516100b89190610333565b60405180910390f35b6100c9610107565b005b3480156100d6575f80fd5b506100f160048036038101906100ec91906103ff565b61023a565b6040516100fe9190610439565b60405180910390f35b5f3411610149576040517f08c379a0000000000000000000000000000000000000000000000000000000008152600401610140906104ac565b60405180910390fd5b600333908060018154018082558091505060019003905f5260205f20015f9091909190916101000a81548173ffffffffffffffffffffffffffffffffffffffff021916908373ffffffffffffffffffffffffffffffffffffffff160217905550346001819055506101bb600154610275565b60045f3373ffffffffffffffffffffffffffffffffffffffff1673ffffffffffffffffffffffffffffffffffffffff1681526020019081526020015f208190555060015460025f82825461020f91906104f7565b9250508190555061021e6102af565b565b5f5481565b6004602052805f5260405f205f915090505481565b60038181548110610249575f80fd5b905f5260205f20015f915054906101000a900473ffffffffffffffffffffffffffffffffffffffff1681565b5f808290505f670de0b6b3a764000068056bc75e2d6310000083610299919061052a565b6102a39190610598565b90508092505050919050565b6102ba600154610275565b5f5410156102fd576040517f08c379a00000000000000000000000000000000000000000000000000000000081526004016102f490610612565b60405180910390fd5b610308600154610275565b5f546103149190610630565b5f81905550565b5f819050919050565b61032d8161031b565b82525050565b5f6020820190506103465f830184610324565b92915050565b5f80fd5b5f73ffffffffffffffffffffffffffffffffffffffff82169050919050565b5f61037982610350565b9050919050565b6103898161036f565b8114610393575f80fd5b50565b5f813590506103a481610380565b92915050565b5f602082840312156103bf576103be61034c565b5b5f6103cc84828501610396565b91505092915050565b6103de8161031b565b81146103e8575f80fd5b50565b5f813590506103f9816103d5565b92915050565b5f602082840312156104145761041361034c565b5b5f610421848285016103eb565b91505092915050565b6104338161036f565b82525050565b5f60208201905061044c5f83018461042a565b92915050565b5f82825260208201905092915050565b7f4e6f7420656e6f756768204574682053656e74000000000000000000000000005f82015250565b5f610496601383610452565b91506104a182610462565b602082019050919050565b5f6020820190508181035f8301526104c38161048a565b9050919050565b7f4e487b71000000000000000000000000000000000000000000000000000000005f52601160045260245ffd5b5f6105018261031b565b915061050c8361031b565b9250828201905080821115610524576105236104ca565b5b92915050565b5f6105348261031b565b915061053f8361031b565b925082820261054d8161031b565b91508282048414831517610564576105636104ca565b5b5092915050565b7f4e487b71000000000000000000000000000000000000000000000000000000005f52601260045260245ffd5b5f6105a28261031b565b91506105ad8361031b565b9250826105bd576105bc61056b565b5b828204905092915050565b7f546f6b656e2045786861757374656400000000000000000000000000000000005f82015250565b5f6105fc600f83610452565b9150610607826105c8565b602082019050919050565b5f6020820190508181035f830152610629816105f0565b9050919050565b5f61063a8261031b565b91506106458361031b565b925082820390508181111561065d5761065c6104ca565b5b9291505056fea2646970667358221220e07e0a27e7330ebf00b25bdf8b98550b4415d92ab85443156472764edf3c16ff64736f6c634300081a0033",
					"opcodes": "PUSH1 0x80 PUSH1 0x40 MSTORE PUSH10 0x34F086F3B33B68400000 PUSH0 SSTORE CALLVALUE DUP1 ISZERO PUSH1 0x1B JUMPI PUSH0 DUP1 REVERT JUMPDEST POP PUSH2 0x699 DUP1 PUSH2 0x29 PUSH0 CODECOPY PUSH0 RETURN INVALID PUSH1 0x80 PUSH1 0x40 MSTORE PUSH1 0x4 CALLDATASIZE LT PUSH2 0x42 JUMPI PUSH0 CALLDATALOAD PUSH1 0xE0 SHR DUP1 PUSH4 0x18160DDD EQ PUSH2 0x5B JUMPI DUP1 PUSH4 0xA9AA1476 EQ PUSH2 0x85 JUMPI DUP1 PUSH4 0xB60D4288 EQ PUSH2 0xC1 JUMPI DUP1 PUSH4 0xF2AA8218 EQ PUSH2 0xCB JUMPI PUSH2 0x51 JUMP JUMPDEST CALLDATASIZE PUSH2 0x51 JUMPI PUSH2 0x4F PUSH2 0x107 JUMP JUMPDEST STOP JUMPDEST PUSH2 0x59 PUSH2 0x107 JUMP JUMPDEST STOP JUMPDEST CALLVALUE DUP1 ISZERO PUSH2 0x66 JUMPI PUSH0 DUP1 REVERT JUMPDEST POP PUSH2 0x6F PUSH2 0x220 JUMP JUMPDEST PUSH1 0x40 MLOAD PUSH2 0x7C SWAP2 SWAP1 PUSH2 0x333 JUMP JUMPDEST PUSH1 0x40 MLOAD DUP1 SWAP2 SUB SWAP1 RETURN JUMPDEST CALLVALUE DUP1 ISZERO PUSH2 0x90 JUMPI PUSH0 DUP1 REVERT JUMPDEST POP PUSH2 0xAB PUSH1 0x4 DUP1 CALLDATASIZE SUB DUP2 ADD SWAP1 PUSH2 0xA6 SWAP2 SWAP1 PUSH2 0x3AA JUMP JUMPDEST PUSH2 0x225 JUMP JUMPDEST PUSH1 0x40 MLOAD PUSH2 0xB8 SWAP2 SWAP1 PUSH2 0x333 JUMP JUMPDEST PUSH1 0x40 MLOAD DUP1 SWAP2 SUB SWAP1 RETURN JUMPDEST PUSH2 0xC9 PUSH2 0x107 JUMP JUMPDEST STOP JUMPDEST CALLVALUE DUP1 ISZERO PUSH2 0xD6 JUMPI PUSH0 DUP1 REVERT JUMPDEST POP PUSH2 0xF1 PUSH1 0x4 DUP1 CALLDATASIZE SUB DUP2 ADD SWAP1 PUSH2 0xEC SWAP2 SWAP1 PUSH2 0x3FF JUMP JUMPDEST PUSH2 0x23A JUMP JUMPDEST PUSH1 0x40 MLOAD PUSH2 0xFE SWAP2 SWAP1 PUSH2 0x439 JUMP JUMPDEST PUSH1 0x40 MLOAD DUP1 SWAP2 SUB SWAP1 RETURN JUMPDEST PUSH0 CALLVALUE GT PUSH2 0x149 JUMPI PUSH1 0x40 MLOAD PUSH32 0x8C379A000000000000000000000000000000000000000000000000000000000 DUP2 MSTORE PUSH1 0x4 ADD PUSH2 0x140 SWAP1 PUSH2 0x4AC JUMP JUMPDEST PUSH1 0x40 MLOAD DUP1 SWAP2 SUB SWAP1 REVERT JUMPDEST PUSH1 0x3 CALLER SWAP1 DUP1 PUSH1 0x1 DUP2 SLOAD ADD DUP1 DUP3 SSTORE DUP1 SWAP2 POP POP PUSH1 0x1 SWAP1 SUB SWAP1 PUSH0 MSTORE PUSH1 0x20 PUSH0 KECCAK256 ADD PUSH0 SWAP1 SWAP2 SWAP1 SWAP2 SWAP1 SWAP2 PUSH2 0x100 EXP DUP2 SLOAD DUP2 PUSH20 0xFFFFFFFFFFFFFFFFFFFFFFFFFFFFFFFFFFFFFFFF MUL NOT AND SWAP1 DUP4 PUSH20 0xFFFFFFFFFFFFFFFFFFFFFFFFFFFFFFFFFFFFFFFF AND MUL OR SWAP1 SSTORE POP CALLVALUE PUSH1 0x1 DUP2 SWAP1 SSTORE POP PUSH2 0x1BB PUSH1 0x1 SLOAD PUSH2 0x275 JUMP JUMPDEST PUSH1 0x4 PUSH0 CALLER PUSH20 0xFFFFFFFFFFFFFFFFFFFFFFFFFFFFFFFFFFFFFFFF AND PUSH20 0xFFFFFFFFFFFFFFFFFFFFFFFFFFFFFFFFFFFFFFFF AND DUP2 MSTORE PUSH1 0x20 ADD SWAP1 DUP2 MSTORE PUSH1 0x20 ADD PUSH0 KECCAK256 DUP2 SWAP1 SSTORE POP PUSH1 0x1 SLOAD PUSH1 0x2 PUSH0 DUP3 DUP3 SLOAD PUSH2 0x20F SWAP2 SWAP1 PUSH2 0x4F7 JUMP JUMPDEST SWAP3 POP POP DUP2 SWAP1 SSTORE POP PUSH2 0x21E PUSH2 0x2AF JUMP JUMPDEST JUMP JUMPDEST PUSH0 SLOAD DUP2 JUMP JUMPDEST PUSH1 0x4 PUSH1 0x20 MSTORE DUP1 PUSH0 MSTORE PUSH1 0x40 PUSH0 KECCAK256 PUSH0 SWAP2 POP SWAP1 POP SLOAD DUP2 JUMP JUMPDEST PUSH1 0x3 DUP2 DUP2 SLOAD DUP2 LT PUSH2 0x249 JUMPI PUSH0 DUP1 REVERT JUMPDEST SWAP1 PUSH0 MSTORE PUSH1 0x20 PUSH0 KECCAK256 ADD PUSH0 SWAP2 POP SLOAD SWAP1 PUSH2 0x100 EXP SWAP1 DIV PUSH20 0xFFFFFFFFFFFFFFFFFFFFFFFFFFFFFFFFFFFFFFFF AND DUP2 JUMP JUMPDEST PUSH0 DUP1 DUP3 SWAP1 POP PUSH0 PUSH8 0xDE0B6B3A7640000 PUSH9 0x56BC75E2D63100000 DUP4 PUSH2 0x299 SWAP2 SWAP1 PUSH2 0x52A JUMP JUMPDEST PUSH2 0x2A3 SWAP2 SWAP1 PUSH2 0x598 JUMP JUMPDEST SWAP1 POP DUP1 SWAP3 POP POP POP SWAP2 SWAP1 POP JUMP JUMPDEST PUSH2 0x2BA PUSH1 0x1 SLOAD PUSH2 0x275 JUMP JUMPDEST PUSH0 SLOAD LT ISZERO PUSH2 0x2FD JUMPI PUSH1 0x40 MLOAD PUSH32 0x8C379A000000000000000000000000000000000000000000000000000000000 DUP2 MSTORE PUSH1 0x4 ADD PUSH2 0x2F4 SWAP1 PUSH2 0x612 JUMP JUMPDEST PUSH1 0x40 MLOAD DUP1 SWAP2 SUB SWAP1 REVERT JUMPDEST PUSH2 0x308 PUSH1 0x1 SLOAD PUSH2 0x275 JUMP JUMPDEST PUSH0 SLOAD PUSH2 0x314 SWAP2 SWAP1 PUSH2 0x630 JUMP JUMPDEST PUSH0 DUP2 SWAP1 SSTORE POP JUMP JUMPDEST PUSH0 DUP2 SWAP1 POP SWAP2 SWAP1 POP JUMP JUMPDEST PUSH2 0x32D DUP2 PUSH2 0x31B JUMP JUMPDEST DUP3 MSTORE POP POP JUMP JUMPDEST PUSH0 PUSH1 0x20 DUP3 ADD SWAP1 POP PUSH2 0x346 PUSH0 DUP4 ADD DUP5 PUSH2 0x324 JUMP JUMPDEST SWAP3 SWAP2 POP POP JUMP JUMPDEST PUSH0 DUP1 REVERT JUMPDEST PUSH0 PUSH20 0xFFFFFFFFFFFFFFFFFFFFFFFFFFFFFFFFFFFFFFFF DUP3 AND SWAP1 POP SWAP2 SWAP1 POP JUMP JUMPDEST PUSH0 PUSH2 0x379 DUP3 PUSH2 0x350 JUMP JUMPDEST SWAP1 POP SWAP2 SWAP1 POP JUMP JUMPDEST PUSH2 0x389 DUP2 PUSH2 0x36F JUMP JUMPDEST DUP2 EQ PUSH2 0x393 JUMPI PUSH0 DUP1 REVERT JUMPDEST POP JUMP JUMPDEST PUSH0 DUP2 CALLDATALOAD SWAP1 POP PUSH2 0x3A4 DUP2 PUSH2 0x380 JUMP JUMPDEST SWAP3 SWAP2 POP POP JUMP JUMPDEST PUSH0 PUSH1 0x20 DUP3 DUP5 SUB SLT ISZERO PUSH2 0x3BF JUMPI PUSH2 0x3BE PUSH2 0x34C JUMP JUMPDEST JUMPDEST PUSH0 PUSH2 0x3CC DUP5 DUP3 DUP6 ADD PUSH2 0x396 JUMP JUMPDEST SWAP2 POP POP SWAP3 SWAP2 POP POP JUMP JUMPDEST PUSH2 0x3DE DUP2 PUSH2 0x31B JUMP JUMPDEST DUP2 EQ PUSH2 0x3E8 JUMPI PUSH0 DUP1 REVERT JUMPDEST POP JUMP JUMPDEST PUSH0 DUP2 CALLDATALOAD SWAP1 POP PUSH2 0x3F9 DUP2 PUSH2 0x3D5 JUMP JUMPDEST SWAP3 SWAP2 POP POP JUMP JUMPDEST PUSH0 PUSH1 0x20 DUP3 DUP5 SUB SLT ISZERO PUSH2 0x414 JUMPI PUSH2 0x413 PUSH2 0x34C JUMP JUMPDEST JUMPDEST PUSH0 PUSH2 0x421 DUP5 DUP3 DUP6 ADD PUSH2 0x3EB JUMP JUMPDEST SWAP2 POP POP SWAP3 SWAP2 POP POP JUMP JUMPDEST PUSH2 0x433 DUP2 PUSH2 0x36F JUMP JUMPDEST DUP3 MSTORE POP POP JUMP JUMPDEST PUSH0 PUSH1 0x20 DUP3 ADD SWAP1 POP PUSH2 0x44C PUSH0 DUP4 ADD DUP5 PUSH2 0x42A JUMP JUMPDEST SWAP3 SWAP2 POP POP JUMP JUMPDEST PUSH0 DUP3 DUP3 MSTORE PUSH1 0x20 DUP3 ADD SWAP1 POP SWAP3 SWAP2 POP POP JUMP JUMPDEST PUSH32 0x4E6F7420656E6F756768204574682053656E7400000000000000000000000000 PUSH0 DUP3 ADD MSTORE POP JUMP JUMPDEST PUSH0 PUSH2 0x496 PUSH1 0x13 DUP4 PUSH2 0x452 JUMP JUMPDEST SWAP2 POP PUSH2 0x4A1 DUP3 PUSH2 0x462 JUMP JUMPDEST PUSH1 0x20 DUP3 ADD SWAP1 POP SWAP2 SWAP1 POP JUMP JUMPDEST PUSH0 PUSH1 0x20 DUP3 ADD SWAP1 POP DUP2 DUP2 SUB PUSH0 DUP4 ADD MSTORE PUSH2 0x4C3 DUP2 PUSH2 0x48A JUMP JUMPDEST SWAP1 POP SWAP2 SWAP1 POP JUMP JUMPDEST PUSH32 0x4E487B7100000000000000000000000000000000000000000000000000000000 PUSH0 MSTORE PUSH1 0x11 PUSH1 0x4 MSTORE PUSH1 0x24 PUSH0 REVERT JUMPDEST PUSH0 PUSH2 0x501 DUP3 PUSH2 0x31B JUMP JUMPDEST SWAP2 POP PUSH2 0x50C DUP4 PUSH2 0x31B JUMP JUMPDEST SWAP3 POP DUP3 DUP3 ADD SWAP1 POP DUP1 DUP3 GT ISZERO PUSH2 0x524 JUMPI PUSH2 0x523 PUSH2 0x4CA JUMP JUMPDEST JUMPDEST SWAP3 SWAP2 POP POP JUMP JUMPDEST PUSH0 PUSH2 0x534 DUP3 PUSH2 0x31B JUMP JUMPDEST SWAP2 POP PUSH2 0x53F DUP4 PUSH2 0x31B JUMP JUMPDEST SWAP3 POP DUP3 DUP3 MUL PUSH2 0x54D DUP2 PUSH2 0x31B JUMP JUMPDEST SWAP2 POP DUP3 DUP3 DIV DUP5 EQ DUP4 ISZERO OR PUSH2 0x564 JUMPI PUSH2 0x563 PUSH2 0x4CA JUMP JUMPDEST JUMPDEST POP SWAP3 SWAP2 POP POP JUMP JUMPDEST PUSH32 0x4E487B7100000000000000000000000000000000000000000000000000000000 PUSH0 MSTORE PUSH1 0x12 PUSH1 0x4 MSTORE PUSH1 0x24 PUSH0 REVERT JUMPDEST PUSH0 PUSH2 0x5A2 DUP3 PUSH2 0x31B JUMP JUMPDEST SWAP2 POP PUSH2 0x5AD DUP4 PUSH2 0x31B JUMP JUMPDEST SWAP3 POP DUP3 PUSH2 0x5BD JUMPI PUSH2 0x5BC PUSH2 0x56B JUMP JUMPDEST JUMPDEST DUP3 DUP3 DIV SWAP1 POP SWAP3 SWAP2 POP POP JUMP JUMPDEST PUSH32 0x546F6B656E204578686175737465640000000000000000000000000000000000 PUSH0 DUP3 ADD MSTORE POP JUMP JUMPDEST PUSH0 PUSH2 0x5FC PUSH1 0xF DUP4 PUSH2 0x452 JUMP JUMPDEST SWAP2 POP PUSH2 0x607 DUP3 PUSH2 0x5C8 JUMP JUMPDEST PUSH1 0x20 DUP3 ADD SWAP1 POP SWAP2 SWAP1 POP JUMP JUMPDEST PUSH0 PUSH1 0x20 DUP3 ADD SWAP1 POP DUP2 DUP2 SUB PUSH0 DUP4 ADD MSTORE PUSH2 0x629 DUP2 PUSH2 0x5F0 JUMP JUMPDEST SWAP1 POP SWAP2 SWAP1 POP JUMP JUMPDEST PUSH0 PUSH2 0x63A DUP3 PUSH2 0x31B JUMP JUMPDEST SWAP2 POP PUSH2 0x645 DUP4 PUSH2 0x31B JUMP JUMPDEST SWAP3 POP DUP3 DUP3 SUB SWAP1 POP DUP2 DUP2 GT ISZERO PUSH2 0x65D JUMPI PUSH2 0x65C PUSH2 0x4CA JUMP JUMPDEST JUMPDEST SWAP3 SWAP2 POP POP JUMP INVALID LOG2 PUSH5 0x6970667358 0x22 SLT KECCAK256 0xE0 PUSH31 0xA27E7330EBF00B25BDF8B98550B4415D92AB85443156472764EDF3C16FF64 PUSH20 0x6F6C634300081A00330000000000000000000000 "
				},
				"gasEstimates": {
					"creation": {
						"codeDepositCost": "337800",
						"executionCost": "22477",
						"totalCost": "360277"
					},
					"external": {
						"": "infinite",
						"buyers(uint256)": "4988",
						"buyersToUCAmount(address)": "2802",
						"fund()": "infinite",
						"totalSupply()": "2402"
					},
					"internal": {
						"conversionRate(uint256)": "infinite",
						"tokenDisbursal()": "infinite"
					}
				},
				"methodIdentifiers": {
					"buyers(uint256)": "f2aa8218",
					"buyersToUCAmount(address)": "a9aa1476",
					"fund()": "b60d4288",
					"totalSupply()": "18160ddd"
				}
			},
			"storageLayout": {
				"storage": [
					{
						"astId": 4,
						"contract": "contracts/TokenSale.sol:UnpaidCoinSale",
						"label": "totalSupply",
						"offset": 0,
						"slot": "0",
						"type": "t_uint256"
					},
					{
						"astId": 6,
						"contract": "contracts/TokenSale.sol:UnpaidCoinSale",
						"label": "ethAmount",
						"offset": 0,
						"slot": "1",
						"type": "t_uint256"
					},
					{
						"astId": 8,
						"contract": "contracts/TokenSale.sol:UnpaidCoinSale",
						"label": "totalRaised",
						"offset": 0,
						"slot": "2",
						"type": "t_uint256"
					},
					{
						"astId": 11,
						"contract": "contracts/TokenSale.sol:UnpaidCoinSale",
						"label": "buyers",
						"offset": 0,
						"slot": "3",
						"type": "t_array(t_address)dyn_storage"
					},
					{
						"astId": 15,
						"contract": "contracts/TokenSale.sol:UnpaidCoinSale",
						"label": "buyersToUCAmount",
						"offset": 0,
						"slot": "4",
						"type": "t_mapping(t_address,t_uint256)"
					}
				],
				"types": {
					"t_address": {
						"encoding": "inplace",
						"label": "address",
						"numberOfBytes": "20"
					},
					"t_array(t_address)dyn_storage": {
						"base": "t_address",
						"encoding": "dynamic_array",
						"label": "address[]",
						"numberOfBytes": "32"
					},
					"t_mapping(t_address,t_uint256)": {
						"encoding": "mapping",
						"key": "t_address",
						"label": "mapping(address => uint256)",
						"numberOfBytes": "32",
						"value": "t_uint256"
					},
					"t_uint256": {
						"encoding": "inplace",
						"label": "uint256",
						"numberOfBytes": "32"
					}
				}
			},
			"userdoc": {
				"kind": "user",
				"methods": {},
				"version": 1
			}
		}
	}
}